0195010230999992021010100204+69056+018540FM-15+007799999V0201101N005119999999N009999199+00101-00401999999ADDGA1021+057911999GE19MSL   +99999+99999GF199999021999057911999999MA1101301999999REMMET104METAR ENDU 010020Z AUTO 11010KT 9999 FEW190/// 01/M04 Q1013 RMK WIND 1100FT 07008KT WIND 2200FT 12015KT=
0151010230999992021010100504+69056+018540FM-15+007799999V0201101N005112200019N009999199+00001-00401999999ADDGF100991999999999999999999MA1101301999999REMMET098METAR ENDU 010050Z AUTO 11010KT 9999 NCD 00/M04 Q1013 RMK WIND 1100FT 08007KT WIND 2200FT 11017KT=
0118010230999992021010101004+69058+018544FM-12+007699999V0201141N0054199999999999999999+00061-00441101351ADDAA101999999KA1010M+00071KA2010N+00021MA1999999100391MD1110141+9999OC100971OD140100971114OD299900621999REMSYN004BUFR
0159010230999992021010101204+69056+018540FM-15+007799999V0201101V004612200019N009999199+00101-00401999999ADDGF100991999999999999999999MA1101301999999REMMET106METAR ENDU 010120Z AUTO 11009KT 070V140 9999 NCD 01/M04 Q1013 RMK WIND 1100FT 09015KT WIND 2200FT 12020KT=
0151010230999992021010101504+69056+018540FM-15+007799999V0201101N006712200019N009999199+00001-00501999999ADDGF100991999999999999999999MA1101301999999REMMET098METAR ENDU 010150Z AUTO 11013KT 9999 NCD 00/M05 Q1013 RMK WIND 1100FT 07007KT WIND 2200FT 11015KT=
0118010230999992021010102004+69058+018544FM-12+007699999V0201141N0060199999999999999999+00051-00481101391ADDAA101999999KA1010M+00081KA2010N+00031MA1999999100431MD1110101+9999OC101011OD140101011085OD299900691999REMSYN004BUFR
0151010230999992021010102204+69056+018540FM-15+007799999V0201201N007712200019N009999199+00001-00501999999ADDGF100991999999999999999999MA1101301999999REMMET098METAR ENDU 010220Z AUTO 12015KT 9999 NCD 00/M05 Q1013 RMK WIND 1100FT 09012KT WIND 2200FT 11016KT=
0160010230999992021010102504+69056+018540FM-15+007799999V0201201V004612200019N009999199+00001-00501999999ADDGF100991999999999999999999MA1101301999999REMMET107METAR ENDU 010250Z AUTO 12009KT 090V150 9999 NCD M00/M05 Q1013 RMK WIND 1100FT 09008KT WIND 2200FT 13015KT=
0118010230999992021010103004+69058+018544FM-12+007699999V0201071N0031199999999999999999-00021-00521101451ADDAA101999999KA1010M+00051KA2010N-00021MA1999999100481MD1310091+9999OC101131OD140101131103OD299900751999REMSYN004BUFR
0160010230999992021010103204+69056+018540FM-15+007799999V0201001V002612200019N009999199-00101-00501999999ADDGF100991999999999999999999MA1101401999999REMMET107METAR ENDU 010320Z AUTO 10005KT 070V160 9999 NCD M01/M05 Q1014 RMK WIND 1100FT VRB05KT WIND 2200FT 14022KT=
0152010230999992021010103504+69056+018540FM-15+007799999V0209999V000512200019N009999199-00101-00601999999ADDGF100991999999999999999999MA1101401999999REMMET099METAR ENDU 010350Z AUTO VRB01KT 9999 NCD M01/M06 Q1014 RMK WIND 1100FT 09010KT WIND 2200FT 14023KT=
0126010230999992021010104204+69056+018540FM-15+007799999V0201201V002619999999Y009900599-00101-00601999999ADDMA1101401999999REMMET099METAR ENDU 010420Z 12005KT 070V160 CAVOK M01/M06 Q1014 RMK WIND 1100FT 11008KT WIND 2200FT 14020KT=
0126010230999992021010104504+69056+018540FM-15+007799999V0201201V004619999999Y009900599-00101-00601999999ADDMA1101401999999REMMET099METAR ENDU 010450Z 12009KT 090V160 CAVOK M01/M06 Q1014 RMK WIND 1100FT 10010KT WIND 2200FT 14018KT=
0118010230999992021010105204+69056+018540FM-15+007799999V0201201N005119999999Y009900599-00101-00601999999ADDMA1101401999999REMMET091METAR ENDU 010520Z 12010KT CAVOK M01/M06 Q1014 RMK WIND 1100FT 09010KT WIND 2200FT 14018KT=
0124010230999992021010105504+69056+018540FM-15+007799999V0201101N003619999999Y009900599-00101-00601999999ADDMA1101401999999REMMET097METAR ENDU 010550Z 11007KT CAVOK M01/M06 Q1014 NOSIG RMK WIND 1100FT 09010KT WIND 2200FT 14022KT=
0124010230999992021010106204+69056+018540FM-15+007799999V0201201N004619999999Y009900599-00101-00601999999ADDMA1101401999999REMMET097METAR ENDU 010620Z 12009KT CAVOK M01/M06 Q1014 NOSIG RMK WIND 1100FT 10010KT WIND 2200FT 13017KT=
0124010230999992021010106504+69056+018540FM-15+007799999V0201301N004619999999Y009900599-00101-00601999999ADDMA1101401999999REMMET097METAR ENDU 010650Z 13009KT CAVOK M01/M06 Q1014 NOSIG RMK WIND 1100FT 10011KT WIND 2200FT 14020KT=
0118010230999992021010107004+69058+018544FM-12+007699999V0201101N0049199999999999999999-00151-00641101491ADDAA101999999KA1010M-00091KA2010N-00161MA1999999100521MD1210011+9999OC100801OD140100801103OD299900551999REMSYN004BUFR
0132010230999992021010107204+69056+018540FM-15+007799999V0201101V003119999999Y009900599-00201-00701999999ADDMA1101401999999REMMET105METAR ENDU 010720Z 11006KT 080V140 CAVOK M02/M07 Q1014 NOSIG RMK WIND 1100FT 09010KT WIND 2200FT 14016KT=
0132010230999992021010107504+69056+018540FM-15+007799999V0201001V002119999999Y009900599-00201-00701999999ADDMA1101401999999REMMET105METAR ENDU 010750Z 10004KT 070V140 CAVOK M02/M07 Q1014 NOSIG RMK WIND 1100FT 09006KT WIND 2200FT 12012KT=
0132010230999992021010108204+69056+018540FM-15+007799999V0201001V002619999999Y009900599-00301-00701999999ADDMA1101401999999REMMET105METAR ENDU 010820Z 10005KT 070V130 CAVOK M03/M07 Q1014 NOSIG RMK WIND 1100FT 10010KT WIND 2200FT 13014KT=
0132010230999992021010108504+69056+018540FM-15+007799999V0200601V002619999999Y009900599-00301-00701999999ADDMA1101401999999REMMET105METAR ENDU 010850Z 06005KT 010V110 CAVOK M03/M07 Q1014 NOSIG RMK WIND 1100FT 08010KT WIND 2200FT 11010KT=
0196010230999992021010109004+69058+018544FM-12+007699999V0200561N0017122000199075000199-00301-00691101551ADDAA101999999AY101031AY201031GA1011+025001031GE19MSL   +99999+99999GF101991011999025001999999KA1010M-00221KA2010N-00301MA1999999100571MD1210071+9999MW1031OD140100451057OD299900551999REMSYN004BUFR
0124010230999992021010109204+69056+018540FM-15+007799999V0209999C000019999999Y009900599-00501-00801999999ADDMA1101401999999REMMET097METAR ENDU 010920Z 00000KT CAVOK M05/M08 Q1014 NOSIG RMK WIND 1100FT 10006KT WIND 2200FT 14011KT=
0124010230999992021010109504+69056+018540FM-15+007799999V0209999V001519999999Y009900599-00901-01101999999ADDMA1101501999999REMMET097METAR ENDU 010950Z VRB03KT CAVOK M09/M11 Q1015 NOSIG RMK WIND 1100FT 10007KT WIND 2200FT 15016KT=
0110010230999992021010110004+69058+018544FM-12+007699999V0202701N0014199999999999999999-00901-01071101581ADDAA101999999KA1010M-00301KA2010N-00911MA1999999100581MD1110061+9999OD140100231296OD299900171999REMSYN004BUFR
0124010230999992021010110204+69056+018540FM-15+007799999V0202901N001019999999Y009900599-01001-01101999999ADDMA1101501999999REMMET097METAR ENDU 011020Z 29002KT CAVOK M10/M11 Q1015 NOSIG RMK WIND 1100FT 11004KT WIND 2200FT 14011KT=
0124010230999992021010110504+69056+018540FM-15+007799999V0209999V000519999999Y009900599-01001-01101999999ADDMA1101501999999REMMET097METAR ENDU 011050Z VRB01KT CAVOK M10/M11 Q1015 NOSIG RMK WIND 1100FT 09005KT WIND 2200FT 14012KT=
0124010230999992021010111204+69056+018540FM-15+007799999V0209999C000019999999Y009900599-01101-01201999999ADDMA1101401999999REMMET097METAR ENDU 011120Z 00000KT CAVOK M11/M12 Q1014 NOSIG RMK WIND 1100FT 11006KT WIND 2200FT 15010KT=
0124010230999992021010111504+69056+018540FM-15+007799999V0209999V001019999999Y009900599-01201-01301999999ADDMA1101501999999REMMET097METAR ENDU 011150Z VRB02KT CAVOK M12/M13 Q1015 NOSIG RMK WIND 1100FT 12004KT WIND 2200FT 15011KT=
0124010230999992021010112204+69056+018540FM-15+007799999V0209999V001019999999Y009900599-01201-01301999999ADDMA1101401999999REMMET097METAR ENDU 011220Z VRB02KT CAVOK M12/M13 Q1014 NOSIG RMK WIND 1100FT 15005KT WIND 2200FT 15009KT=
0124010230999992021010112504+69056+018540FM-15+007799999V0209999V000519999999Y009900599-01201-01401999999ADDMA1101401999999REMMET097METAR ENDU 011250Z VRB01KT CAVOK M12/M14 Q1014 NOSIG RMK WIND 1100FT 14005KT WIND 2200FT 16009KT=
0110010230999992021010113004+69058+018544FM-12+007699999V0202831N0008199999999999999999-01251-01371101571ADDAA101999999KA1010M-01151KA2010N-01271MA1999999100561MD1710021+9999OD140100161302OD299900131999REMSYN004BUFR
0118010230999992021010113204+69056+018540FM-15+007799999V0202901N001519999999Y009900599-01301-01501999999ADDMA1101401999999REMMET091METAR ENDU 011320Z 29003KT CAVOK M13/M15 Q1014 RMK WIND 1100FT 14004KT WIND 2200FT 16010KT=
0118010230999992021010113504+69056+018540FM-15+007799999V0203101N001019999999Y009900599-01301-01401999999ADDMA1101401999999REMMET091METAR ENDU 011350Z 31002KT CAVOK M13/M14 Q1014 RMK WIND 1100FT 14004KT WIND 2200FT 16006KT=
0110010230999992021010114004+69058+018544FM-12+007699999V0202941N0006199999999999999999-01321-01481101581ADDAA101999999KA1010M-01261KA2010N-01371MA1999999100561MD1710021+9999OD140100181274OD299900151999REMSYN004BUFR
0118010230999992021010114204+69056+018540FM-15+007799999V0209999V001019999999Y009900599-01301-01501999999ADDMA1101401999999REMMET091METAR ENDU 011420Z VRB02KT CAVOK M13/M15 Q1014 RMK WIND 1100FT 14004KT WIND 2200FT 17004KT=
0118010230999992021010114504+69056+018540FM-15+007799999V0209999C000019999999Y009900599-01401-01601999999ADDMA1101401999999REMMET091METAR ENDU 011450Z 00000KT CAVOK M14/M16 Q1014 RMK WIND 1100FT 12004KT WIND 2200FT 15005KT=
0212010230999992021010115004+69058+018544FM-12+007699999V0202971N0011122000199075000199-01391-01531101581ADDAA101999999AY101031AY201031GA1011+025001031GA2999+999999021GE19MSL   +99999+99999GF102991011999025001999999KA1010M-01321KA2010N-01421MA1999999100561MD1510021+9999MW1021OD140100131285OD299900151999REMSYN004BUFR
0118010230999992021010115204+69056+018540FM-15+007799999V0209999C000019999999Y009900599-01401-01601999999ADDMA1101401999999REMMET091METAR ENDU 011520Z 00000KT CAVOK M14/M16 Q1014 RMK WIND 1100FT 12005KT WIND 2200FT VRB01KT=
0118010230999992021010115504+69056+018540FM-15+007799999V0209999C000019999999Y009900599-01501-01701999999ADDMA1101401999999REMMET091METAR ENDU 011550Z 00000KT CAVOK M15/M17 Q1014 RMK WIND 1100FT 16005KT WIND 2200FT 36003KT=
0110010230999992021010116004+69058+018544FM-12+007699999V0203011N0004199999999999999999-01391-01521101551ADDAA101999999KA1010M-01391KA2010N-01501MA1999999100531MD1710031+9999OD140100151296OD299900111999REMSYN004BUFR
0118010230999992021010116204+69056+018540FM-15+007799999V0209999V000519999999Y009900599-01401-01601999999ADDMA1101401999999REMMET091METAR ENDU 011620Z VRB01KT CAVOK M14/M16 Q1014 RMK WIND 1100FT VRB01KT WIND 2200FT VRB02KT=
0118010230999992021010116504+69056+018540FM-15+007799999V0209999C000019999999Y009900599-01401-01601999999ADDMA1101401999999REMMET091METAR ENDU 011650Z 00000KT CAVOK M14/M16 Q1014 RMK WIND 1100FT 03002KT WIND 2200FT VRB03KT=
0110010230999992021010117004+69058+018544FM-12+007699999V0202991N0005199999999999999999-01421-01601101571ADDAA101999999KA1010M-01391KA2010N-01501MA1999999100551MD1510011+9999OD140100121274OD299900091999REMSYN004BUFR
0118010230999992021010117204+69056+018540FM-15+007799999V0209999V001019999999Y009900599-01401-01601999999ADDMA1101401999999REMMET091METAR ENDU 011720Z VRB02KT CAVOK M14/M16 Q1014 RMK WIND 1100FT VRB02KT WIND 2200FT 35005KT=
0118010230999992021010117504+69056+018540FM-15+007799999V0209999V000519999999Y009900599-01501-01601999999ADDMA1101401999999REMMET091METAR ENDU 011750Z VRB01KT CAVOK M15/M16 Q1014 RMK WIND 1100FT 13003KT WIND 2200FT 02006KT=
0118010230999992021010118204+69056+018540FM-15+007799999V0209999C000019999999Y009900599-01501-01701999999ADDMA1101401999999REMMET091METAR ENDU 011820Z 00000KT CAVOK M15/M17 Q1014 RMK WIND 1100FT 16003KT WIND 2200FT 35006KT=
0118010230999992021010118504+69056+018540FM-15+007799999V0209999V000519999999Y009900599-01501-01601999999ADDMA1101401999999REMMET091METAR ENDU 011850Z VRB01KT CAVOK M15/M16 Q1014 RMK WIND 1100FT 14003KT WIND 2200FT 33005KT=
0110010230999992021010119004+69058+018544FM-12+007699999V0202911N0011199999999999999999-01541-01721101591ADDAA101999999KA1010M-01461KA2010N-01541MA1999999100571MD1210031+9999OD140100151313OD299900111999REMSYN004BUFR
0118010230999992021010119204+69056+018540FM-15+007799999V0202601N000519999999Y009900599-01501-01701999999ADDMA1101401999999REMMET091METAR ENDU 011920Z 26001KT CAVOK M15/M17 Q1014 RMK WIND 1100FT 11004KT WIND 2200FT 35006KT=
0118010230999992021010119504+69056+018540FM-15+007799999V0209999C000019999999Y009900599-01601-01801999999ADDMA1101401999999REMMET091METAR ENDU 011950Z 00000KT CAVOK M16/M18 Q1014 RMK WIND 1100FT 13004KT WIND 2200FT 35006KT=
0118010230999992021010120204+69056+018540FM-15+007799999V0202901N000519999999Y009900599-01601-01801999999ADDMA1101401999999REMMET091METAR ENDU 012020Z 29001KT CAVOK M16/M18 Q1014 RMK WIND 1100FT 13004KT WIND 2200FT 36004KT=
0118010230999992021010120504+69056+018540FM-15+007799999V0209999C000019999999Y009900599-01601-01801999999ADDMA1101501999999REMMET091METAR ENDU 012050Z 00000KT CAVOK M16/M18 Q1015 RMK WIND 1100FT 14005KT WIND 2200FT 35004KT=
0212010230999992021010121004+69058+018544FM-12+007699999V0203031N0009122000199075000199-01651-01841101621ADDAA101999999AY101031AY201031GA1011+025001031GA2999+999999021GE19MSL   +99999+99999GF102991011999025001999999KA1010M-01551KA2010N-01671MA1999999100591MD1210041+9999MW1021OD140100141296OD299900111999REMSYN004BUFR
0118010230999992021010121204+69056+018540FM-15+007799999V0209999C000019999999Y009900599-01601-01801999999ADDMA1101501999999REMMET091METAR ENDU 012120Z 00000KT CAVOK M16/M18 Q1015 RMK WIND 1100FT 14005KT WIND 2200FT 35005KT=
0118010230999992021010121504+69056+018540FM-15+007799999V0202901N001019999999Y009900599-01701-01901999999ADDMA1101501999999REMMET091METAR ENDU 012150Z 29002KT CAVOK M17/M19 Q1015 RMK WIND 1100FT 12006KT WIND 2200FT 33003KT=
0110010230999992021010122004+69058+018544FM-12+007699999V0202791N0011199999999999999999-01651-01811101631ADDAA101999999KA1010M-01601KA2010N-01691MA1999999100601MD1210041+9999OD140100151285OD299900111999REMSYN004BUFR
0152010230999992021010122204+69056+018540FM-15+007799999V0209999C000012200019N009999199-01701-01901999999ADDGF100991999999999999999999MA1101501999999REMMET099METAR ENDU 012220Z AUTO 00000KT 9999 NCD M17/M19 Q1015 RMK WIND 1100FT 14005KT WIND 2200FT 16006KT=
0152010230999992021010122504+69056+018540FM-15+007799999V0202901N001012200019N009999199-01701-01901999999ADDGF100991999999999999999999MA1101501999999REMMET099METAR ENDU 012250Z AUTO 29002KT 9999 NCD M17/M19 Q1015 RMK WIND 1100FT 14007KT WIND 2200FT 17005KT=
0152010230999992021010123204+69056+018540FM-15+007799999V0209999C000012200019N009999199-01701-01901999999ADDGF100991999999999999999999MA1101501999999REMMET099METAR ENDU 012320Z AUTO 00000KT 9999 NCD M17/M19 Q1015 RMK WIND 1100FT 16005KT WIND 2200FT 24003KT=
0152010230999992021010123504+69056+018540FM-15+007799999V0209999V001012200019N009999199-01701-01901999999ADDGF100991999999999999999999MA1101501999999REMMET099METAR ENDU 012350Z AUTO VRB02KT 9999 NCD M17/M19 Q1015 RMK WIND 1100FT 17005KT WIND 2200FT 26004KT=
0196010230999992021010200204+69056+018540FM-15+007799999V0209999C000019999999N009999199-01801-02001999999ADDGA1021+007011999GE19MSL   +99999+99999GF199999021999007011999999MA1101501999999REMMET105METAR ENDU 020020Z AUTO 00000KT 9999 FEW023/// M18/M20 Q1015 RMK WIND 1100FT 16006KT WIND 2200FT 30003KT=
0196010230999992021010200504+69056+018540FM-15+007799999V0209999V001019999999N009999199-01701-01901999999ADDGA1041+007321999GE19MSL   +99999+99999GF199999041999007321999999MA1101501999999REMMET105METAR ENDU 020050Z AUTO VRB02KT 9999 SCT024/// M17/M19 Q1015 RMK WIND 1100FT 17005KT WIND 2200FT 32005KT=
0110010230999992021010201004+69058+018544FM-12+007699999V0203601N0000199999999999999999-01641-01811101641ADDAA101999999KA1010M-01641KA2010N-01761MA1999999100611MD1010001+9999OD140100131192OD299900091999REMSYN004BUFR
0196010230999992021010201204+69056+018540FM-15+007799999V0209999C00001007621CN009999199-01601-01801999999ADDGA1071+007621999GE19MSL   +99999+99999GF199999071999007621999999MA1101501999999REMMET105METAR ENDU 020120Z AUTO 00000KT 9999 BKN025/// M16/M18 Q1015 RMK WIND 1100FT 20002KT WIND 2200FT 34006KT=
0196010230999992021010201504+69056+018540FM-15+007799999V0209999C00001007621CN009999199-01501-01701999999ADDGA1081+007621999GE19MSL   +99999+99999GF199999081999007621999999MA1101501999999REMMET105METAR ENDU 020150Z AUTO 00000KT 9999 OVC025/// M15/M17 Q1015 RMK WIND 1100FT 17003KT WIND 2200FT 33007KT=
0196010230999992021010202204+69056+018540FM-15+007799999V0209999C00001007011CN009999199-01301-01401999999ADDGA1081+007011999GE19MSL   +99999+99999GF199999081999007011999999MA1101501999999REMMET105METAR ENDU 020220Z AUTO 00000KT 9999 OVC023/// M13/M14 Q1015 RMK WIND 1100FT VRB02KT WIND 2200FT 32005KT=
0196010230999992021010202504+69056+018540FM-15+007799999V0209999C00001007011CN009999199-01101-01201999999ADDGA1081+007011999GE19MSL   +99999+99999GF199999081999007011999999MA1101501999999REMMET105METAR ENDU 020250Z AUTO 00000KT 9999 OVC023/// M11/M12 Q1015 RMK WIND 1100FT 18005KT WIND 2200FT 31003KT=
0110010230999992021010203004+69058+018544FM-12+007699999V0203601N0000199999999999999999-01121-01251101651ADDAA101999999KA1010M-01121KA2010N-01461MA1999999100641MD1310021+9999OD140100151296OD299900091999REMSYN004BUFR
0196010230999992021010203204+69056+018540FM-15+007799999V0209999C00001007621CN009999199-01101-01201999999ADDGA1081+007621999GE19MSL   +99999+99999GF199999081999007621999999MA1101501999999REMMET105METAR ENDU 020320Z AUTO 00000KT 9999 OVC025/// M11/M12 Q1015 RMK WIND 1100FT 17005KT WIND 2200FT 30004KT=
0196010230999992021010203504+69056+018540FM-15+007799999V0209999C00001008231CN009999199-01001-01201999999ADDGA1081+008231999GE19MSL   +99999+99999GF199999081999008231999999MA1101501999999REMMET105METAR ENDU 020350Z AUTO 00000KT 9999 OVC027/// M10/M12 Q1015 RMK WIND 1100FT 16006KT WIND 2200FT 36004KT=
0110010230999992021010204004+69058+018544FM-12+007699999V0202581N0004199999999999999999-01001-01141101641ADDAA101999999KA1010M-01011KA2010N-01111MA1999999100631MD1010021+9999OD140100101353OD299900061999REMSYN004BUFR
0196010230999992021010204204+69056+018540FM-15+007799999V0209999C00001009141CN009999199-01001-01101999999ADDGA1081+009141999GE19MSL   +99999+99999GF199999081999009141999999MA1101501999999REMMET105METAR ENDU 020420Z AUTO 00000KT 9999 OVC030/// M10/M11 Q1015 RMK WIND 1100FT 18006KT WIND 2200FT 20005KT=
0196010230999992021010204504+69056+018540FM-15+007799999V0209999V00051009141CN009999199-00901-01001999999ADDGA1081+009141999GE19MSL   +99999+99999GF199999081999009141999999MA1101501999999REMMET105METAR ENDU 020450Z AUTO VRB01KT 9999 OVC030/// M09/M10 Q1015 RMK WIND 1100FT 17006KT WIND 2200FT 20008KT=
0188010230999992021010205204+69056+018540FM-15+007799999V0209999V00151009141CN009999199-01001-01201999999ADDGA1071+009141999GE19MSL   +99999+99999GF199999071999009141999999MA1101501999999REMMET097METAR ENDU 020520Z VRB03KT 9999 BKN030 M10/M12 Q1015 RMK WIND 1100FT 17006KT WIND 2200FT 18006KT=
0194010230999992021010205504+69056+018540FM-15+007799999V0209999V00051009141CN009999199-00901-01101999999ADDGA1071+009141999GE19MSL   +99999+99999GF199999071999009141999999MA1101501999999REMMET103METAR ENDU 020550Z VRB01KT 9999 BKN030 M09/M11 Q1015 NOSIG RMK WIND 1100FT 16008KT WIND 2200FT 19007KT=
0194010230999992021010206204+69056+018540FM-15+007799999V0209999C00001009141CN009999199-00901-01001999999ADDGA1071+009141999GE19MSL   +99999+99999GF199999071999009141999999MA1101501999999REMMET103METAR ENDU 020620Z 00000KT 9999 BKN030 M09/M10 Q1015 NOSIG RMK WIND 1100FT 14006KT WIND 2200FT 18007KT=
0194010230999992021010206504+69056+018540FM-15+007799999V0209999V00051009141CN009999199-00801-01001999999ADDGA1071+009141999GE19MSL   +99999+99999GF199999071999009141999999MA1101501999999REMMET103METAR ENDU 020650Z VRB01KT 9999 BKN030 M08/M10 Q1015 NOSIG RMK WIND 1100FT 14006KT WIND 2200FT 17007KT=
0110010230999992021010207004+69058+018544FM-12+007699999V0203601N0000199999999999999999-00821-00951101661ADDAA101999999KA1010M-00821KA2010N-00921MA1999999100661MD1310031+9999OD140100131262OD299900091999REMSYN004BUFR
0204010230999992021010207204+69056+018540FM-15+007799999V0209999V00051009141CN009999199-00801-00901999999ADDGA1071+009141999GE19MSL   +99999+99999GF199999071999009141999999MA1101501999999MW1711REMMET107METAR ENDU 020720Z VRB01KT 9999 -SN BKN030 M08/M09 Q1015 NOSIG RMK WIND 1100FT 17007KT WIND 2200FT 18007KT=
0227010230999992021010207504+69056+018540FM-15+007799999V0209999C000010106719N009999199-00801-00901999999ADDGA1021+007621999GA2071+010671999GE19MSL   +99999+99999GF199999021999007621999999MA1101601999999MW1711REMMET114METAR ENDU 020750Z 00000KT 9999 -SN FEW025 BKN035 M08/M09 Q1016 NOSIG RMK WIND 1100FT 17005KT WIND 2200FT 20005KT=
0110010230999992021010208004+69058+018544FM-12+007699999V0203601N0000199999999999999999-00771-00891101691ADDAA101999999KA1010M-00781KA2010N-00831MA1999999100691MD1310051+9999OD140100191321OD299900111999REMSYN004BUFR
0228010230999992021010208204+69056+018540FM-15+007799999V0209999V001010106719N009999199-00801-00901999999ADDGA1021+006101999GA2071+010671999GE19MSL   +99999+99999GF199999021999006101999999MA1101601999999MW1161REMMET115METAR ENDU 020820Z VRB02KT 9999 VCSH FEW020 BKN035 M08/M09 Q1016 NOSIG RMK WIND 1100FT 20004KT WIND 2200FT 24005KT=
0227010230999992021010208504+69056+018540FM-15+007799999V0209999V000510106719N009999199-00801-00901999999ADDGA1021+005491999GA2071+010671999GE19MSL   +99999+99999GF199999021999005491999999MA1101601999999MW1711REMMET114METAR ENDU 020850Z VRB01KT 9999 -SN FEW018 BKN035 M08/M09 Q1016 NOSIG RMK WIND 1100FT 21004KT WIND 2200FT 26010KT=
0228010230999992021010209004+69058+018544FM-12+007699999V0201351N00081003001C9055000199-00751-00871101741ADDAA101999999AY171031AY221031GA1081+003001061GA2999+999999101GA3999+999999101GE19MSL   +99999+99999GF108991081999003001999999KA1010M-00731KA2010N-00781MA1999999100741MD1310121+9999MW1701OD140100171137OD299900121999REMSYN004BUFR
0217010230999992021010209204+69056+018540FM-15+007799999V0209999C000010106719N009999199-00701-00801999999ADDGA1021+006101999GA2071+010671999GE19MSL   +99999+99999GF199999021999006101999999MA1101601999999REMMET110METAR ENDU 020920Z 00000KT 9999 FEW020 BKN035 M07/M08 Q1016 NOSIG RMK WIND 1100FT 17004KT WIND 2200FT 27011KT=
0217010230999992021010209504+69056+018540FM-15+007799999V0209999V000510106719N009999199-00701-00801999999ADDGA1021+007621999GA2071+010671999GE19MSL   +99999+99999GF199999021999007621999999MA1101601999999REMMET110METAR ENDU 020950Z VRB01KT 9999 FEW025 BKN035 M07/M08 Q1016 NOSIG RMK WIND 1100FT 19003KT WIND 2200FT 28009KT=
0110010230999992021010210004+69058+018544FM-12+007699999V0202591N0007199999999999999999-00671-00781101761ADDAA101999999KA1010M-00681KA2010N-00761MA1999999100771MD1210101+9999OD140100141239OD299900101999REMSYN004BUFR
0217010230999992021010210204+69056+018540FM-15+007799999V0209999C000010106719N009999199-00701-00801999999ADDGA1021+007621999GA2071+010671999GE19MSL   +99999+99999GF199999021999007621999999MA1101601999999REMMET110METAR ENDU 021020Z 00000KT 9999 FEW025 BKN035 M07/M08 Q1016 NOSIG RMK WIND 1100FT VRB03KT WIND 2200FT 27009KT=
0217010230999992021010210504+69056+018540FM-15+007799999V0209999C000010106719N009999199-00701-00701999999ADDGA1021+007621999GA2071+010671999GE19MSL   +99999+99999GF199999021999007621999999MA1101701999999REMMET110METAR ENDU 021050Z 00000KT 9999 FEW025 BKN035 M07/M07 Q1017 NOSIG RMK WIND 1100FT 20003KT WIND 2200FT 26010KT=
0110010230999992021010211004+69058+018544FM-12+007699999V0201791N0005199999999999999999-00651-00741101781ADDAA101999999KA1010M-00651KA2010N-00681MA1999999100791MD1210101+9999OD140100121131OD299900081999REMSYN004BUFR
0217010230999992021010211204+69056+018540FM-15+007799999V0209999C000010106719N009999199-00601-00701999999ADDGA1021+007621999GA2071+010671999GE19MSL   +99999+99999GF199999021999007621999999MA1101701999999REMMET110METAR ENDU 021120Z 00000KT 9999 FEW025 BKN035 M06/M07 Q1017 NOSIG RMK WIND 1100FT 19004KT WIND 2200FT 27010KT=
0217010230999992021010211504+69056+018540FM-15+007799999V0209999C000010106719N009999199-00601-00701999999ADDGA1021+007621999GA2071+010671999GE19MSL   +99999+99999GF199999021999007621999999MA1101701999999REMMET110METAR ENDU 021150Z 00000KT 9999 FEW025 BKN035 M06/M07 Q1017 NOSIG RMK WIND 1100FT 21004KT WIND 2200FT 28010KT=
0217010230999992021010212204+69056+018540FM-15+007799999V0209999C000010106719N009999199-00601-00701999999ADDGA1021+007621999GA2071+010671999GE19MSL   +99999+99999GF199999021999007621999999MA1101701999999REMMET110METAR ENDU 021220Z 00000KT 9999 FEW025 BKN035 M06/M07 Q1017 NOSIG RMK WIND 1100FT 21004KT WIND 2200FT 29011KT=
0251010230999992021010212504+69056+018540FM-15+007799999V0209999V00051009141CN009999199-00601-00701999999ADDGA1021+006101999GA2041+009141999GA3071+012191999GE19MSL   +99999+99999GF199999021999006101999999MA1101701999999MW1161REMMET122METAR ENDU 021250Z VRB01KT 9999 VCSH FEW020 SCT030 BKN040 M06/M07 Q1017 NOSIG RMK WIND 1100FT 25003KT WIND 2200FT 28010KT=
0245010230999992021010213204+69056+018540FM-15+007799999V0209999C00001009141CN009999199-00601-00701999999ADDGA1021+006101999GA2041+009141999GA3071+012191999GE19MSL   +99999+99999GF199999021999006101999999MA1101701999999MW1161REMMET116METAR ENDU 021320Z 00000KT 9999 VCSH FEW020 SCT030 BKN040 M06/M07 Q1017 RMK WIND 1100FT 22003KT WIND 2200FT 29009KT=
0222010230999992021010213504+69056+018540FM-15+007799999V0209999C000010091419N009999199-00601-00701999999ADDGA1021+005491999GA2071+009141999GE19MSL   +99999+99999GF199999021999005491999999MA1101801999999MW1161REMMET109METAR ENDU 021350Z 00000KT 9999 VCSH FEW018 BKN030 M06/M07 Q1018 RMK WIND 1100FT VRB03KT WIND 2200FT 27011KT=
0222010230999992021010214204+69056+018540FM-15+007799999V0209999C000010091419N009999199-00601-00701999999ADDGA1021+005491999GA2071+009141999GE19MSL   +99999+99999GF199999021999005491999999MA1101801999999MW1161REMMET109METAR ENDU 021420Z 00000KT 9999 VCSH FEW018 BKN030 M06/M07 Q1018 RMK WIND 1100FT VRB02KT WIND 2200FT 29010KT=
0234010230999992021010214504+69056+018540FM-15+007799999V0209999C00001007621CN009999199-00601-00701999999ADDGA1021+005491999GA2041+007621999GA3071+010671999GE19MSL   +99999+99999GF199999021999005491999999MA1101801999999REMMET111METAR ENDU 021450Z 00000KT 9999 FEW018 SCT025 BKN035 M06/M07 Q1018 RMK WIND 1100FT 17003KT WIND 2200FT 29013KT=
0228010230999992021010215004+69058+018544FM-12+007699999V0203601N00001003001C9060000199-00571-00661101941ADDAA101999999AY171031AY221031GA1071+003001081GA2999+999999031GA3999+999999101GE19MSL   +99999+99999GF108991071999003001999999KA1010M-00571KA2010N-00591MA1999999100941MD1310121+9999MW1151OD140100081199OD299900091999REMSYN004BUFR
0248010230999992021010215204+69056+018540FM-15+007799999V0209999C000010085319N009999199-00601-00701999999ADDGA1041+006101999GA2071+008531999GA3071+012801999GE19MSL   +99999+99999GF199999041999006101999999MA1101801999999REMMET125METAR ENDU 021520Z AUTO 00000KT 9999 SCT020/// BKN028/// BKN042/// M06/M07 Q1018 RMK WIND 1100FT VRB02KT WIND 2200FT 29009KT=
0248010230999992021010215504+69056+018540FM-15+007799999V0209999C00001008231CN009999199-00601-00701999999ADDGA1021+006101999GA2041+008231999GA3081+014021999GE19MSL   +99999+99999GF199999021999006101999999MA1101801999999REMMET125METAR ENDU 021550Z AUTO 00000KT 9999 FEW020/// SCT027/// OVC046/// M06/M07 Q1018 RMK WIND 1100FT VRB01KT WIND 2200FT 28010KT=
0222010230999992021010216204+69056+018540FM-15+007799999V0209999C000010140219N009999199-00601-00701999999ADDGA1041+008841999GA2081+014021999GE19MSL   +99999+99999GF199999041999008841999999MA1101901999999REMMET115METAR ENDU 021620Z AUTO 00000KT 9999 SCT029/// OVC046/// M06/M07 Q1019 RMK WIND 1100FT VRB02KT WIND 2200FT 28009KT=
0222010230999992021010216504+69056+018540FM-15+007799999V0209999C00001010671CN009999199-00601-00701999999ADDGA1071+010671999GA2081+015541999GE19MSL   +99999+99999GF199999071999010671999999MA1101901999999REMMET115METAR ENDU 021650Z AUTO 00000KT 9999 BKN035/// OVC051/// M06/M07 Q1019 RMK WIND 1100FT 23003KT WIND 2200FT 27012KT=
0110010230999992021010217004+69058+018544FM-12+007699999V0202351N0004199999999999999999-00571-00681102031ADDAA101999999KA1010M-00571KA2010N-00591MA1999999101041MD1210151+9999OD140100121274OD299900081999REMSYN004BUFR
0222010230999992021010217204+69056+018540FM-15+007799999V0209999C000010137219N009999199-00601-00701999999ADDGA1021+008531999GA2081+013721999GE19MSL   +99999+99999GF199999021999008531999999MA1101901999999REMMET115METAR ENDU 021720Z AUTO 00000KT 9999 FEW028/// OVC045/// M06/M07 Q1019 RMK WIND 1100FT VRB03KT WIND 2200FT 28012KT=
0222010230999992021010217504+69056+018540FM-15+007799999V0209999C000010131119N009999199-00601-00701999999ADDGA1021+008231999GA2081+013111999GE19MSL   +99999+99999GF199999021999008231999999MA1101901999999REMMET115METAR ENDU 021750Z AUTO 00000KT 9999 FEW027/// OVC043/// M06/M07 Q1019 RMK WIND 1100FT 21005KT WIND 2200FT 27012KT=
0222010230999992021010218204+69056+018540FM-15+007799999V0209999C000010131119N009999199-00501-00601999999ADDGA1041+010061999GA2081+013111999GE19MSL   +99999+99999GF199999041999010061999999MA1101901999999REMMET115METAR ENDU 021820Z AUTO 00000KT 9999 SCT033/// OVC043/// M05/M06 Q1019 RMK WIND 1100FT 22003KT WIND 2200FT 26010KT=
0196010230999992021010218504+69056+018540FM-15+007799999V0209999C00001013411CN009999199-00501-00601999999ADDGA1081+013411999GE19MSL   +99999+99999GF199999081999013411999999MA1102001999999REMMET105METAR ENDU 021850Z AUTO 00000KT 9999 OVC044/// M05/M06 Q1020 RMK WIND 1100FT 25004KT WIND 2200FT 27012KT=
0196010230999992021010219204+69056+018540FM-15+007799999V0209999V00101012501CN009999199-00601-00701999999ADDGA1081+012501999GE19MSL   +99999+99999GF199999081999012501999999MA1102001999999REMMET105METAR ENDU 021920Z AUTO VRB02KT 9999 OVC041/// M06/M07 Q1020 RMK WIND 1100FT 26005KT WIND 2200FT 26016KT=
0258010230999992021010219504+69056+018540FM-15+007799999V0209999V001010115819N005000199-00501-00601999999ADDAW1711GA1041+002441999GA2071+011581999GA3081+015541999GE19MSL   +99999+99999GF199999041999002441999999MA1102001999999REMMET129METAR ENDU 021950Z AUTO VRB02KT 5000 -SN SCT008/// BKN038/// OVC051/// M05/M06 Q1020 RMK WIND 1100FT 25005KT WIND 2200FT 28012KT=
0227010230999992021010220204+69056+018540FM-15+007799999V0209999C000010143319N009999199-00501-00601999999ADDGA1021+002131999GA2081+014331999GE19MSL   +99999+99999GF199999021999002131999999MA1102101999999REMMET120METAR ENDU 022020Z AUTO 00000KT 9999 FEW007/// OVC047/// M05/M06 Q1021 RESN RMK WIND 1100FT 22005KT WIND 2200FT 26014KT=
0196010230999992021010220504+69056+018540FM-15+007799999V0202001N00101015541CN009999199-00501-00601999999ADDGA1081+015541999GE19MSL   +99999+99999GF199999081999015541999999MA1102101999999REMMET105METAR ENDU 022050Z AUTO 20002KT 9999 OVC051/// M05/M06 Q1021 RMK WIND 1100FT 26007KT WIND 2200FT 26011KT=
0222010230999992021010221204+69056+018540FM-15+007799999V0209999C000010167619N009999199-00601-00601999999ADDGA1021+008841999GA2071+016761999GE19MSL   +99999+99999GF199999021999008841999999MA1102101999999REMMET115METAR ENDU 022120Z AUTO 00000KT 9999 FEW029/// BKN055/// M06/M06 Q1021 RMK WIND 1100FT 24007KT WIND 2200FT 27014KT=
0196010230999992021010221504+69056+018540FM-15+007799999V0209999C00001016761CN009999199-00601-00701999999ADDGA1081+016761999GE19MSL   +99999+99999GF199999081999016761999999MA1102101999999REMMET105METAR ENDU 022150Z AUTO 00000KT 9999 OVC055/// M06/M07 Q1021 RMK WIND 1100FT 23006KT WIND 2200FT 28015KT=
0110010230999992021010222004+69058+018544FM-12+007699999V0201491N0005199999999999999999-00621-00731102271ADDAA101999999KA1010M-00561KA2010N-00631MA1999999101271MD1210171+9999OD140100131142OD299900101999REMSYN004BUFR
0222010230999992021010222204+69056+018540FM-15+007799999V0209999C000010179819N009999199-00701-00701999999ADDGA1041+009451999GA2081+017981999GE19MSL   +99999+99999GF199999041999009451999999MA1102201999999REMMET115METAR ENDU 022220Z AUTO 00000KT 9999 SCT031/// OVC059/// M07/M07 Q1022 RMK WIND 1100FT 23004KT WIND 2200FT 27015KT=
0222010230999992021010222504+69056+018540FM-15+007799999V0209999C000010161519N009999199-00701-00801999999ADDGA1021+009451999GA2081+016151999GE19MSL   +99999+99999GF199999021999009451999999MA1102201999999REMMET115METAR ENDU 022250Z AUTO 00000KT 9999 FEW031/// OVC053/// M07/M08 Q1022 RMK WIND 1100FT 22006KT WIND 2200FT 27013KT=
0222010230999992021010223204+69056+018540FM-15+007799999V0209999V001010179819N009999199-00601-00701999999ADDGA1021+008531999GA2081+017981999GE19MSL   +99999+99999GF199999021999008531999999MA1102201999999REMMET115METAR ENDU 022320Z AUTO VRB02KT 9999 FEW028/// OVC059/// M06/M07 Q1022 RMK WIND 1100FT 24007KT WIND 2200FT 26015KT=
0248010230999992021010223504+69056+018540FM-15+007799999V0209999C000010146319N009999199-00701-00801999999ADDGA1041+010061999GA2071+014631999GA3071+023161999GE19MSL   +99999+99999GF199999041999010061999999MA1102201999999REMMET125METAR ENDU 022350Z AUTO 00000KT 9999 SCT033/// BKN048/// BKN076/// M07/M08 Q1022 RMK WIND 1100FT 20005KT WIND 2200FT 26013KT=
0142010230999992021010300204+69056+018540FM-15+007799999V0209999C000019999999N009999199-00601-00701999999ADDAW1711MA1102301999999REMMET109METAR ENDU 030020Z AUTO 00000KT 9999 -SN ///037/// M06/M07 Q1023 RMK WIND 1100FT 26005KT WIND 2200FT 25011KT=
0142010230999992021010300504+69056+018540FM-15+007799999V0201701N001519999999N009000199-00601-00601999999ADDAW1711MA1102301999999REMMET109METAR ENDU 030050Z AUTO 17003KT 9000 -SN ///022/// M06/M06 Q1023 RMK WIND 1100FT 25004KT WIND 2200FT 26014KT=
0110010230999992021010301004+69058+018544FM-12+007699999V0200601N0010199999999999999999-00521-00611102401ADDAA101000231KA1010M-00521KA2010N-00681MA1999999101401MD1210131+9999OD140100201165OD299900151999REMSYN004BUFR
0258010230999992021010301204+69056+018540FM-15+007799999V0209999V00101012801CN009999199-00501-00601999999ADDAW1711GA1021+006401999GA2041+012801999GA3081+016151999GE19MSL   +99999+99999GF199999021999006401999999MA1102301999999REMMET129METAR ENDU 030120Z AUTO VRB02KT 9999 -SN FEW021/// SCT042/// OVC053/// M05/M06 Q1023 RMK WIND 1100FT 21005KT WIND 2200FT 26013KT=
0227010230999992021010301504+69056+018540FM-15+007799999V0209999V000510137219N009999199-00501-00601999999ADDGA1021+009141999GA2081+013721999GE19MSL   +99999+99999GF199999021999009141999999MA1102301999999REMMET120METAR ENDU 030150Z AUTO VRB01KT 9999 FEW030/// OVC045/// M05/M06 Q1023 RESN RMK WIND 1100FT 21006KT WIND 2200FT 25010KT=
0110010230999992021010302004+69058+018544FM-12+007699999V0202401N0011199999999999999999-00491-00581102441ADDAA101999999KA1010M-00481KA2010N-00521MA1999999101441MD1210121+9999OD140100161091OD299900131999REMSYN004BUFR
0248010230999992021010302204+69056+018540FM-15+007799999V0209999C00001010361CN009999199-00501-00601999999ADDGA1021+008531999GA2041+010361999GA3071+017981999GE19MSL   +99999+99999GF199999021999008531999999MA1102301999999REMMET125METAR ENDU 030220Z AUTO 00000KT 9999 FEW028/// SCT034/// BKN059/// M05/M06 Q1023 RMK WIND 1100FT 24005KT WIND 2200FT 25010KT=
0222010230999992021010302504+69056+018540FM-15+007799999V0209999V000510155419N009999199-00501-00601999999ADDGA1021+010361999GA2081+015541999GE19MSL   +99999+99999GF199999021999010361999999MA1102301999999REMMET115METAR ENDU 030250Z AUTO VRB01KT 9999 FEW034/// OVC051/// M05/M06 Q1023 RMK WIND 1100FT 20004KT WIND 2200FT 26010KT=
0110010230999992021010303004+69058+018544FM-12+007699999V0201661N0011199999999999999999-00551-00621102451ADDAA101999999KA1010M-00471KA2010N-00561MA1999999101451MD1210091+9999OD140100201175OD299900151999REMSYN004BUFR
0222010230999992021010303204+69056+018540FM-15+007799999V0209999C00001009451CN009999199-00601-00601999999ADDGA1071+009451999GA2081+016761999GE19MSL   +99999+99999GF199999071999009451999999MA1102301999999REMMET115METAR ENDU 030320Z AUTO 00000KT 9999 BKN031/// OVC055/// M06/M06 Q1023 RMK WIND 1100FT 20006KT WIND 2200FT 24009KT=
0248010230999992021010303504+69056+018540FM-15+007799999V0209999V00051010361CN009999199-00501-00601999999ADDGA1021+007321999GA2041+010361999GA3081+014941999GE19MSL   +99999+99999GF199999021999007321999999MA1102401999999REMMET125METAR ENDU 030350Z AUTO VRB01KT 9999 FEW024/// SCT034/// OVC049/// M05/M06 Q1024 RMK WIND 1100FT 21004KT WIND 2200FT 25012KT=
0110010230999992021010304004+69058+018544FM-12+007699999V0201431N0009199999999999999999-00491-00551102491ADDAA101999999KA1010M-00491KA2010N-00581MA1999999101491MD1310091+9999OD140100221329OD299900121999REMSYN004BUFR
0222010230999992021010304204+69056+018540FM-15+007799999V0209999V000510167619N009999199-00601-00701999999ADDGA1021+009141999GA2081+016761999GE19MSL   +99999+99999GF199999021999009141999999MA1102401999999REMMET115METAR ENDU 030420Z AUTO VRB01KT 9999 FEW030/// OVC055/// M06/M07 Q1024 RMK WIND 1100FT 21009KT WIND 2200FT 26012KT=
0232010230999992021010304504+69056+018540FM-15+007799999V0209999C00001013721CN009999199-00501-00601999999ADDAW1711GA1071+013721999GA2081+016761999GE19MSL   +99999+99999GF199999071999013721999999MA1102401999999REMMET119METAR ENDU 030450Z AUTO 00000KT 9999 -SN BKN045/// OVC055/// M05/M06 Q1024 RMK WIND 1100FT 20010KT WIND 2200FT 24013KT=
0110010230999992021010305004+69058+018544FM-12+007699999V0200831N0005199999999999999999-00491-00541102501ADDAA101999999KA1010M-00471KA2010N-00571MA1999999101511MD1210071+9999OD140100151243OD299900121999REMSYN004BUFR
0222010230999992021010305204+69056+018540FM-15+007799999V0209999C000010189019N009999199-00501-00601999999ADDGA1021+014021999GA2071+018901999GE19MSL   +99999+99999GF199999021999014021999999MA1102401999999REMMET115METAR ENDU 030520Z AUTO 00000KT 9999 FEW046/// BKN062/// M05/M06 Q1024 RMK WIND 1100FT 20007KT WIND 2200FT 25014KT=
0222010230999992021010305504+69056+018540FM-15+007799999V0209999V001010201219N009999199-00601-00701999999ADDGA1041+010061999GA2081+020121999GE19MSL   +99999+99999GF199999041999010061999999MA1102401999999REMMET115METAR ENDU 030550Z AUTO VRB02KT 9999 SCT033/// OVC066/// M06/M07 Q1024 RMK WIND 1100FT 20005KT WIND 2200FT 26013KT=
0222010230999992021010306204+69056+018540FM-15+007799999V0203101N00101010361CN009999199-00601-00601999999ADDGA1071+010361999GA2081+024991999GE19MSL   +99999+99999GF199999071999010361999999MA1102501999999REMMET115METAR ENDU 030620Z AUTO 31002KT 9999 BKN034/// OVC082/// M06/M06 Q1025 RMK WIND 1100FT 20007KT WIND 2200FT 24009KT=
0222010230999992021010306504+69056+018540FM-15+007799999V0209999V000510219519N009999199-00601-00701999999ADDGA1021+011891999GA2081+021951999GE19MSL   +99999+99999GF199999021999011891999999MA1102501999999REMMET115METAR ENDU 030650Z AUTO VRB01KT 9999 FEW039/// OVC072/// M06/M07 Q1025 RMK WIND 1100FT 20012KT WIND 2200FT 24012KT=
0110010230999992021010307004+69058+018544FM-12+007699999V0202761N0007199999999999999999-00701-00781102601ADDAA101999999KA1010M-00521KA2010N-00701MA1999999101601MD1310111+9999OD140100151313OD299900101999REMSYN004BUFR
0248010230999992021010307204+69056+018540FM-15+007799999V0209999V001010149419N009999199-00601-00701999999ADDGA1041+011891999GA2071+014941999GA3081+020121999GE19MSL   +99999+99999GF199999041999011891999999MA1102501999999REMMET125METAR ENDU 030720Z AUTO VRB02KT 9999 SCT039/// BKN049/// OVC066/// M06/M07 Q1025 RMK WIND 1100FT 21008KT WIND 2200FT 24010KT=
0222010230999992021010307504+69056+018540FM-15+007799999V0209999C000010155419N009999199-00601-00601999999ADDGA1041+010971999GA2081+015541999GE19MSL   +99999+99999GF199999041999010971999999MA1102501999999REMMET115METAR ENDU 030750Z AUTO 00000KT 9999 SCT036/// OVC051/// M06/M06 Q1025 RMK WIND 1100FT 19009KT WIND 2200FT 24013KT=
0234010230999992021010308204+69056+018540FM-15+007799999V0209999V00051010671CN009999199-00601-00601999999ADDGA1021+007621999GA2041+010671999GA3071+013721999GE19MSL   +99999+99999GF199999021999007621999999MA1102601999999REMMET111METAR ENDU 030820Z VRB01KT 9999 FEW025 SCT035 BKN045 M06/M06 Q1026 RMK WIND 1100FT 20010KT WIND 2200FT 24011KT=
0268010230999992021010308504+69056+018540FM-15+007799999V0209999V00101010671CN009999199-00401-00501999999ADDGA1021+006101999GA2041+010671999GA3071+013721999GE19MSL   +99999+99999GF199999021999006101999999MA1102601999999MW1161REMMET139METAR ENDU 030850Z VRB02KT 9999 VCSH FEW020 SCT035 BKN045 M04/M05 Q1026 TEMPO 4000 -SHSN VV014 RMK WIND 1100FT 19007KT WIND 2200FT 25010KT=
0228010230999992021010309004+69058+018544FM-12+007699999V0202291N00061006001C9045000199-00441-00501102711ADDAA101999999AY181031AY221031GA1071+006001081GA2999+999999031GA3999+999999101GE19MSL   +99999+99999GF107991071999006001999999KA1010M-00421KA2010N-00601MA1999999101721MD1210151+9999MW1261OD140100171264OD299900121999REMSYN004BUFR
0268010230999992021010309204+69056+018540FM-15+007799999V0209999V00051010671CN009999199-00401-00501999999ADDGA1021+006101999GA2041+010671999GA3071+013721999GE19MSL   +99999+99999GF199999021999006101999999MA1102601999999MW1161REMMET139METAR ENDU 030920Z VRB01KT 9999 VCSH FEW020 SCT035 BKN045 M04/M05 Q1026 TEMPO 4000 -SHSN VV014 RMK WIND 1100FT 21006KT WIND 2200FT 25012KT=
0268010230999992021010309504+69056+018540FM-15+007799999V0209999V00051010671CN009999199-00401-00501999999ADDGA1021+006101999GA2041+010671999GA3071+013721999GE19MSL   +99999+99999GF199999021999006101999999MA1102701999999MW1161REMMET139METAR ENDU 030950Z VRB01KT 9999 VCSH FEW020 SCT035 BKN045 M04/M05 Q1027 TEMPO 4000 -SHSN VV014 RMK WIND 1100FT 23007KT WIND 2200FT 24011KT=
0110010230999992021010310004+69058+018544FM-12+007699999V0201471N0013199999999999999999-00441-00511102781ADDAA101999999KA1010M-00381KA2010N-00461MA1999999101791MD1310191+9999OD140100231142OD299900141999REMSYN004BUFR
0268010230999992021010310204+69056+018540FM-15+007799999V0209999V00051010671CN009999199-00401-00401999999ADDGA1021+006101999GA2041+010671999GA3071+013721999GE19MSL   +99999+99999GF199999021999006101999999MA1102701999999MW1161REMMET139METAR ENDU 031020Z VRB01KT 9999 VCSH FEW020 SCT035 BKN045 M04/M04 Q1027 TEMPO 4000 -SHSN VV014 RMK WIND 1100FT 20007KT WIND 2200FT 24010KT=
0268010230999992021010310504+69056+018540FM-15+007799999V0209999V00051010671CN009999199-00401-00501999999ADDGA1021+006101999GA2041+010671999GA3071+013721999GE19MSL   +99999+99999GF199999021999006101999999MA1102701999999MW1161REMMET139METAR ENDU 031050Z VRB01KT 9999 VCSH FEW020 SCT035 BKN045 M04/M05 Q1027 TEMPO 4000 -SHSN VV014 RMK WIND 1100FT 23007KT WIND 2200FT 25013KT=
0110010230999992021010311004+69058+018544FM-12+007699999V0203591N0004199999999999999999-00371-00441102821ADDAA101999999KA1010M-00341KA2010N-00441MA1999999101831MD1210161+9999OD140100201085OD299900131999REMSYN004BUFR
0245010230999992021010311204+69056+018540FM-15+007799999V0209999C000010121919N009999199-00401-00401999999ADDGA1021+006101999GA2071+012191999GE19MSL   +99999+99999GF199999021999006101999999MA1102701999999MW1161REMMET132METAR ENDU 031120Z 00000KT 9999 VCSH FEW020 BKN040 M04/M04 Q1027 TEMPO 4000 -SHSN VV014 RMK WIND 1100FT 22007KT WIND 2200FT 24011KT=
0228010230999992021010311504+69056+018540FM-15+007799999V0209999C000010121919N009999199-00401-00501999999ADDGA1021+006101999GA2071+012191999GE19MSL   +99999+99999GF199999021999006101999999MA1102701999999MW1161REMMET115METAR ENDU 031150Z 00000KT 9999 VCSH FEW020 BKN040 M04/M05 Q1027 NOSIG RMK WIND 1100FT 22007KT WIND 2200FT 25011KT=
0240010230999992021010312204+69056+018540FM-15+007799999V0209999C00001009141CN009999199-00401-00401999999ADDGA1021+006101999GA2041+009141999GA3071+012191999GE19MSL   +99999+99999GF199999021999006101999999MA1102701999999REMMET117METAR ENDU 031220Z 00000KT 9999 FEW020 SCT030 BKN040 M04/M04 Q1027 NOSIG RMK WIND 1100FT 21006KT WIND 2200FT 24009KT=
0240010230999992021010312504+69056+018540FM-15+007799999V0209999C00001009141CN009999199-00401-00401999999ADDGA1021+006101999GA2041+009141999GA3071+012191999GE19MSL   +99999+99999GF199999021999006101999999MA1102701999999REMMET117METAR ENDU 031250Z 00000KT 9999 FEW020 SCT030 BKN040 M04/M04 Q1027 NOSIG RMK WIND 1100FT 20008KT WIND 2200FT 25012KT=
0110010230999992021010313004+69058+018544FM-12+007699999V0202511N0006199999999999999999-00371-00431102861ADDAA101999999KA1010M-00361KA2010N-00391MA1999999101871MD1210081+9999OD140100171137OD299900111999REMSYN004BUFR
0234010230999992021010313204+69056+018540FM-15+007799999V0209999V00051009141CN009999199-00301-00401999999ADDGA1021+006101999GA2041+009141999GA3071+013721999GE19MSL   +99999+99999GF199999021999006101999999MA1102801999999REMMET111METAR ENDU 031320Z VRB01KT 9999 FEW020 SCT030 BKN045 M03/M04 Q1028 RMK WIND 1100FT 22006KT WIND 2200FT 25010KT=
0234010230999992021010313504+69056+018540FM-15+007799999V0209999V00101010671CN009999199-00301-00401999999ADDGA1021+006101999GA2041+010671999GA3071+013721999GE19MSL   +99999+99999GF199999021999006101999999MA1102801999999REMMET111METAR ENDU 031350Z VRB02KT 9999 FEW020 SCT035 BKN045 M03/M04 Q1028 RMK WIND 1100FT 22005KT WIND 2200FT 24008KT=
0110010230999992021010314004+69058+018544FM-12+007699999V0201441N0008199999999999999999-00351-00441102881ADDAA101999999KA1010M-00341KA2010N-00381MA1999999101881MD1210061+9999OD140100181173OD299900141999REMSYN004BUFR
0211010230999992021010314204+69056+018540FM-15+007799999V0201801N001010137219N009999199-00401-00501999999ADDGA1021+007621999GA2071+013721999GE19MSL   +99999+99999GF199999021999007621999999MA1102801999999REMMET104METAR ENDU 031420Z 18002KT 9999 FEW025 BKN045 M04/M05 Q1028 RMK WIND 1100FT 21009KT WIND 2200FT 25010KT=
0234010230999992021010314504+69056+018540FM-15+007799999V0209999V00101013721CN009999199-00501-00501999999ADDGA1021+007621999GA2041+013721999GA3071+018291999GE19MSL   +99999+99999GF199999021999007621999999MA1102801999999REMMET111METAR ENDU 031450Z VRB02KT 9999 FEW025 SCT045 BKN060 M05/M05 Q1028 RMK WIND 1100FT 20009KT WIND 2200FT 24008KT=
0228010230999992021010315004+69058+018544FM-12+007699999V0202331N00051006001C9070000199-00451-00541102901ADDAA101999999AY121031AY221031GA1061+006001081GA2999+999999031GA3999+999999101GE19MSL   +99999+99999GF107991061999006001999999KA1010M-00361KA2010N-00531MA1999999101901MD1210051+9999MW1151OD140100181171OD299900141999REMSYN004BUFR
0253010230999992021010315204+69056+018540FM-15+007799999V0202701N00151012191CN009999199-00401-00501999999ADDGA1021+007621999GA2041+012191999GA3071+018291999GE19MSL   +99999+99999GF199999021999007621999999MA1102801999999MW1851REMMET124METAR ENDU 031520Z 27003KT 9999 6000NW -SHSN FEW025 SCT040 BKN060 M04/M05 Q1028 RMK WIND 1100FT 21007KT WIND 2200FT 24011KT=
0222010230999992021010315504+69056+018540FM-15+007799999V0209999C000010121919N009999199-00401-00501999999ADDGA1021+007621999GA2071+012191999GE19MSL   +99999+99999GF199999021999007621999999MA1102801999999MW1161REMMET109METAR ENDU 031550Z 00000KT 9999 VCSH FEW025 BKN040 M04/M05 Q1028 RMK WIND 1100FT 21010KT WIND 2200FT 24011KT=
0211010230999992021010316204+69056+018540FM-15+007799999V0209999C000010121919N009999199-00401-00501999999ADDGA1021+007621999GA2071+012191999GE19MSL   +99999+99999GF199999021999007621999999MA1102801999999REMMET104METAR ENDU 031620Z 00000KT 9999 FEW025 BKN040 M04/M05 Q1028 RMK WIND 1100FT 20010KT WIND 2200FT 23011KT=
0211010230999992021010316504+69056+018540FM-15+007799999V0209999C000010106719N009999199-00401-00501999999ADDGA1021+007621999GA2071+010671999GE19MSL   +99999+99999GF199999021999007621999999MA1102801999999REMMET104METAR ENDU 031650Z 00000KT 9999 FEW025 BKN035 M04/M05 Q1028 RMK WIND 1100FT 21011KT WIND 2200FT 24012KT=
0110010230999992021010317004+69058+018544FM-12+007699999V0201781N0005199999999999999999-00421-00491102931ADDAA101999999KA1010M-00371KA2010N-00431MA1999999101931MD1010051+9999OD140100231154OD299900151999REMSYN004BUFR
0211010230999992021010317204+69056+018540FM-15+007799999V0209999V000510106719N009999199-00401-00501999999ADDGA1021+006101999GA2071+010671999GE19MSL   +99999+99999GF199999021999006101999999MA1102801999999REMMET104METAR ENDU 031720Z VRB01KT 9999 FEW020 BKN035 M04/M05 Q1028 RMK WIND 1100FT 21009KT WIND 2200FT 23013KT=
0211010230999992021010317504+69056+018540FM-15+007799999V0209999C000010121919N009999199-00401-00501999999ADDGA1021+006101999GA2071+012191999GE19MSL   +99999+99999GF199999021999006101999999MA1102801999999REMMET104METAR ENDU 031750Z 00000KT 9999 FEW020 BKN040 M04/M05 Q1028 RMK WIND 1100FT 20012KT WIND 2200FT 24013KT=
0211010230999992021010318204+69056+018540FM-15+007799999V0209999V000510121919N009999199-00501-00501999999ADDGA1021+007621999GA2071+012191999GE19MSL   +99999+99999GF199999021999007621999999MA1102801999999REMMET104METAR ENDU 031820Z VRB01KT 9999 FEW025 BKN040 M05/M05 Q1028 RMK WIND 1100FT 21012KT WIND 2200FT 24014KT=
0211010230999992021010318504+69056+018540FM-15+007799999V0209999V001010121919N009999199-00501-00501999999ADDGA1021+007621999GA2071+012191999GE19MSL   +99999+99999GF199999021999007621999999MA1102801999999REMMET104METAR ENDU 031850Z VRB02KT 9999 FEW025 BKN040 M05/M05 Q1028 RMK WIND 1100FT 21013KT WIND 2200FT 23014KT=
0110010230999992021010319004+69058+018544FM-12+007699999V0200921N0008199999999999999999-00451-00511102961ADDAA101999999KA1010M-00441KA2010N-00531MA1999999101961MD1310031+9999OD140100191302OD299900171999REMSYN004BUFR
0211010230999992021010319204+69056+018540FM-15+007799999V0209999C000010121919N009999199-00501-00601999999ADDGA1021+006101999GA2071+012191999GE19MSL   +99999+99999GF199999021999006101999999MA1102901999999REMMET104METAR ENDU 031920Z 00000KT 9999 FEW020 BKN040 M05/M06 Q1029 RMK WIND 1100FT 20012KT WIND 2200FT 22013KT=
0211010230999992021010319504+69056+018540FM-15+007799999V0209999C000010121919N009999199-00501-00601999999ADDGA1021+009141999GA2071+012191999GE19MSL   +99999+99999GF199999021999009141999999MA1102901999999REMMET104METAR ENDU 031950Z 00000KT 9999 FEW030 BKN040 M05/M06 Q1029 RMK WIND 1100FT 19013KT WIND 2200FT 21014KT=
0110010230999992021010320004+69058+018544FM-12+007699999V0201561N0005199999999999999999-00551-00601102981ADDAA101999999KA1010M-00361KA2010N-00561MA1999999101971MD1310041+9999OD140100211355OD299900161999REMSYN004BUFR
0211010230999992021010320204+69056+018540FM-15+007799999V0209999C000010121919N009999199-00601-00601999999ADDGA1021+007621999GA2071+012191999GE19MSL   +99999+99999GF199999021999007621999999MA1102901999999REMMET104METAR ENDU 032020Z 00000KT 9999 FEW025 BKN040 M06/M06 Q1029 RMK WIND 1100FT 20013KT WIND 2200FT 22014KT=
0188010230999992021010320504+69056+018540FM-15+007799999V0209999C00001012191CN009999199-00501-00501999999ADDGA1071+012191999GE19MSL   +99999+99999GF199999071999012191999999MA1102901999999REMMET097METAR ENDU 032050Z 00000KT 9999 BKN040 M05/M05 Q1029 RMK WIND 1100FT 20013KT WIND 2200FT 22014KT=
0228010230999992021010321004+69058+018544FM-12+007699999V0200351N00071010001C9070000199-00441-00501102991ADDAA101999999AY121031AY221031GA1051+010001081GA2999+999999031GA3999+999999101GE19MSL   +99999+99999GF107991051999010001999999KA1010M-00431KA2010N-00561MA1999999101991MD1210071+9999MW1021OD140100211057OD299900171999REMSYN004BUFR
0188010230999992021010321204+69056+018540FM-15+007799999V0209999V00101012191CN009999199-00401-00401999999ADDGA1071+012191999GE19MSL   +99999+99999GF199999071999012191999999MA1102901999999REMMET097METAR ENDU 032120Z VRB02KT 9999 BKN040 M04/M04 Q1029 RMK WIND 1100FT 19013KT WIND 2200FT 22016KT=
0188010230999992021010321504+69056+018540FM-15+007799999V0209999V00101012191CN009999199-00301-00401999999ADDGA1071+012191999GE19MSL   +99999+99999GF199999071999012191999999MA1102901999999REMMET097METAR ENDU 032150Z VRB02KT 9999 BKN040 M03/M04 Q1029 RMK WIND 1100FT 19015KT WIND 2200FT 21014KT=
0110010230999992021010322004+69058+018544FM-12+007699999V0203131N0005199999999999999999-00321-00391102991ADDAA101999999KA1010M-00321KA2010N-00441MA1999999101991MD1210031+9999OD140100201097OD299900121999REMSYN004BUFR
0188010230999992021010322204+69056+018540FM-15+007799999V0209999V00051012191CN009999199-00301-00401999999ADDGA1071+012191999GE19MSL   +99999+99999GF199999071999012191999999MA1102901999999REMMET097METAR ENDU 032220Z VRB01KT 9999 BKN040 M03/M04 Q1029 RMK WIND 1100FT 19015KT WIND 2200FT 22016KT=
0188010230999992021010322504+69056+018540FM-15+007799999V0209999C00001012191CN009999199-00301-00401999999ADDGA1071+012191999GE19MSL   +99999+99999GF199999071999012191999999MA1102901999999REMMET097METAR ENDU 032250Z 00000KT 9999 BKN040 M03/M04 Q1029 RMK WIND 1100FT 19013KT WIND 2200FT 22015KT=
0222010230999992021010323204+69056+018540FM-15+007799999V0209999V00101012801CN009999199-00301-00401999999ADDGA1071+012801999GA2081+015541999GE19MSL   +99999+99999GF199999071999012801999999MA1102901999999REMMET115METAR ENDU 032320Z AUTO VRB02KT 9999 BKN042/// OVC051/// M03/M04 Q1029 RMK WIND 1100FT 19012KT WIND 2200FT 21016KT=
0222010230999992021010323504+69056+018540FM-15+007799999V0209999V00101014021CN009999199-00301-00401999999ADDGA1071+014021999GA2081+021951999GE19MSL   +99999+99999GF199999071999014021999999MA1102901999999REMMET115METAR ENDU 032350Z AUTO VRB02KT 9999 BKN046/// OVC072/// M03/M04 Q1029 RMK WIND 1100FT 19014KT WIND 2200FT 22016KT=
0196010230999992021010400204+69056+018540FM-15+007799999V0209999C00001012801CN009999199-00301-00401999999ADDGA1081+012801999GE19MSL   +99999+99999GF199999081999012801999999MA1102901999999REMMET105METAR ENDU 040020Z AUTO 00000KT 9999 OVC042/// M03/M04 Q1029 RMK WIND 1100FT 19013KT WIND 2200FT 22016KT=
0230010230999992021010400504+69056+018540FM-15+007799999V0200901V00211011581CN009999199-00301-00401999999ADDGA1071+011581999GA2081+030481999GE19MSL   +99999+99999GF199999071999011581999999MA1102801999999REMMET123METAR ENDU 040050Z AUTO 09004KT 070V130 9999 BKN038/// OVC100/// M03/M04 Q1028 RMK WIND 1100FT 19012KT WIND 2200FT 21017KT=
0110010230999992021010401004+69058+018544FM-12+007699999V0201241N0011199999999999999999-00321-00431102951ADDAA101999999KA1010M-00281KA2010N-00351MA1999999101961MD1710041+9999OD140100341179OD299900241999REMSYN004BUFR
0248010230999992021010401204+69056+018540FM-15+007799999V0209999C00001011581CN009999199-00301-00401999999ADDGA1071+011581999GA2071+026821999GA3081+033531999GE19MSL   +99999+99999GF199999071999011581999999MA1102801999999REMMET125METAR ENDU 040120Z AUTO 00000KT 9999 BKN038/// BKN088/// OVC110/// M03/M04 Q1028 RMK WIND 1100FT 20011KT WIND 2200FT 22016KT=
0196010230999992021010401504+69056+018540FM-15+007799999V0200901N00311011581CN009999199-00201-00401999999ADDGA1081+011581999GE19MSL   +99999+99999GF199999081999011581999999MA1102801999999REMMET105METAR ENDU 040150Z AUTO 09006KT 9999 OVC038/// M02/M04 Q1028 RMK WIND 1100FT 19015KT WIND 2200FT 22015KT=
0110010230999992021010402004+69058+018544FM-12+007699999V0200851N0026199999999999999999-00241-00381102951ADDAA101999999KA1010M-00211KA2010N-00351MA1999999101961MD1710021+9999OD140100401080OD299900311999REMSYN004BUFR
0196010230999992021010402204+69056+018540FM-15+007799999V0209999V00101011891CN009999199-00201-00401999999ADDGA1081+011891999GE19MSL   +99999+99999GF199999081999011891999999MA1102801999999REMMET105METAR ENDU 040220Z AUTO VRB02KT 9999 OVC039/// M02/M04 Q1028 RMK WIND 1100FT 19016KT WIND 2200FT 22015KT=
0204010230999992021010402504+69056+018540FM-15+007799999V0200701V00211012191CN009999199-00301-00401999999ADDGA1081+012191999GE19MSL   +99999+99999GF199999081999012191999999MA1102801999999REMMET113METAR ENDU 040250Z AUTO 07004KT 330V110 9999 OVC040/// M03/M04 Q1028 RMK WIND 1100FT 19016KT WIND 2200FT 22019KT=
0110010230999992021010403004+69058+018544FM-12+007699999V0201521N0021199999999999999999-00271-00381102911ADDAA101999999KA1010M-00231KA2010N-00291MA1999999101921MD1810061+9999OD140100421160OD299900311999REMSYN004BUFR
0196010230999992021010403204+69056+018540FM-15+007799999V0209999V00101011891CN009999199-00201-00401999999ADDGA1081+011891999GE19MSL   +99999+99999GF199999081999011891999999MA1102801999999REMMET105METAR ENDU 040320Z AUTO VRB02KT 9999 OVC039/// M02/M04 Q1028 RMK WIND 1100FT 20017KT WIND 2200FT 22017KT=
0196010230999992021010403504+69056+018540FM-15+007799999V0200901N00261012801CN009999199-00201-00401999999ADDGA1081+012801999GE19MSL   +99999+99999GF199999081999012801999999MA1102801999999REMMET105METAR ENDU 040350Z AUTO 09005KT 9999 OVC042/// M02/M04 Q1028 RMK WIND 1100FT 19015KT WIND 2200FT 22015KT=
0110010230999992021010404004+69058+018544FM-12+007699999V0200811N0023199999999999999999-00151-00311102921ADDAA101999999KA1010M-00151KA2010N-00261MA1999999101931MD1710021+9999OD140100381154OD299900281999REMSYN004BUFR
0219010230999992021010404204+69056+018540FM-15+007799999V0201001V002610121919N009999199-00201-00301999999ADDGA1021+009141999GA2071+012191999GE19MSL   +99999+99999GF199999021999009141999999MA1102801999999REMMET112METAR ENDU 040420Z 10005KT 070V180 9999 FEW030 BKN040 M02/M03 Q1028 RMK WIND 1100FT 19013KT WIND 2200FT 22014KT=
0219010230999992021010404504+69056+018540FM-15+007799999V0200801V002110121919N009999199-00201-00301999999ADDGA1021+007621999GA2071+012191999GE19MSL   +99999+99999GF199999021999007621999999MA1102801999999REMMET112METAR ENDU 040450Z 08004KT 040V110 9999 FEW025 BKN040 M02/M03 Q1028 RMK WIND 1100FT 19015KT WIND 2200FT 22016KT=
0110010230999992021010405004+69058+018544FM-12+007699999V0202141N0012199999999999999999-00151-00281102911ADDAA101999999KA1010M-00131KA2010N-00211MA1999999101931MD1510041+9999OD140100401085OD299900261999REMSYN004BUFR
0211010230999992021010405204+69056+018540FM-15+007799999V0209999V000510121919N009999199-00201-00301999999ADDGA1021+007621999GA2071+012191999GE19MSL   +99999+99999GF199999021999007621999999MA1102801999999REMMET104METAR ENDU 040520Z VRB01KT 9999 FEW025 BKN040 M02/M03 Q1028 RMK WIND 1100FT 20016KT WIND 2200FT 22016KT=
0231010230999992021010405504+69056+018540FM-15+007799999V0200901N002610121919N009999199-00101-00301999999ADDGA1021+007621999GA2071+012191999GE19MSL   +99999+99999GF199999021999007621999999MA1102801999999REMMET124METAR ENDU 040550Z 09005KT 9999 FEW025 BKN040 M01/M03 Q1028 TEMPO 21010KT -FZRA RMK WIND 1100FT 19015KT WIND 2200FT 21017KT=
0238010230999992021010406204+69056+018540FM-15+007799999V0202001N00361012191CN009999199+00301+00001999999ADDGA1021+007621999GA2041+012191999GA3071+021341999GE19MSL   +99999+99999GF199999021999007621999999MA1102801999999REMMET115METAR ENDU 040620Z 20007KT 9999 FEW025 SCT040 BKN070 03/00 Q1028 NOSIG RMK WIND 1100FT 19015KT WIND 2200FT 22016KT=
0246010230999992021010406504+69056+018540FM-15+007799999V0202001V00311012191CN009999199+00301+00001999999ADDGA1021+007621999GA2041+012191999GA3071+021341999GE19MSL   +99999+99999GF199999021999007621999999MA1102801999999REMMET123METAR ENDU 040650Z 20006KT 150V230 9999 FEW025 SCT040 BKN070 03/00 Q1028 NOSIG RMK WIND 1100FT 19013KT WIND 2200FT 22017KT=
0257010230999992021010407204+69056+018540FM-15+007799999V0202001V00411012191CN009999199+00401+00001999999ADDGA1021+007621999GA2041+012191999GA3071+021341999GE19MSL   +99999+99999GF199999021999007621999999MA1102801999999MW1161REMMET128METAR ENDU 040720Z 20008KT 150V230 9999 VCSH FEW025 SCT040 BKN070 04/00 Q1028 NOSIG RMK WIND 1100FT 20015KT WIND 2200FT 22016KT=
0257010230999992021010407504+69056+018540FM-15+007799999V0202101V00361013721CN009999199+00401+00001999999ADDGA1021+007621999GA2041+013721999GA3071+021341999GE19MSL   +99999+99999GF199999021999007621999999MA1102801999999MW1161REMMET128METAR ENDU 040750Z 21007KT 170V230 9999 VCSH FEW025 SCT045 BKN070 04/00 Q1028 NOSIG RMK WIND 1100FT 19014KT WIND 2200FT 22016KT=
0247010230999992021010408204+69056+018540FM-15+007799999V0202001V00261013721CN009999199+00401+00001999999ADDGA1021+007621999GA2041+013721999GA3071+021341999GE19MSL   +99999+99999GF199999021999007621999999MA1102901999999REMMET124METAR ENDU 040820Z 20005KT 150V230 9999 FEW025 SCT045 BKN070 04/M00 Q1029 NOSIG RMK WIND 1100FT 19017KT WIND 2200FT 21017KT=
0247010230999992021010408504+69056+018540FM-15+007799999V0202101V00361013721CN009999199+00401+00001999999ADDGA1021+007621999GA2041+013721999GA3071+021341999GE19MSL   +99999+99999GF199999021999007621999999MA1102901999999REMMET124METAR ENDU 040850Z 21007KT 170V250 9999 FEW025 SCT045 BKN070 04/M00 Q1029 NOSIG RMK WIND 1100FT 19016KT WIND 2200FT 21016KT=
0236010230999992021010409004+69058+018544FM-12+007699999V0201971N0034199999999070000199+00411-00051102971ADDAA101999999AY121031AY221031GA1031+006001061GA2999+999999031GA3999+999999101GE19MSL   +99999+99999GF108991031999006001999999KA1010M+00411KA2010N+00371MA1999999102001MD1310071+9999MW1151OC100661OD140100661211OD299900451999REMSYN004BUFR
0247010230999992021010409204+69056+018540FM-15+007799999V0202001V00411013721CN009999199+00401-00101999999ADDGA1021+009141999GA2041+013721999GA3071+021341999GE19MSL   +99999+99999GF199999021999009141999999MA1102901999999REMMET124METAR ENDU 040920Z 20008KT 180V240 9999 FEW030 SCT045 BKN070 04/M01 Q1029 NOSIG RMK WIND 1100FT 19014KT WIND 2200FT 21016KT=
0239010230999992021010409504+69056+018540FM-15+007799999V0202001N00361013721CN009999199+00401+00001999999ADDGA1021+009141999GA2041+013721999GA3071+018291999GE19MSL   +99999+99999GF199999021999009141999999MA1102901999999REMMET116METAR ENDU 040950Z 20007KT 9999 FEW030 SCT045 BKN060 04/M00 Q1029 NOSIG RMK WIND 1100FT 20013KT WIND 2200FT 21017KT=
0118010230999992021010410004+69058+018544FM-12+007699999V0201911N0030199999999999999999+00401-00081102971ADDAA101999999KA1010M+00431KA2010N+00401MA1999999102011MD1210071+9999OC100711OD140100711188OD299900471999REMSYN004BUFR
0224010230999992021010410204+69056+018540FM-15+007799999V0202101V003110182919N009999199+00401-00101999999ADDGA1021+009141999GA2071+018291999GE19MSL   +99999+99999GF199999021999009141999999MA1102901999999REMMET117METAR ENDU 041020Z 21006KT 170V250 9999 FEW030 BKN060 04/M01 Q1029 NOSIG RMK WIND 1100FT 19016KT WIND 2200FT 21017KT=
0224010230999992021010410504+69056+018540FM-15+007799999V0202201V003110182919N009999199+00401-00101999999ADDGA1021+009141999GA2071+018291999GE19MSL   +99999+99999GF199999021999009141999999MA1102901999999REMMET117METAR ENDU 041050Z 22006KT 190V250 9999 FEW030 BKN060 04/M01 Q1029 NOSIG RMK WIND 1100FT 20014KT WIND 2200FT 21018KT=
0118010230999992021010411004+69058+018544FM-12+007699999V0202151N0028199999999999999999+00411-00091102981ADDAA101999999KA1010M+00431KA2010N+00401MA1999999102011MD1110051+9999OC100611OD140100611211OD299900341999REMSYN004BUFR
0224010230999992021010411204+69056+018540FM-15+007799999V0202201V002610182919N009999199+00401-00101999999ADDGA1021+009141999GA2071+018291999GE19MSL   +99999+99999GF199999021999009141999999MA1102901999999REMMET117METAR ENDU 041120Z 22005KT 190V250 9999 FEW030 BKN060 04/M01 Q1029 NOSIG RMK WIND 1100FT 20015KT WIND 2200FT 21017KT=
0224010230999992021010411504+69056+018540FM-15+007799999V0202201V003110182919N009999199+00401-00101999999ADDGA1021+010671999GA2071+018291999GE19MSL   +99999+99999GF199999021999010671999999MA1102901999999REMMET117METAR ENDU 041150Z 22006KT 180V250 9999 FEW035 BKN060 04/M01 Q1029 NOSIG RMK WIND 1100FT 19015KT WIND 2200FT 21017KT=
0224010230999992021010412204+69056+018540FM-15+007799999V0202201V003110182919N009999199+00401-00101999999ADDGA1021+009141999GA2071+018291999GE19MSL   +99999+99999GF199999021999009141999999MA1102901999999REMMET117METAR ENDU 041220Z 22006KT 190V260 9999 FEW030 BKN060 04/M01 Q1029 NOSIG RMK WIND 1100FT 20014KT WIND 2200FT 22015KT=
0224010230999992021010412504+69056+018540FM-15+007799999V0202101V003110182919N009999199+00501-00101999999ADDGA1021+007621999GA2071+018291999GE19MSL   +99999+99999GF199999021999007621999999MA1102901999999REMMET117METAR ENDU 041250Z 21006KT 180V240 9999 FEW025 BKN060 05/M01 Q1029 NOSIG RMK WIND 1100FT 20016KT WIND 2200FT 22012KT=
0224010230999992021010413204+69056+018540FM-15+007799999V0202201V003110182919N009999199+00501-00101999999ADDGA1021+009141999GA2071+018291999GE19MSL   +99999+99999GF199999021999009141999999MA1102901999999REMMET117METAR ENDU 041320Z 22006KT 150V250 9999 FEW030 BKN060 05/M01 Q1029 NOSIG RMK WIND 1100FT 19015KT WIND 2200FT 21014KT=
0247010230999992021010413504+69056+018540FM-15+007799999V0201901V00361018291CN009999199+00401-00101999999ADDGA1021+009141999GA2041+018291999GA3071+021341999GE19MSL   +99999+99999GF199999021999009141999999MA1102801999999REMMET124METAR ENDU 041350Z 19007KT 130V240 9999 FEW030 SCT060 BKN070 04/M01 Q1028 NOSIG RMK WIND 1100FT 19017KT WIND 2200FT 21014KT=
0239010230999992021010414204+69056+018540FM-15+007799999V0209999V00211012191CN009999199+00301-00101999999ADDGA1021+009141999GA2041+012191999GA3071+018291999GE19MSL   +99999+99999GF199999021999009141999999MA1102801999999REMMET116METAR ENDU 041420Z VRB04KT 9999 FEW030 SCT040 BKN060 03/M01 Q1028 NOSIG RMK WIND 1100FT 19017KT WIND 2200FT 21015KT=
0224010230999992021010414504+69056+018540FM-15+007799999V0201001V002110152419N009999199+00101-00101999999ADDGA1021+010671999GA2071+015241999GE19MSL   +99999+99999GF199999021999010671999999MA1102801999999REMMET117METAR ENDU 041450Z 10004KT 070V140 9999 FEW035 BKN050 01/M01 Q1028 NOSIG RMK WIND 1100FT 19017KT WIND 2200FT 20014KT=
0236010230999992021010415004+69058+018544FM-12+007699999V0201201N00201010001C9070000199+00121-00161102911ADDAA101999999AY121031AY221031GA1061+010001061GA2999+999999031GA3999+999999101GE19MSL   +99999+99999GF107991061999010001999999KA1010M+00401KA2010N+00101MA1999999101931MD1710061+9999MW1021OC100501OD140100501198OD299900411999REMSYN004BUFR
0224010230999992021010415204+69056+018540FM-15+007799999V0201801V003610152419N009999199+00401-00101999999ADDGA1021+010671999GA2071+015241999GE19MSL   +99999+99999GF199999021999010671999999MA1102801999999REMMET117METAR ENDU 041520Z 18007KT 070V220 9999 FEW035 BKN050 04/M01 Q1028 NOSIG RMK WIND 1100FT 19017KT WIND 2200FT 20014KT=
0224010230999992021010415504+69056+018540FM-15+007799999V0201901V003110182919N009999199+00401-00101999999ADDGA1021+009141999GA2071+018291999GE19MSL   +99999+99999GF199999021999009141999999MA1102801999999REMMET117METAR ENDU 041550Z 19006KT 110V240 9999 FEW030 BKN060 04/M01 Q1028 NOSIG RMK WIND 1100FT 19017KT WIND 2200FT 20012KT=
0118010230999992021010416004+69058+018544FM-12+007699999V0201951N0032199999999999999999+00421-00091102881ADDAA101999999KA1010M+00451KA2010N+00121MA1999999101911MD1710071+9999OC100731OD140100731194OD299900441999REMSYN004BUFR
0247010230999992021010416204+69056+018540FM-15+007799999V0209999V00261015241CN009999199+00401-00101999999ADDGA1021+009141999GA2041+015241999GA3071+018291999GE19MSL   +99999+99999GF199999021999009141999999MA1102801999999REMMET124METAR ENDU 041620Z VRB05KT 9999 FEW030 SCT050 BKN060 04/M01 Q1028 TEMPO 21010KT RMK WIND 1100FT 19018KT WIND 2200FT 20015KT=
0224010230999992021010416504+69056+018540FM-15+007799999V0201901V002610167619N009999199+00401-00101999999ADDGA1021+009141999GA2071+016761999GE19MSL   +99999+99999GF199999021999009141999999MA1102801999999REMMET117METAR ENDU 041650Z 19005KT 120V260 9999 FEW030 BKN055 04/M01 Q1028 NOSIG RMK WIND 1100FT 20017KT WIND 2200FT 19016KT=
0118010230999992021010417004+69058+018544FM-12+007699999V0202351N0017199999999999999999+00251-00161102861ADDAA101999999KA1010M+00441KA2010N+00251MA1999999101891MD1710071+9999OC100501OD140100501180OD299900331999REMSYN004BUFR
0224010230999992021010417204+69056+018540FM-15+007799999V0200801V001510152419N009999199+00101-00201999999ADDGA1021+009141999GA2071+015241999GE19MSL   +99999+99999GF199999021999009141999999MA1102801999999REMMET117METAR ENDU 041720Z 08003KT 020V150 9999 FEW030 BKN050 01/M02 Q1028 NOSIG RMK WIND 1100FT 20017KT WIND 2200FT 20013KT=
0216010230999992021010417504+69056+018540FM-15+007799999V0200901N002610137219N009999199+00101-00201999999ADDGA1021+009141999GA2071+013721999GE19MSL   +99999+99999GF199999021999009141999999MA1102801999999REMMET109METAR ENDU 041750Z 09005KT 9999 FEW030 BKN045 01/M02 Q1028 NOSIG RMK WIND 1100FT 20017KT WIND 2200FT 20009KT=
0218010230999992021010418204+69056+018540FM-15+007799999V0200801V003110137219N009999199+00101-00201999999ADDGA1021+009141999GA2071+013721999GE19MSL   +99999+99999GF199999021999009141999999MA1102801999999REMMET111METAR ENDU 041820Z 08006KT 060V130 9999 FEW030 BKN045 01/M02 Q1028 RMK WIND 1100FT 19017KT WIND 2200FT 21008KT=
0210010230999992021010418504+69056+018540FM-15+007799999V0209999V002610137219N009999199+00301-00101999999ADDGA1021+009141999GA2071+013721999GE19MSL   +99999+99999GF199999021999009141999999MA1102801999999REMMET103METAR ENDU 041850Z VRB05KT 9999 FEW030 BKN045 03/M01 Q1028 RMK WIND 1100FT 20017KT WIND 2200FT 20015KT=
0218010230999992021010419204+69056+018540FM-15+007799999V0201101V002110137219N009999199+00101-00101999999ADDGA1021+009141999GA2071+013721999GE19MSL   +99999+99999GF199999021999009141999999MA1102801999999REMMET111METAR ENDU 041920Z 11004KT 080V160 9999 FEW030 BKN045 01/M01 Q1028 RMK WIND 1100FT 20017KT WIND 2200FT 20014KT=
0218010230999992021010419504+69056+018540FM-15+007799999V0201701V002610137219N009999199+00401-00101999999ADDGA1021+009141999GA2071+013721999GE19MSL   +99999+99999GF199999021999009141999999MA1102801999999REMMET111METAR ENDU 041950Z 17005KT 140V230 9999 FEW030 BKN045 04/M01 Q1028 RMK WIND 1100FT 19017KT WIND 2200FT 20017KT=
0110010230999992021010420004+69058+018544FM-12+007699999V0201481N0021199999999999999999+00161-00221102851ADDAA101999999KA1010M+00421KA2010N+00071MA1999999101881MD1810021+9999OD140100451141OD299900271999REMSYN004BUFR
0210010230999992021010420204+69056+018540FM-15+007799999V0209999V000510137219N009999199+00201-00201999999ADDGA1021+009141999GA2071+013721999GE19MSL   +99999+99999GF199999021999009141999999MA1102801999999REMMET103METAR ENDU 042020Z VRB01KT 9999 FEW030 BKN045 02/M02 Q1028 RMK WIND 1100FT 20017KT WIND 2200FT 20016KT=
0210010230999992021010420504+69056+018540FM-15+007799999V0209999V002110137219N009999199+00101-00201999999ADDGA1021+009141999GA2071+013721999GE19MSL   +99999+99999GF199999021999009141999999MA1102801999999REMMET103METAR ENDU 042050Z VRB04KT 9999 FEW030 BKN045 01/M02 Q1028 RMK WIND 1100FT 19017KT WIND 2200FT 23010KT=
0228010230999992021010421004+69058+018544FM-12+007699999V0200891N00231006001C9075000199+00021-00201102891ADDAA101999999AY121031AY221031GA1061+006001061GA2999+999999031GA3999+999999101GE19MSL   +99999+99999GF107991061999006001999999KA1010M+00231KA2010N+00031MA1999999101911MD1510011+9999MW1021OD140100381091OD299900351999REMSYN004BUFR
0210010230999992021010421204+69056+018540FM-15+007799999V0209999V003610137219N009999199+00401+00001999999ADDGA1021+009141999GA2071+013721999GE19MSL   +99999+99999GF199999021999009141999999MA1102801999999REMMET103METAR ENDU 042120Z VRB07KT 9999 FEW030 BKN045 04/M00 Q1028 RMK WIND 1100FT 19018KT WIND 2200FT 20014KT=
0241010230999992021010421504+69056+018540FM-15+007799999V0202101V00361015241CN009999199+00501-00101999999ADDGA1021+009141999GA2041+015241999GA3071+024381999GE19MSL   +99999+99999GF199999021999009141999999MA1102801999999REMMET118METAR ENDU 042150Z 21007KT 180V240 9999 FEW030 SCT050 BKN080 05/M01 Q1028 RMK WIND 1100FT 20015KT WIND 2200FT 20010KT=
0118010230999992021010422004+69058+018544FM-12+007699999V0202351N0034199999999999999999+00451-00081102881ADDAA101999999KA1010M+00471KA2010N+00051MA1999999101921MD1310021+9999OC100751OD140100751205OD299900491999REMSYN004BUFR
0221010230999992021010422204+69056+018540FM-15+007799999V0202301N003110256019N009999199+00401-00101999999ADDGA1041+012801999GA2081+025601999GE19MSL   +99999+99999GF199999041999012801999999MA1102801999999REMMET114METAR ENDU 042220Z AUTO 23006KT 9999 SCT042/// OVC084/// 04/M01 Q1028 RMK WIND 1100FT 19013KT WIND 2200FT 21011KT=
0229010230999992021010422504+69056+018540FM-15+007799999V0202001V003110256019N009999199+00501-00101999999ADDGA1021+013411999GA2081+025601999GE19MSL   +99999+99999GF199999021999013411999999MA1102801999999REMMET122METAR ENDU 042250Z AUTO 20006KT 160V240 9999 FEW044/// OVC084/// 05/M01 Q1028 RMK WIND 1100FT 19014KT WIND 2200FT 19011KT=
0118010230999992021010423004+69058+018544FM-12+007699999V0201961N0033199999999999999999+00461-00071102851ADDAA101999999KA1010M+00461KA2010N+00411MA1999999101891MD1010011+9999OC100561OD140100561215OD299900341999REMSYN004BUFR
0203010230999992021010423204+69056+018540FM-15+007799999V0202201V00211025601CN009999199+00401-00101999999ADDGA1081+025601999GE19MSL   +99999+99999GF199999081999025601999999MA1102801999999REMMET112METAR ENDU 042320Z AUTO 22004KT 170V250 9999 OVC084/// 04/M01 Q1028 RMK WIND 1100FT 20017KT WIND 2200FT 20014KT=
0229010230999992021010423504+69056+018540FM-15+007799999V0201701V002110262119N009999199+00401-00101999999ADDGA1041+016151999GA2081+026211999GE19MSL   +99999+99999GF199999041999016151999999MA1102701999999REMMET122METAR ENDU 042350Z AUTO 17004KT 110V240 9999 SCT053/// OVC086/// 04/M01 Q1027 RMK WIND 1100FT 19015KT WIND 2200FT 20016KT=
0221010230999992021010500204+69056+018540FM-15+007799999V0209999V00261016151CN009999199+00401-00101999999ADDGA1071+016151999GA2081+029261999GE19MSL   +99999+99999GF199999071999016151999999MA1102701999999REMMET114METAR ENDU 050020Z AUTO VRB05KT 9999 BKN053/// OVC096/// 04/M01 Q1027 RMK WIND 1100FT 19017KT WIND 2200FT 21013KT=
0229010230999992021010500504+69056+018540FM-15+007799999V0201101V00261016151CN009999199+00101-00101999999ADDGA1071+016151999GA2081+023771999GE19MSL   +99999+99999GF199999071999016151999999MA1102701999999REMMET122METAR ENDU 050050Z AUTO 11005KT 080V220 9999 BKN053/// OVC078/// 01/M01 Q1027 RMK WIND 1100FT 21016KT WIND 2200FT 21010KT=
0118010230999992021010501004+69058+018544FM-12+007699999V0201801N0033199999999999999999+00401-00031102781ADDAA101999999KA1010M+00461KA2010N+00081MA1999999101821MD1710101+9999OC100721OD140100721188OD299900371999REMSYN004BUFR
0255010230999992021010501204+69056+018540FM-15+007799999V0200901V002110161519N009999199+00101-00101999999ADDGA1021+011281999GA2071+016151999GA3081+029871999GE19MSL   +99999+99999GF199999021999011281999999MA1102701999999REMMET132METAR ENDU 050120Z AUTO 09004KT 050V120 9999 FEW037/// BKN053/// OVC098/// 01/M01 Q1027 RMK WIND 1100FT 20014KT WIND 2200FT 20010KT=
0203010230999992021010501504+69056+018540FM-15+007799999V0202001V00311014021CN009999199+00501+00001999999ADDGA1081+014021999GE19MSL   +99999+99999GF199999081999014021999999MA1102701999999REMMET112METAR ENDU 050150Z AUTO 20006KT 160V240 9999 OVC046/// 05/M00 Q1027 RMK WIND 1100FT 20017KT WIND 2200FT 20010KT=
0195010230999992021010502204+69056+018540FM-15+007799999V0209999V00151012191CN009999199+00201-00201999999ADDGA1081+012191999GE19MSL   +99999+99999GF199999081999012191999999MA1102701999999REMMET104METAR ENDU 050220Z AUTO VRB03KT 9999 OVC040/// 02/M02 Q1027 RMK WIND 1100FT 19016KT WIND 2200FT 21010KT=
0231010230999992021010502504+69056+018540FM-15+007799999V0200901N00211010671CN009999199+00101-00101999999ADDAW1611GA1071+010671999GA2081+014941999GE19MSL   +99999+99999GF199999071999010671999999MA1102701999999REMMET118METAR ENDU 050250Z AUTO 09004KT 9999 -RA BKN035/// OVC049/// 01/M01 Q1027 RMK WIND 1100FT 20014KT WIND 2200FT 21011KT=
0252010230999992021010503204+69056+018540FM-15+007799999V0209999C000010118919N009999199+00101-00101999999ADDGA1021+008231999GA2071+011891999GA3081+019511999GE19MSL   +99999+99999GF199999021999008231999999MA1102701999999REMMET129METAR ENDU 050320Z AUTO 00000KT 9999 FEW027/// BKN039/// OVC064/// 01/M01 Q1027 RERA RMK WIND 1100FT 19017KT WIND 2200FT 21016KT=
0146010230999992021010503504+69056+018540FM-15+007799999V0201001N002619999999N009999199+00101-00101999999ADDAW1611MA1102701999999REMMET113METAR ENDU 050350Z AUTO 10005KT 9999 -RA ///030/// 01/M01 Q1027 RERA RMK WIND 1100FT 20016KT WIND 2200FT 21012KT=
0110010230999992021010504004+69058+018544FM-12+007699999V0200931N0015199999999999999999+00051-00121102751ADDAA101000131KA1010M+00111KA2010N+00031MA1999999101771MD1710051+9999OD140100441108OD299900321999REMSYN004BUFR
0220010230999992021010504204+69056+018540FM-15+007799999V0209999V001510106719N009999199+00101-00101999999ADDGA1021+006101999GA2071+010671999GE19MSL   +99999+99999GF199999021999006101999999MA1102601999999MW1611REMMET107METAR ENDU 050420Z VRB03KT 9999 -RA FEW020 BKN035 01/M01 Q1026 RMK WIND 1100FT 20017KT WIND 2200FT 21012KT=
0228010230999992021010504504+69056+018540FM-15+007799999V0201001V002110106719N009999199+00101+00001999999ADDGA1021+006101999GA2071+010671999GE19MSL   +99999+99999GF199999021999006101999999MA1102601999999MW1611REMMET115METAR ENDU 050450Z 10004KT 060V140 9999 -RA FEW020 BKN035 01/M00 Q1026 RMK WIND 1100FT 20017KT WIND 2200FT 20014KT=
0110010230999992021010505004+69058+018544FM-12+007699999V0200931N0028199999999999999999+00061-00081102711ADDAA101000231KA1010M+00091KA2010N+00031MA1999999101741MD1810071+9999OD140100381101OD299900281999REMSYN004BUFR
0251010230999992021010505204+69056+018540FM-15+007799999V0201101V00311010671CN009999199+00101-00101999999ADDGA1021+006101999GA2041+010671999GA3071+015241999GE19MSL   +99999+99999GF199999021999006101999999MA1102601999999MW1611REMMET122METAR ENDU 050520Z 11006KT 090V160 9999 -RA FEW020 SCT035 BKN050 01/M01 Q1026 RMK WIND 1100FT 20019KT WIND 2200FT 21014KT=
0250010230999992021010505504+69056+018540FM-15+007799999V0200901N00261012191CN009999199+00001-00101999999ADDGA1021+006101999GA2041+012191999GA3071+018291999GE19MSL   +99999+99999GF199999021999006101999999MA1102601999999MW1161REMMET121METAR ENDU 050550Z 09005KT 9999 VCSH FEW020 SCT040 BKN060 00/M01 Q1026 NOSIG RMK WIND 1100FT 20016KT WIND 2200FT 20013KT=
0239010230999992021010506204+69056+018540FM-15+007799999V0201001N00261012191CN009999199+00101-00101999999ADDGA1021+006101999GA2041+012191999GA3071+018291999GE19MSL   +99999+99999GF199999021999006101999999MA1102601999999REMMET116METAR ENDU 050620Z 10005KT 9999 FEW020 SCT040 BKN060 01/M01 Q1026 NOSIG RMK WIND 1100FT 20014KT WIND 2200FT 21016KT=
0239010230999992021010506504+69056+018540FM-15+007799999V0201001N00151012191CN009999199+00101-00101999999ADDGA1021+009141999GA2041+012191999GA3071+018291999GE19MSL   +99999+99999GF199999021999009141999999MA1102601999999REMMET116METAR ENDU 050650Z 10003KT 9999 FEW030 SCT040 BKN060 01/M01 Q1026 NOSIG RMK WIND 1100FT 20013KT WIND 2200FT 21014KT=
0110010230999992021010507004+69058+018544FM-12+007699999V0201051N0009199999999999999999+00051-00111102681ADDAA101999999KA1010M+00061KA2010N+00031MA1999999101701MD1710071+9999OD140100381085OD299900271999REMSYN004BUFR
0239010230999992021010507204+69056+018540FM-15+007799999V0201001N00211012191CN009999199+00001-00101999999ADDGA1021+009141999GA2041+012191999GA3071+018291999GE19MSL   +99999+99999GF199999021999009141999999MA1102601999999REMMET116METAR ENDU 050720Z 10004KT 9999 FEW030 SCT040 BKN060 00/M01 Q1026 NOSIG RMK WIND 1100FT 19013KT WIND 2200FT 20016KT=
0239010230999992021010507504+69056+018540FM-15+007799999V0209999V00101012191CN009999199+00001-00101999999ADDGA1021+009141999GA2041+012191999GA3071+015241999GE19MSL   +99999+99999GF199999021999009141999999MA1102601999999REMMET116METAR ENDU 050750Z VRB02KT 9999 FEW030 SCT040 BKN050 00/M01 Q1026 NOSIG RMK WIND 1100FT 20014KT WIND 2200FT 21016KT=
0110010230999992021010508004+69058+018544FM-12+007699999V0203561N0012199999999999999999+00051-00101102681ADDAA101999999KA1010M+00061KA2010N+00021MA1999999101711MD1710031+9999OD140100301097OD299900221999REMSYN004BUFR
0216010230999992021010508204+69056+018540FM-15+007799999V0201001N001510137219N009999199+00101-00101999999ADDGA1021+010671999GA2071+013721999GE19MSL   +99999+99999GF199999021999010671999999MA1102601999999REMMET109METAR ENDU 050820Z 10003KT 9999 FEW035 BKN045 01/M01 Q1026 NOSIG RMK WIND 1100FT 19016KT WIND 2200FT 21013KT=
0239010230999992021010508504+69056+018540FM-15+007799999V0200901N00151013721CN009999199+00001-00101999999ADDGA1021+010671999GA2041+013721999GA3071+018291999GE19MSL   +99999+99999GF199999021999010671999999MA1102601999999REMMET116METAR ENDU 050850Z 09003KT 9999 FEW035 SCT045 BKN060 00/M01 Q1026 NOSIG RMK WIND 1100FT 19016KT WIND 2200FT 21015KT=
0228010230999992021010509004+69058+018544FM-12+007699999V0201111N00241006001C9075000199+00061-00131102661ADDAA101999999AY121031AY221031GA1061+006001061GA2999+999999031GA3999+999999101GE19MSL   +99999+99999GF107991061999006001999999KA1010M+00061KA2010N+00041MA1999999101681MD1710031+9999MW1021OD140100331103OD299900271999REMSYN004BUFR
0239010230999992021010509204+69056+018540FM-15+007799999V0209999C00001013721CN009999199+00001-00101999999ADDGA1021+010671999GA2041+013721999GA3071+018291999GE19MSL   +99999+99999GF199999021999010671999999MA1102601999999REMMET116METAR ENDU 050920Z 00000KT 9999 FEW035 SCT045 BKN060 00/M01 Q1026 NOSIG RMK WIND 1100FT 18015KT WIND 2200FT 21016KT=
0249010230999992021010509504+69056+018540FM-15+007799999V0201001N00261013721CN009999199+00101-00101999999ADDGA1021+010671999GA2041+013721999GA3071+018291999GE19MSL   +99999+99999GF199999021999010671999999MA1102501999999MW1611REMMET120METAR ENDU 050950Z 10005KT 9999 -RA FEW035 SCT045 BKN060 01/M01 Q1025 NOSIG RMK WIND 1100FT 19017KT WIND 2200FT 21019KT=
0110010230999992021010510004+69058+018544FM-12+007699999V0201191N0020199999999999999999+00051-00121102631ADDAA101999999KA1010M+00071KA2010N+00041MA1999999101651MD1810051+9999OD140100411085OD299900321999REMSYN004BUFR
0247010230999992021010510204+69056+018540FM-15+007799999V0201001V00151013721CN009999199+00101-00101999999ADDGA1021+009141999GA2041+013721999GA3071+018291999GE19MSL   +99999+99999GF199999021999009141999999MA1102501999999REMMET124METAR ENDU 051020Z 10003KT 050V200 9999 FEW030 SCT045 BKN060 01/M01 Q1025 NOSIG RMK WIND 1100FT 19019KT WIND 2200FT 21021KT=
0250010230999992021010510504+69056+018540FM-15+007799999V0201001N00311013721CN009999199+00101-00101999999ADDGA1021+010671999GA2041+013721999GA3071+018291999GE19MSL   +99999+99999GF199999021999010671999999MA1102501999999MW1161REMMET121METAR ENDU 051050Z 10006KT 9999 VCSH FEW035 SCT045 BKN060 01/M01 Q1025 NOSIG RMK WIND 1100FT 20018KT WIND 2200FT 20018KT=
0110010230999992021010511004+69058+018544FM-12+007699999V0200851N0029199999999999999999+00051-00141102591ADDAA101999999KA1010M+00061KA2010N+00031MA1999999101621MD1710091+9999OD140100411082OD299900321999REMSYN004BUFR
0249010230999992021010511204+69056+018540FM-15+007799999V0200801N00261012191CN009999199+00101-00101999999ADDGA1021+009141999GA2041+012191999GA3071+015241999GE19MSL   +99999+99999GF199999021999009141999999MA1102501999999MW1611REMMET120METAR ENDU 051120Z 08005KT 9999 -RA FEW030 SCT040 BKN050 01/M01 Q1025 NOSIG RMK WIND 1100FT 19017KT WIND 2200FT 20015KT=
0249010230999992021010511504+69056+018540FM-15+007799999V0209999V00051012191CN009999199+00101-00101999999ADDGA1021+009141999GA2041+012191999GA3071+015241999GE19MSL   +99999+99999GF199999021999009141999999MA1102501999999MW1611REMMET120METAR ENDU 051150Z VRB01KT 9999 -RA FEW030 SCT040 BKN050 01/M01 Q1025 NOSIG RMK WIND 1100FT 18017KT WIND 2200FT 20013KT=
0235010230999992021010512204+69056+018540FM-15+007799999V0200701V002110137219N009999199+00001-00101999999ADDGA1041+009141999GA2071+013721999GE19MSL   +99999+99999GF199999041999009141999999MA1102501999999MW1161REMMET122METAR ENDU 051220Z 07004KT 030V100 9999 VCSH SCT030 BKN045 00/M01 Q1025 NOSIG RMK WIND 1100FT 18019KT WIND 2200FT 20017KT=
0226010230999992021010512504+69056+018540FM-15+007799999V0209999V001510121919N009999199+00101-00101999999ADDGA1041+009141999GA2071+012191999GE19MSL   +99999+99999GF199999041999009141999999MA1102401999999MW1611REMMET113METAR ENDU 051250Z VRB03KT 9999 -RA SCT030 BKN040 01/M01 Q1024 NOSIG RMK WIND 1100FT 18014KT WIND 2200FT 21020KT=
0110010230999992021010513004+69058+018544FM-12+007699999V0200721N0021199999999999999999+00051-00111102501ADDAA101999999KA1010M+00061KA2010N+00031MA1999999101531MD1810131+9999OD140100371080OD299900301999REMSYN004BUFR
0234010230999992021010513204+69056+018540FM-15+007799999V0200801V002110121919N009999199+00101-00101999999ADDGA1041+009141999GA2071+012191999GE19MSL   +99999+99999GF199999041999009141999999MA1102401999999MW1611REMMET121METAR ENDU 051320Z 08004KT 040V100 9999 -RA SCT030 BKN040 01/M01 Q1024 NOSIG RMK WIND 1100FT 19014KT WIND 2200FT 21017KT=
0235010230999992021010513504+69056+018540FM-15+007799999V0200901V002610121919N009999199+00101-00101999999ADDGA1041+009141999GA2071+012191999GE19MSL   +99999+99999GF199999041999009141999999MA1102401999999MW1161REMMET122METAR ENDU 051350Z 09005KT 070V140 9999 VCSH SCT030 BKN040 01/M01 Q1024 NOSIG RMK WIND 1100FT 18013KT WIND 2200FT 21016KT=
0110010230999992021010514004+69058+018544FM-12+007699999V0201271N0014199999999999999999+00051-00051102461ADDAA101000131KA1010M+00061KA2010N+00031MA1999999101481MD1710141+9999OD140100391099OD299900261999REMSYN004BUFR
0235010230999992021010514204+69056+018540FM-15+007799999V0201501V001510121919N009999199+00101+00001999999ADDGA1041+009141999GA2071+012191999GE19MSL   +99999+99999GF199999041999009141999999MA1102401999999MW1161REMMET122METAR ENDU 051420Z 15003KT 090V200 9999 VCSH SCT030 BKN040 01/M00 Q1024 NOSIG RMK WIND 1100FT 17011KT WIND 2200FT 21016KT=
0235010230999992021010514504+69056+018540FM-15+007799999V0201001V002110121919N009999199+00101+00001999999ADDGA1041+009141999GA2071+012191999GE19MSL   +99999+99999GF199999041999009141999999MA1102301999999MW1161REMMET122METAR ENDU 051450Z 10004KT 050V200 9999 VCSH SCT030 BKN040 01/M00 Q1023 NOSIG RMK WIND 1100FT 18010KT WIND 2200FT 20017KT=
0228010230999992021010515004+69058+018544FM-12+007699999V0200861N00301006001C9065000199+00121-00031102411ADDAA101999999AY161031AY221031GA1061+006001061GA2999+999999031GA3999+999999101GE19MSL   +99999+99999GF107991061999006001999999KA1010M+00211KA2010N+00041MA1999999101441MD1710141+9999MW1151OD140100431080OD299900331999REMSYN004BUFR
0226010230999992021010515204+69056+018540FM-15+007799999V0209999V001010121919N009999199+00101+00001999999ADDGA1041+009141999GA2071+012191999GE19MSL   +99999+99999GF199999041999009141999999MA1102301999999MW1611REMMET113METAR ENDU 051520Z VRB02KT 9999 -RA SCT030 BKN040 01/M00 Q1023 NOSIG RMK WIND 1100FT 17006KT WIND 2200FT 20017KT=
0239010230999992021010515504+69056+018540FM-15+007799999V0200901N00261012191CN009999199+00101+00001999999ADDGA1021+009141999GA2041+012191999GA3071+015241999GE19MSL   +99999+99999GF199999021999009141999999MA1102301999999REMMET116METAR ENDU 051550Z 09005KT 9999 FEW030 SCT040 BKN050 01/M00 Q1023 NOSIG RMK WIND 1100FT 16005KT WIND 2200FT 20017KT=
0258010230999992021010516204+69056+018540FM-15+007799999V0200801V00151012191CN009999199+00101+00001999999ADDGA1021+009141999GA2041+012191999GA3071+015241999GE19MSL   +99999+99999GF199999021999009141999999MA1102301999999MW1161REMMET129METAR ENDU 051620Z 08003KT 050V130 9999 VCSH FEW030 SCT040 BKN050 01/M00 Q1023 NOSIG RMK WIND 1100FT 18010KT WIND 2200FT 20019KT=
0216010230999992021010516504+69056+018540FM-15+007799999V0209999V000510121919N009999199+00101+00001999999ADDGA1021+009141999GA2071+012191999GE19MSL   +99999+99999GF199999021999009141999999MA1102201999999REMMET109METAR ENDU 051650Z VRB01KT 9999 FEW030 BKN040 01/M00 Q1022 NOSIG RMK WIND 1100FT VRB02KT WIND 2200FT 20020KT=
0216010230999992021010517204+69056+018540FM-15+007799999V0209999V001510106719N009999199+00101+00001999999ADDGA1021+007621999GA2071+010671999GE19MSL   +99999+99999GF199999021999007621999999MA1102201999999REMMET109METAR ENDU 051720Z VRB03KT 9999 FEW025 BKN035 01/M00 Q1022 NOSIG RMK WIND 1100FT 19010KT WIND 2200FT 20022KT=
0224010230999992021010517504+69056+018540FM-15+007799999V0201201V002110121919N009999199+00201+00001999999ADDGA1021+009141999GA2071+012191999GE19MSL   +99999+99999GF199999021999009141999999MA1102201999999REMMET117METAR ENDU 051750Z 12004KT 080V170 9999 FEW030 BKN040 02/M00 Q1022 NOSIG RMK WIND 1100FT 19016KT WIND 2200FT 21021KT=
0210010230999992021010518204+69056+018540FM-15+007799999V0200701N003110137219N009999199+00101+00001999999ADDGA1021+010671999GA2071+013721999GE19MSL   +99999+99999GF199999021999010671999999MA1102201999999REMMET103METAR ENDU 051820Z 07006KT 9999 FEW035 BKN045 01/M00 Q1022 RMK WIND 1100FT 19016KT WIND 2200FT 20019KT=
0210010230999992021010518504+69056+018540FM-15+007799999V0209999V001010137219N009999199+00101+00001999999ADDGA1021+010671999GA2071+013721999GE19MSL   +99999+99999GF199999021999010671999999MA1102201999999REMMET103METAR ENDU 051850Z VRB02KT 9999 FEW035 BKN045 01/M00 Q1022 RMK WIND 1100FT 20015KT WIND 2200FT 21022KT=
0210010230999992021010519204+69056+018540FM-15+007799999V0209999V001010152419N009999199+00101+00001999999ADDGA1021+010671999GA2071+015241999GE19MSL   +99999+99999GF199999021999010671999999MA1102201999999REMMET103METAR ENDU 051920Z VRB02KT 9999 FEW035 BKN050 01/M00 Q1022 RMK WIND 1100FT 20018KT WIND 2200FT 20022KT=
0236010230999992021010519504+69056+018540FM-15+007799999V0209999V00101015241CN009999199+00001-00101999999ADDGA1021+010671999GA2041+015241999GA3071+030481999GE19MSL   +99999+99999GF199999021999010671999999MA1102101999999REMMET113METAR ENDU 051950Z VRB02KT 9999 FEW035 SCT050 BKN100 00/M01 Q1021 RMK WIND 1100FT 20017KT WIND 2200FT 20017G29KT=
0110010230999992021010520004+69058+018544FM-12+007699999V0200621N0010199999999999999999+00061-00071102241ADDAA101999999KA1010M+00091KA2010N+00031MA1999999101271MD1710071+9999OD140100231120OD299900291999REMSYN004BUFR
0233010230999992021010520204+69056+018540FM-15+007799999V0209999V00101015241CN009999199+00001-00101999999ADDGA1021+010671999GA2041+015241999GA3071+030481999GE19MSL   +99999+99999GF199999021999010671999999MA1102101999999REMMET110METAR ENDU 052020Z VRB02KT 9999 FEW035 SCT050 BKN100 00/M01 Q1021 RMK WIND 1100FT 21017KT WIND 2200FT 21018KT=
0243010230999992021010520504+69056+018540FM-15+007799999V0209999V00151015241CN009999199+00101-00101999999ADDGA1021+004571999GA2041+015241999GA3071+036581999GE19MSL   +99999+99999GF199999021999004571999999MA1102201999999MW1611REMMET114METAR ENDU 052050Z VRB03KT 9999 -RA FEW015 SCT050 BKN120 01/M01 Q1022 RMK WIND 1100FT 20018KT WIND 2200FT 22022KT=
0228010230999992021010521004+69058+018544FM-12+007699999V0200681N0020199999999040000199+00301+00081102251ADDAA101999999AY161031AY221031GA1041+010001061GA2999+999999031GA3999+999999021GE19MSL   +99999+99999GF107991041999010001999999KA1010M+00301KA2010N+00021MA1999999101281MD1510031+9999MW1601OD140100391037OD299900371999REMSYN004BUFR
0243010230999992021010521204+69056+018540FM-15+007799999V0209999V00101015241CN009999199+00301+00101999999ADDGA1021+003051999GA2041+015241999GA3071+036581999GE19MSL   +99999+99999GF199999021999003051999999MA1102201999999MW1161REMMET114METAR ENDU 052120Z VRB02KT 9999 VCSH FEW010 SCT050 BKN120 03/01 Q1022 RMK WIND 1100FT 20020KT WIND 2200FT 22019KT=
0242010230999992021010521504+69056+018540FM-15+007799999V0209999V00101013721CN009999199+00401+00101999999ADDGA1021+004571999GA2041+013721999GA3071+018291999GE19MSL   +99999+99999GF199999021999004571999999MA1102201999999MW1611REMMET113METAR ENDU 052150Z VRB02KT 9999 -RA FEW015 SCT045 BKN060 04/01 Q1022 RMK WIND 1100FT 21016KT WIND 2200FT 23017KT=
0110010230999992021010522004+69058+018544FM-12+007699999V0202061N0022199999999999999999+00451+00151102251ADDAA101999999KA1010M+00451KA2010N+00241MA1999999101291MD1510001+9999OD140100431218OD299900231999REMSYN004BUFR
0225010230999992021010522204+69056+018540FM-15+007799999V0209999V00101014021CN009999199+00401+00101999999ADDGA1021+010671999GA2041+014021999GE19MSL   +99999+99999GF199999021999010671999999MA1102201999999REMMET118METAR ENDU 052220Z AUTO VRB02KT 9999 FEW035/// SCT046/// 04/01 Q1022 RERA RMK WIND 1100FT 21016KT WIND 2200FT 23012KT=
0220010230999992021010522504+69056+018540FM-15+007799999V0209999V000510365819N009999199+00401+00101999999ADDGA1021+015541999GA2071+036581999GE19MSL   +99999+99999GF199999021999015541999999MA1102201999999REMMET113METAR ENDU 052250Z AUTO VRB01KT 9999 FEW051/// BKN120/// 04/01 Q1022 RMK WIND 1100FT 21015KT WIND 2200FT 22010KT=
0246010230999992021010523204+69056+018540FM-15+007799999V0209999C00001018591CN009999199+00401+00101999999ADDGA1021+014941999GA2041+018591999GA3081+036581999GE19MSL   +99999+99999GF199999021999014941999999MA1102201999999REMMET123METAR ENDU 052320Z AUTO 00000KT 9999 FEW049/// SCT061/// OVC120/// 04/01 Q1022 RMK WIND 1100FT 21015KT WIND 2200FT 23012KT=
0194010230999992021010523504+69056+018540FM-15+007799999V0209999V00151014631CN009999199+00501+00101999999ADDGA1081+014631999GE19MSL   +99999+99999GF199999081999014631999999MA1102101999999REMMET103METAR ENDU 052350Z AUTO VRB03KT 9999 OVC048/// 05/01 Q1021 RMK WIND 1100FT 20015KT WIND 2200FT 22011KT=
0202010230999992021010600204+69056+018540FM-15+007799999V0202001V00261014941CN009999199+00501+00101999999ADDGA1081+014941999GE19MSL   +99999+99999GF199999081999014941999999MA1102101999999REMMET111METAR ENDU 060020Z AUTO 20005KT 160V240 9999 OVC049/// 05/01 Q1021 RMK WIND 1100FT 20015KT WIND 2200FT 21015KT=
0228010230999992021010600504+69056+018540FM-15+007799999V0202101V00361012801CN009999199+00501+00101999999ADDGA1071+012801999GA2081+017371999GE19MSL   +99999+99999GF199999071999012801999999MA1102101999999REMMET121METAR ENDU 060050Z AUTO 21007KT 180V240 9999 BKN042/// OVC057/// 05/01 Q1021 RMK WIND 1100FT 20012KT WIND 2200FT 21015KT=
0118010230999992021010601004+69058+018544FM-12+007699999V0202081N0033199999999999999999+00471+00111102161ADDAA101999999KA1010M+00491KA2010N+00401MA1999999101201MD1810091+9999OC100701OD140100701209OD299900471999REMSYN004BUFR
0228010230999992021010601204+69056+018540FM-15+007799999V0202101V00311014331CN009999199+00501+00101999999ADDGA1071+014331999GA2081+017371999GE19MSL   +99999+99999GF199999071999014331999999MA1102101999999REMMET121METAR ENDU 060120Z AUTO 21006KT 180V250 9999 BKN047/// OVC057/// 05/01 Q1021 RMK WIND 1100FT 20015KT WIND 2200FT 21017KT=
0202010230999992021010601504+69056+018540FM-15+007799999V0201901V00261014941CN009999199+00501+00101999999ADDGA1081+014941999GE19MSL   +99999+99999GF199999081999014941999999MA1102001999999REMMET111METAR ENDU 060150Z AUTO 19005KT 140V240 9999 OVC049/// 05/01 Q1020 RMK WIND 1100FT 20016KT WIND 2200FT 21020KT=
0217010230999992021010602204+69056+018540FM-15+007799999V0201801V00361014941CN009999199+00501+00101999999ADDAW1611GA1081+014941999GE19MSL   +99999+99999GF199999081999014941999999MA1102001999999REMMET120METAR ENDU 060220Z AUTO 18007KT 140V220 9999 -RA OVC049/// 05/01 Q1020 REUP RMK WIND 1100FT 20019KT WIND 2200FT 21019KT=
0194010230999992021010602504+69056+018540FM-15+007799999V0209999V00101013111CN009999199+00501+00101999999ADDGA1081+013111999GE19MSL   +99999+99999GF199999081999013111999999MA1102101999999REMMET103METAR ENDU 060250Z AUTO VRB02KT 9999 OVC043/// 05/01 Q1021 RMK WIND 1100FT 20016KT WIND 2200FT 21018KT=
0118010230999992021010603004+69058+018544FM-12+007699999V0203451N0008199999999999999999+00421+00121102141ADDAA101999999KA1010M+00511KA2010N+00421MA1999999101181MD1510081+9999OC100701OD140100701194OD299900481999REMSYN004BUFR
0202010230999992021010603204+69056+018540FM-15+007799999V0201901V00261012191CN009999199+00501+00101999999ADDGA1081+012191999GE19MSL   +99999+99999GF199999081999012191999999MA1102101999999REMMET111METAR ENDU 060320Z AUTO 19005KT 140V230 9999 OVC040/// 05/01 Q1021 RMK WIND 1100FT 20014KT WIND 2200FT 22015KT=
0220010230999992021010603504+69056+018540FM-15+007799999V0209999V001010155419N009999199+00401+00101999999ADDGA1021+005491999GA2081+015541999GE19MSL   +99999+99999GF199999021999005491999999MA1102101999999REMMET113METAR ENDU 060350Z AUTO VRB02KT 9999 FEW018/// OVC051/// 04/01 Q1021 RMK WIND 1100FT 20013KT WIND 2200FT 23012KT=
0118010230999992021010604004+69058+018544FM-12+007699999V0201771N0019199999999999999999+00421+00131102151ADDAA101999999KA1010M+00471KA2010N+00401MA1999999101191MD1510011+9999OC100541OD140100541171OD299900341999REMSYN004BUFR
0217010230999992021010604204+69056+018540FM-15+007799999V0202001V002610121919N009999199+00501+00101999999ADDGA1021+006101999GA2071+012191999GE19MSL   +99999+99999GF199999021999006101999999MA1102101999999REMMET110METAR ENDU 060420Z 20005KT 160V240 9999 FEW020 BKN040 05/01 Q1021 RMK WIND 1100FT 20010KT WIND 2200FT 23010KT=
0209010230999992021010604504+69056+018540FM-15+007799999V0202101N003110106719N009999199+00501+00101999999ADDGA1021+006101999GA2071+010671999GE19MSL   +99999+99999GF199999021999006101999999MA1102101999999REMMET102METAR ENDU 060450Z 21006KT 9999 FEW020 BKN035 05/01 Q1021 RMK WIND 1100FT 20008KT WIND 2200FT 24011KT=
0220010230999992021010605204+69056+018540FM-15+007799999V0202001N002610106719N009999199+00401+00101999999ADDGA1021+007621999GA2071+010671999GE19MSL   +99999+99999GF199999021999007621999999MA1102101999999MW1161REMMET107METAR ENDU 060520Z 20005KT 9999 VCSH FEW025 BKN035 04/01 Q1021 RMK WIND 1100FT 21009KT WIND 2200FT 22009KT=
0215010230999992021010605504+69056+018540FM-15+007799999V0202301N002110091419N009999199+00401+00201999999ADDGA1021+006101999GA2071+009141999GE19MSL   +99999+99999GF199999021999006101999999MA1102101999999REMMET108METAR ENDU 060550Z 23004KT 9999 FEW020 BKN030 04/02 Q1021 NOSIG RMK WIND 1100FT 21006KT WIND 2200FT 23010KT=
0225010230999992021010606204+69056+018540FM-15+007799999V0209999V001510106719N009999199+00401+00101999999ADDGA1021+006101999GA2071+010671999GE19MSL   +99999+99999GF199999021999006101999999MA1102101999999MW1611REMMET112METAR ENDU 060620Z VRB03KT 9999 -RA FEW020 BKN035 04/01 Q1021 NOSIG RMK WIND 1100FT 20009KT WIND 2200FT 23010KT=
0233010230999992021010606504+69056+018540FM-15+007799999V0200901V001510106719N009999199+00201+00001999999ADDGA1021+006101999GA2071+010671999GE19MSL   +99999+99999GF199999021999006101999999MA1102101999999MW1611REMMET120METAR ENDU 060650Z 09003KT 020V150 9999 -RA FEW020 BKN035 02/00 Q1021 NOSIG RMK WIND 1100FT 18011KT WIND 2200FT 21009KT=
0226010230999992021010607204+69056+018540FM-15+007799999V0201001N002610121919N009999199+00201+00001999999ADDGA1021+006101999GA2071+012191999GE19MSL   +99999+99999GF199999021999006101999999MA1102101999999MW1161REMMET113METAR ENDU 060720Z 10005KT 9999 VCSH FEW020 BKN040 02/00 Q1021 NOSIG RMK WIND 1100FT 18013KT WIND 2200FT 20016KT=
0238010230999992021010607504+69056+018540FM-15+007799999V0209999V00151010671CN009999199+00201+00001999999ADDGA1021+006101999GA2041+010671999GA3071+054861999GE19MSL   +99999+99999GF199999021999006101999999MA1102101999999REMMET115METAR ENDU 060750Z VRB03KT 9999 FEW020 SCT035 BKN180 02/00 Q1021 NOSIG RMK WIND 1100FT 18010KT WIND 2200FT 21017KT=
0238010230999992021010608204+69056+018540FM-15+007799999V0209999V00101012191CN009999199+00201+00001999999ADDGA1021+007621999GA2041+012191999GA3071+054861999GE19MSL   +99999+99999GF199999021999007621999999MA1102101999999REMMET115METAR ENDU 060820Z VRB02KT 9999 FEW025 SCT040 BKN180 02/00 Q1021 NOSIG RMK WIND 1100FT 17009KT WIND 2200FT 21015KT=
0215010230999992021010608504+69056+018540FM-15+007799999V0209999V001010137219N009999199+00201+00001999999ADDGA1021+009141999GA2071+013721999GE19MSL   +99999+99999GF199999021999009141999999MA1102101999999REMMET108METAR ENDU 060850Z VRB02KT 9999 FEW030 BKN045 02/00 Q1021 NOSIG RMK WIND 1100FT 17012KT WIND 2200FT 20017KT=
0228010230999992021010609004+69058+018544FM-12+007699999V0201581N00241006001C9070000199+00221-00011102191ADDAA101999999AY121031AY221031GA1051+006001061GA2999+999999031GA3999+999999101GE19MSL   +99999+99999GF107991051999006001999999KA1010M+00231KA2010N+00131MA1999999101231MD1210051+9999MW1021OD140100401161OD299900271999REMSYN004BUFR
0216010230999992021010609204+69056+018540FM-15+007799999V0209999V000510137219N009999199+00201+00001999999ADDGA1021+010671999GA2071+013721999GE19MSL   +99999+99999GF199999021999010671999999MA1102101999999REMMET109METAR ENDU 060920Z VRB01KT 9999 FEW035 BKN045 02/M00 Q1021 NOSIG RMK WIND 1100FT 17015KT WIND 2200FT 20017KT=
0235010230999992021010609504+69056+018540FM-15+007799999V0202001V001510137219N009999199+00201+00001999999ADDGA1021+010671999GA2071+013721999GE19MSL   +99999+99999GF199999021999010671999999MA1102101999999MW1161REMMET122METAR ENDU 060950Z 20003KT 130V250 9999 VCSH FEW035 BKN045 02/M00 Q1021 NOSIG RMK WIND 1100FT 18015KT WIND 2200FT 20019KT=
0227010230999992021010610204+69056+018540FM-15+007799999V0201301N002110137219N009999199+00301+00001999999ADDGA1021+010671999GA2071+013721999GE19MSL   +99999+99999GF199999021999010671999999MA1102101999999MW1161REMMET114METAR ENDU 061020Z 13004KT 9999 VCSH FEW035 BKN045 03/M00 Q1021 NOSIG RMK WIND 1100FT 17014KT WIND 2200FT 20019KT=
0239010230999992021010610504+69056+018540FM-15+007799999V0209999V00211024381CN009999199+00201-00101999999ADDGA1021+010671999GA2041+024381999GA3071+054861999GE19MSL   +99999+99999GF199999021999010671999999MA1102101999999REMMET116METAR ENDU 061050Z VRB04KT 9999 FEW035 SCT080 BKN180 02/M01 Q1021 NOSIG RMK WIND 1100FT 19013KT WIND 2200FT 20019KT=
