0165720538001642021010100154+40167-105167FM-15+154199999V0209999C000010335319N016093199+00311-00581999999ADDGD14991+0335399GE19MSL   +99999+99999GF199999999999033531999999MA1101561999999REMMET075METAR KLMO 010015Z AUTO 00000KT 10SM OVC110 03/M06 A2999 RMK AO2 T00311058=
0165720538001642021010100354+40167-105167FM-15+154199999V0202301N001510335319N016093199+00251-00521999999ADDGD14991+0335399GE19MSL   +99999+99999GF199999999999033531999999MA1101591999999REMMET075METAR KLMO 010035Z AUTO 23003KT 10SM OVC110 03/M05 A3000 RMK AO2 T00251052=
0165720538001642021010100554+40167-105167FM-15+154199999V0209999C000010335319N016093199+00201-00501999999ADDGD14991+0335399GE19MSL   +99999+99999GF199999999999033531999999MA1101591999999REMMET075METAR KLMO 010055Z AUTO 00000KT 10SM OVC110 02/M05 A3000 RMK AO2 T00201050=
0165720538001642021010101154+40167-105167FM-15+154199999V0209999C000010335319N016093199+00151-00431999999ADDGD14991+0335399GE19MSL   +99999+99999GF199999999999033531999999MA1101661999999REMMET075METAR KLMO 010115Z AUTO 00000KT 10SM OVC110 02/M04 A3002 RMK AO2 T00151043=
0165720538001642021010101354+40167-105167FM-15+154199999V0209999C000010304819N016093199+00151-00371999999ADDGD14991+0304899GE19MSL   +99999+99999GF199999999999030481999999MA1101691999999REMMET075METAR KLMO 010135Z AUTO 00000KT 10SM OVC100 02/M04 A3003 RMK AO2 T00151037=
0165720538001642021010101554+40167-105167FM-15+154199999V0209999C000010304819N016093199+00151-00401999999ADDGD14991+0304899GE19MSL   +99999+99999GF199999999999030481999999MA1101731999999REMMET075METAR KLMO 010155Z AUTO 00000KT 10SM OVC100 02/M04 A3004 RMK AO2 T00151040=
0165720538001642021010102154+40167-105167FM-15+154199999V0209999C000010335319N016093199+00081-00371999999ADDGD14991+0335399GE19MSL   +99999+99999GF199999999999033531999999MA1101791999999REMMET075METAR KLMO 010215Z AUTO 00000KT 10SM OVC110 01/M04 A3006 RMK AO2 T00081037=
0165720538001642021010102354+40167-105167FM-15+154199999V0209999C000010335319N016093199+00081-00341999999ADDGD14991+0335399GE19MSL   +99999+99999GF199999999999033531999999MA1101791999999REMMET075METAR KLMO 010235Z AUTO 00000KT 10SM OVC110 01/M03 A3006 RMK AO2 T00081034=
0165720538001642021010102554+40167-105167FM-15+154199999V0202801N001510335319N016093199+00051-00391999999ADDGD14991+0335399GE19MSL   +99999+99999GF199999999999033531999999MA1101791999999REMMET075METAR KLMO 010255Z AUTO 28003KT 10SM OVC110 01/M04 A3006 RMK AO2 T00051039=
0165720538001642021010103154+40167-105167FM-15+154199999V0203001N002110335319N016093199+00051-00361999999ADDGD14991+0335399GE19MSL   +99999+99999GF199999999999033531999999MA1101791999999REMMET075METAR KLMO 010315Z AUTO 30004KT 10SM OVC110 01/M04 A3006 RMK AO2 T00051036=
0165720538001642021010103354+40167-105167FM-15+154199999V0203101N001510335319N016093199+00021-00351999999ADDGD14991+0335399GE19MSL   +99999+99999GF199999999999033531999999MA1101791999999REMMET075METAR KLMO 010335Z AUTO 31003KT 10SM OVC110 00/M03 A3006 RMK AO2 T00021035=
0165720538001642021010103554+40167-105167FM-15+154199999V0209999C000010365819N016093199+00001-00351999999ADDGD14991+0365899GE19MSL   +99999+99999GF199999999999036581999999MA1101831999999REMMET075METAR KLMO 010355Z AUTO 00000KT 10SM OVC120 00/M03 A3007 RMK AO2 T00001035=
0165720538001642021010104154+40167-105167FM-15+154199999V0209999C000010365819N016093199+00051-00371999999ADDGD14991+0365899GE19MSL   +99999+99999GF199999999999036581999999MA1101831999999REMMET075METAR KLMO 010415Z AUTO 00000KT 10SM OVC120 01/M04 A3007 RMK AO2 T00051037=
0165720538001642021010104354+40167-105167FM-15+154199999V0209999C000010365819N016093199+00011-00391999999ADDGD14991+0365899GE19MSL   +99999+99999GF199999999999036581999999MA1101831999999REMMET075METAR KLMO 010435Z AUTO 00000KT 10SM OVC120 00/M04 A3007 RMK AO2 T00011039=
0165720538001642021010104554+40167-105167FM-15+154199999V0209999C000010365819N016093199+00001-00361999999ADDGD14991+0365899GE19MSL   +99999+99999GF199999999999036581999999MA1101861999999REMMET075METAR KLMO 010455Z AUTO 00000KT 10SM OVC120 00/M04 A3008 RMK AO2 T00001036=
0165720538001642021010105154+40167-105167FM-15+154199999V0209999C000010365819N016093199+00001-00371999999ADDGD14991+0365899GE19MSL   +99999+99999GF199999999999036581999999MA1101861999999REMMET075METAR KLMO 010515Z AUTO 00000KT 10SM OVC120 00/M04 A3008 RMK AO2 T00001037=
0165720538001642021010105354+40167-105167FM-15+154199999V0209999C000010365819N016093199-00011-00401999999ADDGD14991+0365899GE19MSL   +99999+99999GF199999999999036581999999MA1101831999999REMMET075METAR KLMO 010535Z AUTO 00000KT 10SM OVC120 00/M04 A3007 RMK AO2 T10011040=
0165720538001642021010105554+40167-105167FM-15+154199999V0209999C000010365819N016093199-00011-00421999999ADDGD14991+0365899GE19MSL   +99999+99999GF199999999999036581999999MA1101861999999REMMET075METAR KLMO 010555Z AUTO 00000KT 10SM OVC120 00/M04 A3008 RMK AO2 T10011042=
0166720538001642021010106154+40167-105167FM-15+154199999V0209999C000010335319N016093199-00061-00411999999ADDGD14991+0335399GE19MSL   +99999+99999GF199999999999033531999999MA1101861999999REMMET076METAR KLMO 010615Z AUTO 00000KT 10SM OVC110 M01/M04 A3008 RMK AO2 T10061041=
0187720538001642021010106354+40167-105167FM-15+154199999V0209999C000010167619N016093199-00051-00371999999ADDGD13991+0167619GD24991+0335319GE19MSL   +99999+99999GF199999999999016761999999MA1101861999999REMMET082METAR KLMO 010635Z AUTO 00000KT 10SM BKN055 OVC110 00/M04 A3008 RMK AO2 T10051037=
0187720538001642021010106554+40167-105167FM-15+154199999V0209999C000010167619N016093199-00021-00371999999ADDGD13991+0167619GD24991+0365819GE19MSL   +99999+99999GF199999999999016761999999MA1101901999999REMMET082METAR KLMO 010655Z AUTO 00000KT 10SM BKN055 OVC120 00/M04 A3009 RMK AO2 T10021037=
0231720538001642021010107157+40167-105167FM-15+1541KLMO V0209999C00005033535MN0160935N5-00055-00405999999ADDGA1045+016765999GA2085+033535999GD12991+0167659GD24991+0335359GE19MSL   +99999+99999GF199999999999016761999999MA1101865084585REMMET09401/01/21 00:15:02 METAR KLMO 010715Z 00000KT 10SM SCT055 OVC110 00/M04 A3008 RMK AO2 T10051040
0232720538001642021010107357+40167-105167FM-15+1541KLMO V0209999C00005033535MN0160935N5-00115-00435999999ADDGA1045+016765999GA2085+033535999GD12991+0167659GD24991+0335359GE19MSL   +99999+99999GF199999999999016761999999MA1101905084615REMMET09501/01/21 00:35:02 METAR KLMO 010735Z 00000KT 10SM SCT055 OVC110 M01/M04 A3009 RMK AO2 T10111043
0194720538001642021010107557+40167-105167FM-15+1541KLMO V0209999C00005033535MN0160935N5-00065-00415999999ADDGA1085+033535999GD14991+0335359GE19MSL   +99999+99999GF199999999999033531999999MA1101865084585REMMET08801/01/21 00:55:02 METAR KLMO 010755Z 00000KT 10SM OVC110 M01/M04 A3008 RMK AO2 T10061041
0194720538001642021010108157+40167-105167FM-15+1541KLMO V0209999C00005033535MN0160935N5-00085-00465999999ADDGA1085+033535999GD14991+0335359GE19MSL   +99999+99999GF199999999999033531999999MA1101865084585REMMET08801/01/21 01:15:02 METAR KLMO 010815Z 00000KT 10SM OVC110 M01/M05 A3008 RMK AO2 T10081046
0194720538001642021010108357+40167-105167FM-15+1541KLMO V0202805N00215033535MN0160935N5-00135-00475999999ADDGA1085+033535999GD14991+0335359GE19MSL   +99999+99999GF199999999999033531999999MA1101865084585REMMET08801/01/21 01:35:02 METAR KLMO 010835Z 28004KT 10SM OVC110 M01/M05 A3008 RMK AO2 T10131047
0194720538001642021010108557+40167-105167FM-15+1541KLMO V0209999C00005033535MN0160935N5-00105-00475999999ADDGA1085+033535999GD14991+0335359GE19MSL   +99999+99999GF199999999999033531999999MA1101905084615REMMET08801/01/21 01:55:02 METAR KLMO 010855Z 00000KT 10SM OVC110 M01/M05 A3009 RMK AO2 T10101047
0194720538001642021010109157+40167-105167FM-15+1541KLMO V0202605N00155033535MN0160935N5-00135-00505999999ADDGA1085+033535999GD14991+0335359GE19MSL   +99999+99999GF199999999999033531999999MA1101905084615REMMET08801/01/21 02:15:02 METAR KLMO 010915Z 26003KT 10SM OVC110 M01/M05 A3009 RMK AO2 T10131050
0194720538001642021010109357+40167-105167FM-15+1541KLMO V0202505N00265033535MN0160935N5-00065-00515999999ADDGA1085+033535999GD14991+0335359GE19MSL   +99999+99999GF199999999999033531999999MA1101905084615REMMET08801/01/21 02:35:02 METAR KLMO 010935Z 25005KT 10SM OVC110 M01/M05 A3009 RMK AO2 T10061051
0194720538001642021010109557+40167-105167FM-15+1541KLMO V0209999C00005036585MN0160935N5-00115-00525999999ADDGA1085+036585999GD14991+0365859GE19MSL   +99999+99999GF199999999999036581999999MA1101905084615REMMET08801/01/21 02:55:02 METAR KLMO 010955Z 00000KT 10SM OVC120 M01/M05 A3009 RMK AO2 T10111052
0194720538001642021010110157+40167-105167FM-15+1541KLMO V0209999C00005033535MN0160935N5-00175-00555999999ADDGA1085+033535999GD14991+0335359GE19MSL   +99999+99999GF199999999999033531999999MA1101905084615REMMET08801/01/21 03:15:02 METAR KLMO 011015Z 00000KT 10SM OVC110 M02/M05 A3009 RMK AO2 T10171055
0194720538001642021010110357+40167-105167FM-15+1541KLMO V0209999C00005033535MN0160935N5-00205-00575999999ADDGA1085+033535999GD14991+0335359GE19MSL   +99999+99999GF199999999999033531999999MA1101905084615REMMET08801/01/21 03:35:02 METAR KLMO 011035Z 00000KT 10SM OVC110 M02/M06 A3009 RMK AO2 T10201057
0213720538001642021010110557+40167-105167FM-15+1541KLMO V0209999C000052200059N0160935N5-00295-00615999999ADDGA1045+033535999GD12991+0335359GE19AGL   +99999+99999GF104995999999033531999999MA1101905084615REMMET08801/01/21 03:55:02 METAR KLMO 011055Z 00000KT 10SM SCT110 M03/M06 A3009 RMK AO2 T10291061EQDD01      0ADE726
0169720538001642021010111157+40167-105167FM-15+1541KLMO V0209999C000052200059N0160935N5-00305-00635999999ADDGA1005+999999999GD10991+9999999GF100991999999999999999999MA1101905084615REMMET08501/01/21 04:15:02 METAR KLMO 011115Z 00000KT 10SM CLR M03/M06 A3009 RMK AO2 T10301063
0169720538001642021010111357+40167-105167FM-15+1541KLMO V0203005N002152200059N0160935N5-00285-00685999999ADDGA1005+999999999GD10991+9999999GF100991999999999999999999MA1101935084645REMMET08501/01/21 04:35:02 METAR KLMO 011135Z 30004KT 10SM CLR M03/M07 A3010 RMK AO2 T10281068
0194720538001642021010111557+40167-105167FM-15+1541KLMO V0209999C00005033535MN0160935N5-00345-00795999999ADDGA1075+033535999GD13991+0335359GE19MSL   +99999+99999GF199999999999033531999999MA1101935084645REMMET08801/01/21 04:55:02 METAR KLMO 011155Z 00000KT 10SM BKN110 M03/M08 A3010 RMK AO2 T10341079
0213720538001642021010112157+40167-105167FM-15+1541KLMO V0203005N002152200059N0160935N5-00215-00755999999ADDGA1045+033535999GD12991+0335359GE19AGL   +99999+99999GF104995999999033531999999MA1101965084675REMMET08801/01/21 05:15:02 METAR KLMO 011215Z 30004KT 10SM SCT110 M02/M07 A3011 RMK AO2 T10211075EQDD01      0ADE726
0169720538001642021010112357+40167-105167FM-15+1541KLMO V0203005N001552200059N0160935N5-00355-00845999999ADDGA1005+999999999GD10991+9999999GF100991999999999999999999MA1101965084675REMMET08501/01/21 05:35:02 METAR KLMO 011235Z 30003KT 10SM CLR M03/M08 A3011 RMK AO2 T10351084
0213720538001642021010112557+40167-105167FM-15+1541KLMO V0202805N001552200059N0160935N5-00365-00825999999ADDGA1045+033535999GD12991+0335359GE19AGL   +99999+99999GF104995999999033531999999MA1102005084705REMMET08801/01/21 05:55:02 METAR KLMO 011255Z 28003KT 10SM SCT110 M04/M08 A3012 RMK AO2 T10361082EQDD01      0ADE726
0194720538001642021010113157+40167-105167FM-15+1541KLMO V0202605N00215033535MN0160935N5-00285-00785999999ADDGA1075+033535999GD13991+0335359GE19MSL   +99999+99999GF199999999999033531999999MA1102035084735REMMET08801/01/21 06:15:02 METAR KLMO 011315Z 26004KT 10SM BKN110 M03/M08 A3013 RMK AO2 T10281078
0194720538001642021010113357+40167-105167FM-15+1541KLMO V0202705N00155033535MN0160935N5-00325-00805999999ADDGA1085+033535999GD14991+0335359GE19MSL   +99999+99999GF199999999999033531999999MA1102035084735REMMET08801/01/21 06:35:02 METAR KLMO 011335Z 27003KT 10SM OVC110 M03/M08 A3013 RMK AO2 T10321080
0194720538001642021010113557+40167-105167FM-15+1541KLMO V0202405N00215033535MN0160935N5-00315-00805999999ADDGA1085+033535999GD14991+0335359GE19MSL   +99999+99999GF199999999999033531999999MA1102035084735REMMET08801/01/21 06:55:02 METAR KLMO 011355Z 24004KT 10SM OVC110 M03/M08 A3013 RMK AO2 T10311080
0194720538001642021010114157+40167-105167FM-15+1541KLMO V0202505N00215033535MN0160935N5-00305-00775999999ADDGA1075+033535999GD13991+0335359GE19MSL   +99999+99999GF199999999999033531999999MA1102075084765REMMET08801/01/21 07:15:02 METAR KLMO 011415Z 25004KT 10SM BKN110 M03/M08 A3014 RMK AO2 T10301077
0232720538001642021010114357+40167-105167FM-15+1541KLMO V0202405N00215016765MN0160935N5-00275-00765999999ADDGA1075+016765999GA2085+033535999GD13991+0167659GD24991+0335359GE19MSL   +99999+99999GF199999999999016761999999MA1102105084795REMMET09501/01/21 07:35:02 METAR KLMO 011435Z 24004KT 10SM BKN055 OVC110 M03/M08 A3015 RMK AO2 T10271076
0194720538001642021010114557+40167-105167FM-15+1541KLMO V0202305N00215016765MN0160935N5-00245-00695999999ADDGA1085+016765999GD14991+0167659GE19MSL   +99999+99999GF199999999999016761999999MA1102135084825REMMET08801/01/21 07:55:02 METAR KLMO 011455Z 23004KT 10SM OVC055 M02/M07 A3016 RMK AO2 T10241069
0194720538001642021010115157+40167-105167FM-15+1541KLMO V0202505N00215016765MN0160935N5-00205-00615999999ADDGA1085+016765999GD14991+0167659GE19MSL   +99999+99999GF199999999999016761999999MA1102175084855REMMET08801/01/21 08:15:02 METAR KLMO 011515Z 25004KT 10SM OVC055 M02/M06 A3017 RMK AO2 T10201061
0194720538001642021010115357+40167-105167FM-15+1541KLMO V0202405N00155016765MN0160935N5-00155-00565999999ADDGA1085+016765999GD14991+0167659GE19MSL   +99999+99999GF199999999999016761999999MA1102205084875REMMET08801/01/21 08:35:02 METAR KLMO 011535Z 24003KT 10SM OVC055 M01/M06 A3018 RMK AO2 T10151056
0194720538001642021010115557+40167-105167FM-15+1541KLMO V0202205N00155015245MN0160935N5-00095-00525999999ADDGA1085+015245999GD14991+0152459GE19MSL   +99999+99999GF199999999999015241999999MA1102245084905REMMET08801/01/21 08:55:02 METAR KLMO 011555Z 22003KT 10SM OVC050 M01/M05 A3019 RMK AO2 T10091052
0193720538001642021010116157+40167-105167FM-15+1541KLMO V0209999C00005018295MN0160935N5-00025-00515999999ADDGA1085+018295999GD14991+0182959GE19MSL   +99999+99999GF199999999999018291999999MA1102245084905REMMET08701/01/21 09:15:02 METAR KLMO 011615Z 00000KT 10SM OVC060 00/M05 A3019 RMK AO2 T10021051
0193720538001642021010116357+40167-105167FM-15+1541KLMO V0209999C00005018295MN0160935N5+00025-00505999999ADDGA1085+018295999GD14991+0182959GE19MSL   +99999+99999GF199999999999018291999999MA1102275084935REMMET08701/01/21 09:35:02 METAR KLMO 011635Z 00000KT 10SM OVC060 00/M05 A3020 RMK AO2 T00021050
0193720538001642021010116557+40167-105167FM-15+1541KLMO V0209999C00005018295MN0160935N5+00105-00515999999ADDGA1085+018295999GD14991+0182959GE19MSL   +99999+99999GF199999999999018291999999MA1102275084935REMMET08701/01/21 09:55:02 METAR KLMO 011655Z 00000KT 10SM OVC060 01/M05 A3020 RMK AO2 T00101051
0193720538001642021010117157+40167-105167FM-15+1541KLMO V0209999C00005018295MN0160935N5+00175-00515999999ADDGA1085+018295999GD14991+0182959GE19MSL   +99999+99999GF199999999999018291999999MA1102245084905REMMET08701/01/21 10:15:02 METAR KLMO 011715Z 00000KT 10SM OVC060 02/M05 A3019 RMK AO2 T00171051
0193720538001642021010117357+40167-105167FM-15+1541KLMO V0209999C00005018295MN0160935N5+00265-00465999999ADDGA1085+018295999GD14991+0182959GE19MSL   +99999+99999GF199999999999018291999999MA1102205084875REMMET08701/01/21 10:35:02 METAR KLMO 011735Z 00000KT 10SM OVC060 03/M05 A3018 RMK AO2 T00261046
0193720538001642021010117557+40167-105167FM-15+1541KLMO V0209999C00005018295MN0160935N5+00385-00505999999ADDGA1085+018295999GD14991+0182959GE19MSL   +99999+99999GF199999999999018291999999MA1102175084855REMMET08701/01/21 10:55:02 METAR KLMO 011755Z 00000KT 10SM OVC060 04/M05 A3017 RMK AO2 T00381050
0193720538001642021010118157+40167-105167FM-15+1541KLMO V0202105N00215018295MN0160935N5+00495-00575999999ADDGA1085+018295999GD14991+0182959GE19MSL   +99999+99999GF199999999999018291999999MA1102135084825REMMET08701/01/21 11:15:02 METAR KLMO 011815Z 21004KT 10SM OVC060 05/M06 A3016 RMK AO2 T00491057
0193720538001642021010118357+40167-105167FM-15+1541KLMO V0201905N00155018295MN0160935N5+00545-00655999999ADDGA1085+018295999GD14991+0182959GE19MSL   +99999+99999GF199999999999018291999999MA1102075084765REMMET08701/01/21 11:35:02 METAR KLMO 011835Z 19003KT 10SM OVC060 05/M06 A3014 RMK AO2 T00541065
0193720538001642021010118557+40167-105167FM-15+1541KLMO V0209999C00005018295MN0160935N5+00635-00695999999ADDGA1085+018295999GD14991+0182959GE19MSL   +99999+99999GF199999999999018291999999MA1102005084705REMMET08701/01/21 11:55:02 METAR KLMO 011855Z 00000KT 10SM OVC060 06/M07 A3012 RMK AO2 T00631069
0212720538001642021010119157+40167-105167FM-15+1541KLMO V0209999C000052200059N0160935N5+00655-00695999999ADDGA1045+018295999GD12991+0182959GE19AGL   +99999+99999GF104995999999018291999999MA1101965084675REMMET08701/01/21 12:15:02 METAR KLMO 011915Z 00000KT 10SM SCT060 07/M07 A3011 RMK AO2 T00651069EQDD01      0ADE726
0168720538001642021010119357+40167-105167FM-15+1541KLMO V0201105N001552200059N0160935N5+00695-00655999999ADDGA1005+999999999GD10991+9999999GF100991999999999999999999MA1101965084675REMMET08401/01/21 12:35:02 METAR KLMO 011935Z 11003KT 10SM CLR 07/M06 A3011 RMK AO2 T00691065
0168720538001642021010119557+40167-105167FM-15+1541KLMO V0200805N002652200059N0160935N5+00725-00615999999ADDGA1005+999999999GD10991+9999999GF100991999999999999999999MA1101935084645REMMET08401/01/21 12:55:02 METAR KLMO 011955Z 08005KT 10SM CLR 07/M06 A3010 RMK AO2 T00721061
0168720538001642021010120157+40167-105167FM-15+1541KLMO V0201205N002152200059N0160935N5+00705-00635999999ADDGA1005+999999999GD10991+9999999GF100991999999999999999999MA1101935084645REMMET08401/01/21 13:15:02 METAR KLMO 012015Z 12004KT 10SM CLR 07/M06 A3010 RMK AO2 T00701063
0168720538001642021010120357+40167-105167FM-15+1541KLMO V0201405N002652200059N0160935N5+00675-00665999999ADDGA1005+999999999GD10991+9999999GF100991999999999999999999MA1101905084615REMMET08401/01/21 13:35:02 METAR KLMO 012035Z 14005KT 10SM CLR 07/M07 A3009 RMK AO2 T00671066
0168720538001642021010120557+40167-105167FM-15+1541KLMO V0201705N003152200059N0160935N5+00705-00655999999ADDGA1005+999999999GD10991+9999999GF100991999999999999999999MA1101905084615REMMET08401/01/21 13:55:02 METAR KLMO 012055Z 17006KT 10SM CLR 07/M06 A3009 RMK AO2 T00701065
0168720538001642021010121157+40167-105167FM-15+1541KLMO V0201405N002152200059N0160935N5+00715-00655999999ADDGA1005+999999999GD10991+9999999GF100991999999999999999999MA1101865084585REMMET08401/01/21 14:15:02 METAR KLMO 012115Z 14004KT 10SM CLR 07/M06 A3008 RMK AO2 T00711065
0168720538001642021010121357+40167-105167FM-15+1541KLMO V0201505N002152200059N0160935N5+00715-00635999999ADDGA1005+999999999GD10991+9999999GF100991999999999999999999MA1101905084615REMMET08401/01/21 14:35:02 METAR KLMO 012135Z 15004KT 10SM CLR 07/M06 A3009 RMK AO2 T00711063
0168720538001642021010121557+40167-105167FM-15+1541KLMO V0201105N002652200059N0160935N5+00705-00585999999ADDGA1005+999999999GD10991+9999999GF100991999999999999999999MA1101905084615REMMET08401/01/21 14:55:02 METAR KLMO 012155Z 11005KT 10SM CLR 07/M06 A3009 RMK AO2 T00701058
0168720538001642021010122157+40167-105167FM-15+1541KLMO V0201305N002652200059N0160935N5+00695-00625999999ADDGA1005+999999999GD10991+9999999GF100991999999999999999999MA1101935084645REMMET08401/01/21 15:15:02 METAR KLMO 012215Z 13005KT 10SM CLR 07/M06 A3010 RMK AO2 T00691062
0168720538001642021010122357+40167-105167FM-15+1541KLMO V0201305N002652200059N0160935N5+00675-00635999999ADDGA1005+999999999GD10991+9999999GF100991999999999999999999MA1101935084645REMMET08401/01/21 15:35:02 METAR KLMO 012235Z 13005KT 10SM CLR 07/M06 A3010 RMK AO2 T00671063
0168720538001642021010122557+40167-105167FM-15+1541KLMO V0200905N002652200059N0160935N5+00645-00585999999ADDGA1005+999999999GD10991+9999999GF100991999999999999999999MA1101935084645REMMET08401/01/21 15:55:02 METAR KLMO 012255Z 09005KT 10SM CLR 06/M06 A3010 RMK AO2 T00641058
0168720538001642021010123157+40167-105167FM-15+1541KLMO V0200805N003152200059N0160935N5+00515-00505999999ADDGA1005+999999999GD10991+9999999GF100991999999999999999999MA1101965084675REMMET08401/01/21 16:15:02 METAR KLMO 012315Z 08006KT 10SM CLR 05/M05 A3011 RMK AO2 T00511050
0168720538001642021010123357+40167-105167FM-15+1541KLMO V0201005N002652200059N0160935N5+00355-00515999999ADDGA1005+999999999GD10991+9999999GF100991999999999999999999MA1101965084675REMMET08401/01/21 16:35:02 METAR KLMO 012335Z 10005KT 10SM CLR 04/M05 A3011 RMK AO2 T00351051
0168720538001642021010123557+40167-105167FM-15+1541KLMO V0200805N002652200059N0160935N5+00275-00505999999ADDGA1005+999999999GD10991+9999999GF100991999999999999999999MA1101965084675REMMET08401/01/21 16:55:02 METAR KLMO 012355Z 08005KT 10SM CLR 03/M05 A3011 RMK AO2 T00271050
0168720538001642021010200157+40167-105167FM-15+1541KLMO V0200505N002152200059N0160935N5+00215-00475999999ADDGA1005+999999999GD10991+9999999GF100991999999999999999999MA1102005084705REMMET08401/01/21 17:15:01 METAR KLMO 020015Z 05004KT 10SM CLR 02/M05 A3012 RMK AO2 T00211047
0168720538001642021010200357+40167-105167FM-15+1541KLMO V0203205N001552200059N0160935N5+00165-00485999999ADDGA1005+999999999GD10991+9999999GF100991999999999999999999MA1102005084705REMMET08401/01/21 17:35:01 METAR KLMO 020035Z 32003KT 10SM CLR 02/M05 A3012 RMK AO2 T00161048
0168720538001642021010200557+40167-105167FM-15+1541KLMO V0203105N002152200059N0160935N5-00055-00505999999ADDGA1005+999999999GD10991+9999999GF100991999999999999999999MA1102035084735REMMET08401/01/21 17:55:01 METAR KLMO 020055Z 31004KT 10SM CLR 00/M05 A3013 RMK AO2 T10051050
0169720538001642021010201157+40167-105167FM-15+1541KLMO V0203105N002152200059N0160935N5-00115-00515999999ADDGA1005+999999999GD10991+9999999GF100991999999999999999999MA1102035084735REMMET08501/01/21 18:15:01 METAR KLMO 020115Z 31004KT 10SM CLR M01/M05 A3013 RMK AO2 T10111051
0169720538001642021010201357+40167-105167FM-15+1541KLMO V0203105N002652200059N0160935N5-00175-00555999999ADDGA1005+999999999GD10991+9999999GF100991999999999999999999MA1102035084735REMMET08501/01/21 18:35:01 METAR KLMO 020135Z 31005KT 10SM CLR M02/M05 A3013 RMK AO2 T10171055
0169720538001642021010201557+40167-105167FM-15+1541KLMO V0202905N002152200059N0160935N5-00145-00515999999ADDGA1005+999999999GD10991+9999999GF100991999999999999999999MA1102035084735REMMET08501/01/21 18:55:01 METAR KLMO 020155Z 29004KT 10SM CLR M01/M05 A3013 RMK AO2 T10141051
0169720538001642021010202157+40167-105167FM-15+1541KLMO V0202905N002652200059N0160935N5-00205-00555999999ADDGA1005+999999999GD10991+9999999GF100991999999999999999999MA1102035084735REMMET08501/01/21 19:15:01 METAR KLMO 020215Z 29005KT 10SM CLR M02/M05 A3013 RMK AO2 T10201055
0169720538001642021010202357+40167-105167FM-15+1541KLMO V0202905N003152200059N0160935N5-00235-00585999999ADDGA1005+999999999GD10991+9999999GF100991999999999999999999MA1102035084735REMMET08501/01/21 19:35:01 METAR KLMO 020235Z 29006KT 10SM CLR M02/M06 A3013 RMK AO2 T10231058
0169720538001642021010202557+40167-105167FM-15+1541KLMO V0202805N002652200059N0160935N5-00225-00575999999ADDGA1005+999999999GD10991+9999999GF100991999999999999999999MA1102035084735REMMET08501/01/21 19:55:01 METAR KLMO 020255Z 28005KT 10SM CLR M02/M06 A3013 RMK AO2 T10221057
0169720538001642021010203157+40167-105167FM-15+1541KLMO V0202805N002652200059N0160935N5-00245-00605999999ADDGA1005+999999999GD10991+9999999GF100991999999999999999999MA1102005084705REMMET08501/01/21 20:15:01 METAR KLMO 020315Z 28005KT 10SM CLR M02/M06 A3012 RMK AO2 T10241060
0169720538001642021010203357+40167-105167FM-15+1541KLMO V0202805N002652200059N0160935N5-00235-00605999999ADDGA1005+999999999GD10991+9999999GF100991999999999999999999MA1101965084675REMMET08501/01/21 20:35:01 METAR KLMO 020335Z 28005KT 10SM CLR M02/M06 A3011 RMK AO2 T10231060
0169720538001642021010203557+40167-105167FM-15+1541KLMO V0202605N002152200059N0160935N5-00265-00615999999ADDGA1005+999999999GD10991+9999999GF100991999999999999999999MA1101965084675REMMET08501/01/21 20:55:01 METAR KLMO 020355Z 26004KT 10SM CLR M03/M06 A3011 RMK AO2 T10261061
0169720538001642021010204157+40167-105167FM-15+1541KLMO V0202605N002152200059N0160935N5-00255-00635999999ADDGA1005+999999999GD10991+9999999GF100991999999999999999999MA1101965084675REMMET08501/01/21 21:15:02 METAR KLMO 020415Z 26004KT 10SM CLR M02/M06 A3011 RMK AO2 T10251063
0169720538001642021010204357+40167-105167FM-15+1541KLMO V0202605N002152200059N0160935N5-00295-00655999999ADDGA1005+999999999GD10991+9999999GF100991999999999999999999MA1101935084645REMMET08501/01/21 21:35:02 METAR KLMO 020435Z 26004KT 10SM CLR M03/M06 A3010 RMK AO2 T10291065
0169720538001642021010204557+40167-105167FM-15+1541KLMO V0202605N002152200059N0160935N5-00295-00625999999ADDGA1005+999999999GD10991+9999999GF100991999999999999999999MA1101935084645REMMET08501/01/21 21:55:02 METAR KLMO 020455Z 26004KT 10SM CLR M03/M06 A3010 RMK AO2 T10291062
0169720538001642021010205157+40167-105167FM-15+1541KLMO V0202705N002152200059N0160935N5-00215-00635999999ADDGA1005+999999999GD10991+9999999GF100991999999999999999999MA1101905084615REMMET08501/01/21 22:15:02 METAR KLMO 020515Z 27004KT 10SM CLR M02/M06 A3009 RMK AO2 T10211063
0169720538001642021010205357+40167-105167FM-15+1541KLMO V0209999C000052200059N0160935N5-00255-00665999999ADDGA1005+999999999GD10991+9999999GF100991999999999999999999MA1101865084585REMMET08501/01/21 22:35:02 METAR KLMO 020535Z 00000KT 10SM CLR M02/M07 A3008 RMK AO2 T10251066
0169720538001642021010205557+40167-105167FM-15+1541KLMO V0202805N001552200059N0160935N5-00395-00745999999ADDGA1005+999999999GD10991+9999999GF100991999999999999999999MA1101865084585REMMET08501/01/21 22:55:02 METAR KLMO 020555Z 28003KT 10SM CLR M04/M07 A3008 RMK AO2 T10391074
0169720538001642021010206157+40167-105167FM-15+1541KLMO V0202605N001552200059N0160935N5-00475-00805999999ADDGA1005+999999999GD10991+9999999GF100991999999999999999999MA1101835084555REMMET08501/01/21 23:15:02 METAR KLMO 020615Z 26003KT 10SM CLR M05/M08 A3007 RMK AO2 T10471080
0169720538001642021010206357+40167-105167FM-15+1541KLMO V0202705N002152200059N0160935N5-00405-00755999999ADDGA1005+999999999GD10991+9999999GF100991999999999999999999MA1101835084555REMMET08501/01/21 23:35:02 METAR KLMO 020635Z 27004KT 10SM CLR M04/M07 A3007 RMK AO2 T10401075
0169720538001642021010206557+40167-105167FM-15+1541KLMO V0202705N001552200059N0160935N5-00445-00775999999ADDGA1005+999999999GD10991+9999999GF100991999999999999999999MA1101795084535REMMET08501/01/21 23:55:02 METAR KLMO 020655Z 27003KT 10SM CLR M04/M08 A3006 RMK AO2 T10441077
0169720538001642021010207157+40167-105167FM-15+1541KLMO V0209999C000052200059N0160935N5-00405-00755999999ADDGA1005+999999999GD10991+9999999GF100991999999999999999999MA1101795084535REMMET08501/02/21 00:15:02 METAR KLMO 020715Z 00000KT 10SM CLR M04/M07 A3006 RMK AO2 T10401075
0169720538001642021010207357+40167-105167FM-15+1541KLMO V0209999C000052200059N0160935N5-00535-00875999999ADDGA1005+999999999GD10991+9999999GF100991999999999999999999MA1101765084505REMMET08501/02/21 00:35:02 METAR KLMO 020735Z 00000KT 10SM CLR M05/M09 A3005 RMK AO2 T10531087
0169720538001642021010207557+40167-105167FM-15+1541KLMO V0202705N002152200059N0160935N5-00515-00845999999ADDGA1005+999999999GD10991+9999999GF100991999999999999999999MA1101735084475REMMET08501/02/21 00:55:02 METAR KLMO 020755Z 27004KT 10SM CLR M05/M08 A3004 RMK AO2 T10511084
0169720538001642021010208157+40167-105167FM-15+1541KLMO V0209999C000052200059N0160935N5-00675-01015999999ADDGA1005+999999999GD10991+9999999GF100991999999999999999999MA1101695084445REMMET08501/02/21 01:15:02 METAR KLMO 020815Z 00000KT 10SM CLR M07/M10 A3003 RMK AO2 T10671101
0169720538001642021010208357+40167-105167FM-15+1541KLMO V0209999C000052200059N0160935N5-00635-00935999999ADDGA1005+999999999GD10991+9999999GF100991999999999999999999MA1101695084445REMMET08501/02/21 01:35:02 METAR KLMO 020835Z 00000KT 10SM CLR M06/M09 A3003 RMK AO2 T10631093
0169720538001642021010208557+40167-105167FM-15+1541KLMO V0209999C000052200059N0160935N5-00655-00945999999ADDGA1005+999999999GD10991+9999999GF100991999999999999999999MA1101665084415REMMET08501/02/21 01:55:02 METAR KLMO 020855Z 00000KT 10SM CLR M06/M09 A3002 RMK AO2 T10651094
0169720538001642021010209157+40167-105167FM-15+1541KLMO V0209999C000052200059N0160935N5-00625-00905999999ADDGA1005+999999999GD10991+9999999GF100991999999999999999999MA1101665084415REMMET08501/02/21 02:15:02 METAR KLMO 020915Z 00000KT 10SM CLR M06/M09 A3002 RMK AO2 T10621090
0169720538001642021010209357+40167-105167FM-15+1541KLMO V0209999C000052200059N0160935N5-00785-01085999999ADDGA1005+999999999GD10991+9999999GF100991999999999999999999MA1101665084415REMMET08501/02/21 02:35:02 METAR KLMO 020935Z 00000KT 10SM CLR M08/M11 A3002 RMK AO2 T10781108
0169720538001642021010209557+40167-105167FM-15+1541KLMO V0203105N001552200059N0160935N5-00825-01115999999ADDGA1005+999999999GD10991+9999999GF100991999999999999999999MA1101665084415REMMET08501/02/21 02:55:02 METAR KLMO 020955Z 31003KT 10SM CLR M08/M11 A3002 RMK AO2 T10821111
0169720538001642021010210157+40167-105167FM-15+1541KLMO V0202705N001552200059N0160935N5-00715-00965999999ADDGA1005+999999999GD10991+9999999GF100991999999999999999999MA1101635084385REMMET08501/02/21 03:15:02 METAR KLMO 021015Z 27003KT 10SM CLR M07/M10 A3001 RMK AO2 T10711096
0169720538001642021010210357+40167-105167FM-15+1541KLMO V0202705N001552200059N0160935N5-00755-01005999999ADDGA1005+999999999GD10991+9999999GF100991999999999999999999MA1101595084355REMMET08501/02/21 03:35:02 METAR KLMO 021035Z 27003KT 10SM CLR M07/M10 A3000 RMK AO2 T10751100
0169720538001642021010210557+40167-105167FM-15+1541KLMO V0202905N001552200059N0160935N5-00835-01075999999ADDGA1005+999999999GD10991+9999999GF100991999999999999999999MA1101595084355REMMET08501/02/21 03:55:02 METAR KLMO 021055Z 29003KT 10SM CLR M08/M11 A3000 RMK AO2 T10831107
0169720538001642021010211157+40167-105167FM-15+1541KLMO V0202605N001552200059N0160935N5-00805-01065999999ADDGA1005+999999999GD10991+9999999GF100991999999999999999999MA1101565084325REMMET08501/02/21 04:15:02 METAR KLMO 021115Z 26003KT 10SM CLR M08/M11 A2999 RMK AO2 T10801106
0169720538001642021010211357+40167-105167FM-15+1541KLMO V0202805N002652200059N0160935N5-00815-01055999999ADDGA1005+999999999GD10991+9999999GF100991999999999999999999MA1101565084325REMMET08501/02/21 04:35:02 METAR KLMO 021135Z 28005KT 10SM CLR M08/M10 A2999 RMK AO2 T10811105
0169720538001642021010211557+40167-105167FM-15+1541KLMO V0202805N002152200059N0160935N5-00825-01095999999ADDGA1005+999999999GD10991+9999999GF100991999999999999999999MA1101525084295REMMET08501/02/21 04:55:02 METAR KLMO 021155Z 28004KT 10SM CLR M08/M11 A2998 RMK AO2 T10821109
0169720538001642021010212157+40167-105167FM-15+1541KLMO V0202705N001552200059N0160935N5-00845-01115999999ADDGA1005+999999999GD10991+9999999GF100991999999999999999999MA1101525084295REMMET08501/02/21 05:15:02 METAR KLMO 021215Z 27003KT 10SM CLR M08/M11 A2998 RMK AO2 T10841111
0169720538001642021010212357+40167-105167FM-15+1541KLMO V0202605N001552200059N0160935N5-00795-01055999999ADDGA1005+999999999GD10991+9999999GF100991999999999999999999MA1101525084295REMMET08501/02/21 05:35:02 METAR KLMO 021235Z 26003KT 10SM CLR M08/M10 A2998 RMK AO2 T10791105
0169720538001642021010212557+40167-105167FM-15+1541KLMO V0209999C000052200059N0160935N5-00905-01165999999ADDGA1005+999999999GD10991+9999999GF100991999999999999999999MA1101525084295REMMET08501/02/21 05:55:02 METAR KLMO 021255Z 00000KT 10SM CLR M09/M12 A2998 RMK AO2 T10901116
0169720538001642021010213157+40167-105167FM-15+1541KLMO V0209999C000052200059N0160935N5-00865-01105999999ADDGA1005+999999999GD10991+9999999GF100991999999999999999999MA1101525084295REMMET08501/02/21 06:15:02 METAR KLMO 021315Z 00000KT 10SM CLR M09/M11 A2998 RMK AO2 T10861110
0169720538001642021010213357+40167-105167FM-15+1541KLMO V0209999C000052200059N0160935N5-00865-01115999999ADDGA1005+999999999GD10991+9999999GF100991999999999999999999MA1101495084265REMMET08501/02/21 06:35:02 METAR KLMO 021335Z 00000KT 10SM CLR M09/M11 A2997 RMK AO2 T10861111
0169720538001642021010213557+40167-105167FM-15+1541KLMO V0209999C000052200059N0160935N5-00825-01065999999ADDGA1005+999999999GD10991+9999999GF100991999999999999999999MA1101495084265REMMET08501/02/21 06:55:02 METAR KLMO 021355Z 00000KT 10SM CLR M08/M11 A2997 RMK AO2 T10821106
0169720538001642021010214157+40167-105167FM-15+1541KLMO V0202805N001552200059N0160935N5-00825-01055999999ADDGA1005+999999999GD10991+9999999GF100991999999999999999999MA1101495084265REMMET08501/02/21 07:15:02 METAR KLMO 021415Z 28003KT 10SM CLR M08/M10 A2997 RMK AO2 T10821105
0169720538001642021010214357+40167-105167FM-15+1541KLMO V0202305N001552200059N0160935N5-00905-01165999999ADDGA1005+999999999GD10991+9999999GF100991999999999999999999MA1101495084265REMMET08501/02/21 07:35:02 METAR KLMO 021435Z 23003KT 10SM CLR M09/M12 A2997 RMK AO2 T10901116
0169720538001642021010214557+40167-105167FM-15+1541KLMO V0202305N001552200059N0160935N5-00905-01165999999ADDGA1005+999999999GD10991+9999999GF100991999999999999999999MA1101465084235REMMET08501/02/21 07:55:02 METAR KLMO 021455Z 23003KT 10SM CLR M09/M12 A2996 RMK AO2 T10901116
0169720538001642021010215157+40167-105167FM-15+1541KLMO V0209999C000052200059N0160935N5-00735-01005999999ADDGA1005+999999999GD10991+9999999GF100991999999999999999999MA1101465084235REMMET08501/02/21 08:15:02 METAR KLMO 021515Z 00000KT 10SM CLR M07/M10 A2996 RMK AO2 T10731100
0169720538001642021010215357+40167-105167FM-15+1541KLMO V0209999C000052200059N0160935N5-00575-00865999999ADDGA1005+999999999GD10991+9999999GF100991999999999999999999MA1101465084235REMMET08501/02/21 08:35:02 METAR KLMO 021535Z 00000KT 10SM CLR M06/M09 A2996 RMK AO2 T10571086
0169720538001642021010215557+40167-105167FM-15+1541KLMO V0209999C000052200059N0160935N5-00385-00685999999ADDGA1005+999999999GD10991+9999999GF100991999999999999999999MA1101465084235REMMET08501/02/21 08:55:02 METAR KLMO 021555Z 00000KT 10SM CLR M04/M07 A2996 RMK AO2 T10381068
0169720538001642021010216157+40167-105167FM-15+1541KLMO V0209999C000052200059N0160935N5-00245-00555999999ADDGA1005+999999999GD10991+9999999GF100991999999999999999999MA1101425084205REMMET08501/02/21 09:15:02 METAR KLMO 021615Z 00000KT 10SM CLR M02/M05 A2995 RMK AO2 T10241055
0169720538001642021010216357+40167-105167FM-15+1541KLMO V0209999C000052200059N0160935N5-00085-00485999999ADDGA1005+999999999GD10991+9999999GF100991999999999999999999MA1101395084185REMMET08501/02/21 09:35:02 METAR KLMO 021635Z 00000KT 10SM CLR M01/M05 A2994 RMK AO2 T10081048
0168720538001642021010216557+40167-105167FM-15+1541KLMO V0209999C000052200059N0160935N5+00045-00395999999ADDGA1005+999999999GD10991+9999999GF100991999999999999999999MA1101395084185REMMET08401/02/21 09:55:02 METAR KLMO 021655Z 00000KT 10SM CLR 00/M04 A2994 RMK AO2 T00041039
0168720538001642021010217157+40167-105167FM-15+1541KLMO V0209999C000052200059N0160935N5+00115-00425999999ADDGA1005+999999999GD10991+9999999GF100991999999999999999999MA1101355084155REMMET08401/02/21 10:15:02 METAR KLMO 021715Z 00000KT 10SM CLR 01/M04 A2993 RMK AO2 T00111042
0168720538001642021010217357+40167-105167FM-15+1541KLMO V0209999C000052200059N0160935N5+00175-00495999999ADDGA1005+999999999GD10991+9999999GF100991999999999999999999MA1101295084095REMMET08401/02/21 10:35:02 METAR KLMO 021735Z 00000KT 10SM CLR 02/M05 A2991 RMK AO2 T00171049
0168720538001642021010217557+40167-105167FM-15+1541KLMO V0209999C000052200059N0160935N5+00275-00465999999ADDGA1005+999999999GD10991+9999999GF100991999999999999999999MA1101255084065REMMET08401/02/21 10:55:02 METAR KLMO 021755Z 00000KT 10SM CLR 03/M05 A2990 RMK AO2 T00271046
0168720538001642021010218157+40167-105167FM-15+1541KLMO V0209999C000052200059N0160935N5+00355-00555999999ADDGA1005+999999999GD10991+9999999GF100991999999999999999999MA1101225084035REMMET08401/02/21 11:15:02 METAR KLMO 021815Z 00000KT 10SM CLR 04/M05 A2989 RMK AO2 T00351055
0168720538001642021010218357+40167-105167FM-15+1541KLMO V0209999C000052200059N0160935N5+00475-00555999999ADDGA1005+999999999GD10991+9999999GF100991999999999999999999MA1101195084005REMMET08401/02/21 11:35:02 METAR KLMO 021835Z 00000KT 10SM CLR 05/M05 A2988 RMK AO2 T00471055
0168720538001642021010218557+40167-105167FM-15+1541KLMO V0209999C000052200059N0160935N5+00595-00545999999ADDGA1005+999999999GD10991+9999999GF100991999999999999999999MA1101155083975REMMET08401/02/21 11:55:02 METAR KLMO 021855Z 00000KT 10SM CLR 06/M05 A2987 RMK AO2 T00591054
0168720538001642021010219157+40167-105167FM-15+1541KLMO V0209999C000052200059N0160935N5+00645-00585999999ADDGA1005+999999999GD10991+9999999GF100991999999999999999999MA1101085083915REMMET08401/02/21 12:15:02 METAR KLMO 021915Z 00000KT 10SM CLR 06/M06 A2985 RMK AO2 T00641058
0168720538001642021010219357+40167-105167FM-15+1541KLMO V0209999C000052200059N0160935N5+00715-00545999999ADDGA1005+999999999GD10991+9999999GF100991999999999999999999MA1101025083865REMMET08401/02/21 12:35:02 METAR KLMO 021935Z 00000KT 10SM CLR 07/M05 A2983 RMK AO2 T00711054
0168720538001642021010219557+40167-105167FM-15+1541KLMO V0200405N001552200059N0160935N5+00765-00515999999ADDGA1005+999999999GD10991+9999999GF100991999999999999999999MA1100985083835REMMET08401/02/21 12:55:02 METAR KLMO 021955Z 04003KT 10SM CLR 08/M05 A2982 RMK AO2 T00761051
0168720538001642021010220157+40167-105167FM-15+1541KLMO V0200505N001552200059N0160935N5+00775-00515999999ADDGA1005+999999999GD10991+9999999GF100991999999999999999999MA1100985083835REMMET08401/02/21 13:15:02 METAR KLMO 022015Z 05003KT 10SM CLR 08/M05 A2982 RMK AO2 T00771051
0168720538001642021010220357+40167-105167FM-15+1541KLMO V0201005N002152200059N0160935N5+00835-00505999999ADDGA1005+999999999GD10991+9999999GF100991999999999999999999MA1101025083865REMMET08401/02/21 13:35:02 METAR KLMO 022035Z 10004KT 10SM CLR 08/M05 A2983 RMK AO2 T00831050
0168720538001642021010220557+40167-105167FM-15+1541KLMO V0203505N003152200059N0160935N5+00815-00415999999ADDGA1005+999999999GD10991+9999999GF100991999999999999999999MA1101055083885REMMET08401/02/21 13:55:02 METAR KLMO 022055Z 35006KT 10SM CLR 08/M04 A2984 RMK AO2 T00811041
0168720538001642021010221157+40167-105167FM-15+1541KLMO V0203605N002152200059N0160935N5+00765-00465999999ADDGA1005+999999999GD10991+9999999GF100991999999999999999999MA1101085083915REMMET08401/02/21 14:15:02 METAR KLMO 022115Z 36004KT 10SM CLR 08/M05 A2985 RMK AO2 T00761046
0168720538001642021010221357+40167-105167FM-15+1541KLMO V0209999C000052200059N0160935N5+00565-00515999999ADDGA1005+999999999GD10991+9999999GF100991999999999999999999MA1101085083915REMMET08401/02/21 14:35:02 METAR KLMO 022135Z 00000KT 10SM CLR 06/M05 A2985 RMK AO2 T00561051
0168720538001642021010221557+40167-105167FM-15+1541KLMO V0209999C000052200059N0160935N5+00535-00525999999ADDGA1005+999999999GD10991+9999999GF100991999999999999999999MA1101195084005REMMET08401/02/21 14:55:02 METAR KLMO 022155Z 00000KT 10SM CLR 05/M05 A2988 RMK AO2 T00531052
0168720538001642021010222157+40167-105167FM-15+1541KLMO V0200505N002652200059N0160935N5+00455-00375999999ADDGA1005+999999999GD10991+9999999GF100991999999999999999999MA1101225084035REMMET08401/02/21 15:15:02 METAR KLMO 022215Z 05005KT 10SM CLR 05/M04 A2989 RMK AO2 T00451037
0168720538001642021010222357+40167-105167FM-15+1541KLMO V0200805N002152200059N0160935N5+00395-00435999999ADDGA1005+999999999GD10991+9999999GF100991999999999999999999MA1101225084035REMMET08401/02/21 15:35:02 METAR KLMO 022235Z 08004KT 10SM CLR 04/M04 A2989 RMK AO2 T00391043
0168720538001642021010222557+40167-105167FM-15+1541KLMO V0201405N002152200059N0160935N5+00385-00435999999ADDGA1005+999999999GD10991+9999999GF100991999999999999999999MA1101295084095REMMET08401/02/21 15:55:02 METAR KLMO 022255Z 14004KT 10SM CLR 04/M04 A2991 RMK AO2 T00381043
0168720538001642021010223157+40167-105167FM-15+1541KLMO V0200905N001552200059N0160935N5+00375-00435999999ADDGA1005+999999999GD10991+9999999GF100991999999999999999999MA1101295084095REMMET08401/02/21 16:15:02 METAR KLMO 022315Z 09003KT 10SM CLR 04/M04 A2991 RMK AO2 T00371043
0168720538001642021010223357+40167-105167FM-15+1541KLMO V0201705N002652200059N0160935N5+00405-00455999999ADDGA1005+999999999GD10991+9999999GF100991999999999999999999MA1101295084095REMMET08401/02/21 16:35:02 METAR KLMO 022335Z 17005KT 10SM CLR 04/M04 A2991 RMK AO2 T00401045
0168720538001642021010223557+40167-105167FM-15+1541KLMO V0201105N003152200059N0160935N5+00385-00485999999ADDGA1005+999999999GD10991+9999999GF100991999999999999999999MA1101255084065REMMET08401/02/21 16:55:02 METAR KLMO 022355Z 11006KT 10SM CLR 04/M05 A2990 RMK AO2 T00381048
0168720538001642021010300157+40167-105167FM-15+1541KLMO V0201105N002152200059N0160935N5+00375-00505999999ADDGA1005+999999999GD10991+9999999GF100991999999999999999999MA1101225084035REMMET08401/02/21 17:15:01 METAR KLMO 030015Z 11004KT 10SM CLR 04/M05 A2989 RMK AO2 T00371050
0168720538001642021010300357+40167-105167FM-15+1541KLMO V0202805N003152200059N0160935N5+00165-00455999999ADDGA1005+999999999GD10991+9999999GF100991999999999999999999MA1101295084095REMMET08401/02/21 17:35:01 METAR KLMO 030035Z 28006KT 10SM CLR 02/M04 A2991 RMK AO2 T00161045
0168720538001642021010300557+40167-105167FM-15+1541KLMO V0203005N002152200059N0160935N5+00265-00555999999ADDGA1005+999999999GD10991+9999999GF100991999999999999999999MA1101325084125REMMET08401/02/21 17:55:01 METAR KLMO 030055Z 30004KT 10SM CLR 03/M05 A2992 RMK AO2 T00261055
0168720538001642021010301157+40167-105167FM-15+1541KLMO V0202805N002652200059N0160935N5+00175-00575999999ADDGA1005+999999999GD10991+9999999GF100991999999999999999999MA1101355084155REMMET08401/02/21 18:15:01 METAR KLMO 030115Z 28005KT 10SM CLR 02/M06 A2993 RMK AO2 T00171057
0168720538001642021010301357+40167-105167FM-15+1541KLMO V0200905N003652200059N0160935N5+00315-00835999999ADDGA1005+999999999GD10991+9999999GF100991999999999999999999MA1101425084205REMMET08401/02/21 18:35:01 METAR KLMO 030135Z 09007KT 10SM CLR 03/M08 A2995 RMK AO2 T00311083
0168720538001642021010301557+40167-105167FM-15+1541KLMO V0202305N002652200059N0160935N5+00315-00835999999ADDGA1005+999999999GD10991+9999999GF100991999999999999999999MA1101495084265REMMET08401/02/21 18:55:01 METAR KLMO 030155Z 23005KT 10SM CLR 03/M08 A2997 RMK AO2 T00311083
0168720538001642021010302157+40167-105167FM-15+1541KLMO V0201505N002652200059N0160935N5+00275-01005999999ADDGA1005+999999999GD10991+9999999GF100991999999999999999999MA1101495084265REMMET08401/02/21 19:15:01 METAR KLMO 030215Z 15005KT 10SM CLR 03/M10 A2997 RMK AO2 T00271100
0168720538001642021010302357+40167-105167FM-15+1541KLMO V0200205N004152200059N0160935N5+00185-00905999999ADDGA1005+999999999GD10991+9999999GF100991999999999999999999MA1101495084265REMMET08401/02/21 19:35:01 METAR KLMO 030235Z 02008KT 10SM CLR 02/M09 A2997 RMK AO2 T00181090
0168720538001642021010302557+40167-105167FM-15+1541KLMO V0202805N004652200059N0160935N5+00355-01105999999ADDGA1005+999999999GD10991+9999999GF100991999999999999999999MA1101525084295REMMET08401/02/21 19:55:01 METAR KLMO 030255Z 28009KT 10SM CLR 04/M11 A2998 RMK AO2 T00351110
0168720538001642021010303157+40167-105167FM-15+1541KLMO V0202505N003652200059N0160935N5+00285-01055999999ADDGA1005+999999999GD10991+9999999GF100991999999999999999999MA1101465084235REMMET08401/02/21 20:15:01 METAR KLMO 030315Z 25007KT 10SM CLR 03/M10 A2996 RMK AO2 T00281105
0168720538001642021010303357+40167-105167FM-15+1541KLMO V0202405N004652200059N0160935N5+00375-01115999999ADDGA1005+999999999GD10991+9999999GF100991999999999999999999MA1101425084205REMMET08401/02/21 20:35:01 METAR KLMO 030335Z 24009KT 10SM CLR 04/M11 A2995 RMK AO2 T00371111
0168720538001642021010303557+40167-105167FM-15+1541KLMO V0202505N004652200059N0160935N5+00235-01115999999ADDGA1005+999999999GD10991+9999999GF100991999999999999999999MA1101355084155REMMET08401/02/21 20:55:01 METAR KLMO 030355Z 25009KT 10SM CLR 02/M11 A2993 RMK AO2 T00231111
0168720538001642021010304157+40167-105167FM-15+1541KLMO V0200505N002152200059N0160935N5+00405-01105999999ADDGA1005+999999999GD10991+9999999GF100991999999999999999999MA1101395084185REMMET08401/02/21 21:15:02 METAR KLMO 030415Z 05004KT 10SM CLR 04/M11 A2994 RMK AO2 T00401110
0168720538001642021010304357+40167-105167FM-15+1541KLMO V0209999C000052200059N0160935N5+00225-01095999999ADDGA1005+999999999GD10991+9999999GF100991999999999999999999MA1101395084185REMMET08401/02/21 21:35:02 METAR KLMO 030435Z 00000KT 10SM CLR 02/M11 A2994 RMK AO2 T00221109
0168720538001642021010304557+40167-105167FM-15+1541KLMO V0209999C000052200059N0160935N5+00035-01105999999ADDGA1005+999999999GD10991+9999999GF100991999999999999999999MA1101395084185REMMET08401/02/21 21:55:02 METAR KLMO 030455Z 00000KT 10SM CLR 00/M11 A2994 RMK AO2 T00031110
0168720538001642021010305157+40167-105167FM-15+1541KLMO V0209999C000052200059N0160935N5+00125-01095999999ADDGA1005+999999999GD10991+9999999GF100991999999999999999999MA1101395084185REMMET08401/02/21 22:15:02 METAR KLMO 030515Z 00000KT 10SM CLR 01/M11 A2994 RMK AO2 T00121109
0168720538001642021010305357+40167-105167FM-15+1541KLMO V0201005N002152200059N0160935N5+00185-01115999999ADDGA1005+999999999GD10991+9999999GF100991999999999999999999MA1101355084155REMMET08401/02/21 22:35:02 METAR KLMO 030535Z 10004KT 10SM CLR 02/M11 A2993 RMK AO2 T00181111
0198720538001642021010305557+40167-105167FM-15+1541KLMO V0202005V002652200059N0160935N5+00395-01235999999ADDGA1005+999999999GD10991+9999999GF100991999999999999999999MA1101355084155OC199999REMMET08701/02/21 22:55:02 METAR KLMO 030555Z 20005G08KT 10SM CLR 04/M12 A2993 RMK AO2 T00391123EQDR01 G08KT7OCW039
0179720538001642021010306157+40167-105167FM-15+1541KLMO V0202605N005752200059N0160935N5+00435-01215999999ADDGA1005+999999999GD10991+9999999GF100991999999999999999999MA1101325084125OC100725REMMET08701/02/21 23:15:02 METAR KLMO 030615Z 26011G14KT 10SM CLR 04/M12 A2992 RMK AO2 T00431121
0168720538001642021010306357+40167-105167FM-15+1541KLMO V0203005N002652200059N0160935N5+00465-01295999999ADDGA1005+999999999GD10991+9999999GF100991999999999999999999MA1101325084125REMMET08401/02/21 23:35:02 METAR KLMO 030635Z 30005KT 10SM CLR 05/M13 A2992 RMK AO2 T00461129
0168720538001642021010306557+40167-105167FM-15+1541KLMO V0200605N001552200059N0160935N5+00335-01305999999ADDGA1005+999999999GD10991+9999999GF100991999999999999999999MA1101295084095REMMET08401/02/21 23:55:02 METAR KLMO 030655Z 06003KT 10SM CLR 03/M13 A2991 RMK AO2 T00331130
0168720538001642021010307157+40167-105167FM-15+1541KLMO V0200805N002152200059N0160935N5+00005-01135999999ADDGA1005+999999999GD10991+9999999GF100991999999999999999999MA1101295084095REMMET08401/03/21 00:15:02 METAR KLMO 030715Z 08004KT 10SM CLR 00/M11 A2991 RMK AO2 T00001113
0168720538001642021010307357+40167-105167FM-15+1541KLMO V0200605N001552200059N0160935N5-00045-01135999999ADDGA1005+999999999GD10991+9999999GF100991999999999999999999MA1101295084095REMMET08401/03/21 00:35:02 METAR KLMO 030735Z 06003KT 10SM CLR 00/M11 A2991 RMK AO2 T10041113
0169720538001642021010307557+40167-105167FM-15+1541KLMO V0209999C000052200059N0160935N5-00155-01125999999ADDGA1005+999999999GD10991+9999999GF100991999999999999999999MA1101255084065REMMET08501/03/21 00:55:02 METAR KLMO 030755Z 00000KT 10SM CLR M01/M11 A2990 RMK AO2 T10151112
0169720538001642021010308157+40167-105167FM-15+1541KLMO V0209999C000052200059N0160935N5-00085-01115999999ADDGA1005+999999999GD10991+9999999GF100991999999999999999999MA1101255084065REMMET08501/03/21 01:15:02 METAR KLMO 030815Z 00000KT 10SM CLR M01/M11 A2990 RMK AO2 T10081111
0168720538001642021010308357+40167-105167FM-15+1541KLMO V0202805N002652200059N0160935N5+00065-01165999999ADDGA1005+999999999GD10991+9999999GF100991999999999999999999MA1101295084095REMMET08401/03/21 01:35:02 METAR KLMO 030835Z 28005KT 10SM CLR 01/M12 A2991 RMK AO2 T00061116
0179720538001642021010308557+40167-105167FM-15+1541KLMO V0202905N004652200059N0160935N5+00435-01305999999ADDGA1005+999999999GD10991+9999999GF100991999999999999999999MA1101225084035OC100825REMMET08701/03/21 01:55:02 METAR KLMO 030855Z 29009G16KT 10SM CLR 04/M13 A2989 RMK AO2 T00431130
0169720538001642021010309157+40167-105167FM-15+1541KLMO V0201105N003652200059N0160935N5-00065-01195999999ADDGA1005+999999999GD10991+9999999GF100991999999999999999999MA1101225084035REMMET08501/03/21 02:15:02 METAR KLMO 030915Z 11007KT 10SM CLR M01/M12 A2989 RMK AO2 T10061119
0168720538001642021010309357+40167-105167FM-15+1541KLMO V0201705N002152200059N0160935N5+00125-01285999999ADDGA1005+999999999GD10991+9999999GF100991999999999999999999MA1101225084035REMMET08401/03/21 02:35:02 METAR KLMO 030935Z 17004KT 10SM CLR 01/M13 A2989 RMK AO2 T00121128
0168720538001642021010309557+40167-105167FM-15+1541KLMO V0209999C000052200059N0160935N5+00245-01355999999ADDGA1005+999999999GD10991+9999999GF100991999999999999999999MA1101225084035REMMET08401/03/21 02:55:02 METAR KLMO 030955Z 00000KT 10SM CLR 02/M13 A2989 RMK AO2 T00241135
0168720538001642021010310157+40167-105167FM-15+1541KLMO V0202205N001552200059N0160935N5+00245-01355999999ADDGA1005+999999999GD10991+9999999GF100991999999999999999999MA1101195084005REMMET08401/03/21 03:15:02 METAR KLMO 031015Z 22003KT 10SM CLR 02/M13 A2988 RMK AO2 T00241135
0168720538001642021010310357+40167-105167FM-15+1541KLMO V0209999C000052200059N0160935N5+00235-01355999999ADDGA1005+999999999GD10991+9999999GF100991999999999999999999MA1101195084005REMMET08401/03/21 03:35:02 METAR KLMO 031035Z 00000KT 10SM CLR 02/M13 A2988 RMK AO2 T00231135
0169720538001642021010310557+40167-105167FM-15+1541KLMO V0209999C000052200059N0160935N5-00175-01255999999ADDGA1005+999999999GD10991+9999999GF100991999999999999999999MA1101195084005REMMET08501/03/21 03:55:02 METAR KLMO 031055Z 00000KT 10SM CLR M02/M12 A2988 RMK AO2 T10171125
0169720538001642021010311157+40167-105167FM-15+1541KLMO V0209999C000052200059N0160935N5-00255-01175999999ADDGA1005+999999999GD10991+9999999GF100991999999999999999999MA1101195084005REMMET08501/03/21 04:15:02 METAR KLMO 031115Z 00000KT 10SM CLR M02/M12 A2988 RMK AO2 T10251117
0169720538001642021010311357+40167-105167FM-15+1541KLMO V0203005N002152200059N0160935N5-00245-01125999999ADDGA1005+999999999GD10991+9999999GF100991999999999999999999MA1101195084005REMMET08501/03/21 04:35:02 METAR KLMO 031135Z 30004KT 10SM CLR M02/M11 A2988 RMK AO2 T10241112
0169720538001642021010311557+40167-105167FM-15+1541KLMO V0209999C000052200059N0160935N5-00395-01205999999ADDGA1005+999999999GD10991+9999999GF100991999999999999999999MA1101195084005REMMET08501/03/21 04:55:02 METAR KLMO 031155Z 00000KT 10SM CLR M04/M12 A2988 RMK AO2 T10391120
0169720538001642021010312157+40167-105167FM-15+1541KLMO V0209999C000052200059N0160935N5-00235-01125999999ADDGA1005+999999999GD10991+9999999GF100991999999999999999999MA1101195084005REMMET08501/03/21 05:15:02 METAR KLMO 031215Z 00000KT 10SM CLR M02/M11 A2988 RMK AO2 T10231112
0169720538001642021010312357+40167-105167FM-15+1541KLMO V0209999C000052200059N0160935N5-00455-01135999999ADDGA1005+999999999GD10991+9999999GF100991999999999999999999MA1101195084005REMMET08501/03/21 05:35:02 METAR KLMO 031235Z 00000KT 10SM CLR M04/M11 A2988 RMK AO2 T10451113
0169720538001642021010312557+40167-105167FM-15+1541KLMO V0209999C000052200059N0160935N5-00465-01115999999ADDGA1005+999999999GD10991+9999999GF100991999999999999999999MA1101155083975REMMET08501/03/21 05:55:02 METAR KLMO 031255Z 00000KT 10SM CLR M05/M11 A2987 RMK AO2 T10461111
0169720538001642021010313157+40167-105167FM-15+1541KLMO V0203305N002652200059N0160935N5-00535-01145999999ADDGA1005+999999999GD10991+9999999GF100991999999999999999999MA1101125083945REMMET08501/03/21 06:15:02 METAR KLMO 031315Z 33005KT 10SM CLR M05/M11 A2986 RMK AO2 T10531114
0169720538001642021010313357+40167-105167FM-15+1541KLMO V0209999C000052200059N0160935N5-00435-01065999999ADDGA1005+999999999GD10991+9999999GF100991999999999999999999MA1101125083945REMMET08501/03/21 06:35:02 METAR KLMO 031335Z 00000KT 10SM CLR M04/M11 A2986 RMK AO2 T10431106
0169720538001642021010313557+40167-105167FM-15+1541KLMO V0209999C000052200059N0160935N5-00455-01055999999ADDGA1005+999999999GD10991+9999999GF100991999999999999999999MA1101125083945REMMET08501/03/21 06:55:02 METAR KLMO 031355Z 00000KT 10SM CLR M04/M10 A2986 RMK AO2 T10451105
0169720538001642021010314157+40167-105167FM-15+1541KLMO V0209999C000052200059N0160935N5-00465-01065999999ADDGA1005+999999999GD10991+9999999GF100991999999999999999999MA1101155083975REMMET08501/03/21 07:15:02 METAR KLMO 031415Z 00000KT 10SM CLR M05/M11 A2987 RMK AO2 T10461106
0169720538001642021010314357+40167-105167FM-15+1541KLMO V0209999C000052200059N0160935N5-00415-01055999999ADDGA1005+999999999GD10991+9999999GF100991999999999999999999MA1101195084005REMMET08501/03/21 07:35:02 METAR KLMO 031435Z 00000KT 10SM CLR M04/M10 A2988 RMK AO2 T10411105
0169720538001642021010314557+40167-105167FM-15+1541KLMO V0209999C000052200059N0160935N5-00395-01065999999ADDGA1005+999999999GD10991+9999999GF100991999999999999999999MA1101225084035REMMET08501/03/21 07:55:02 METAR KLMO 031455Z 00000KT 10SM CLR M04/M11 A2989 RMK AO2 T10391106
0169720538001642021010315157+40167-105167FM-15+1541KLMO V0209999C000052200059N0160935N5-00185-00965999999ADDGA1005+999999999GD10991+9999999GF100991999999999999999999MA1101255084065REMMET08501/03/21 08:15:02 METAR KLMO 031515Z 00000KT 10SM CLR M02/M10 A2990 RMK AO2 T10181096
0169720538001642021010315357+40167-105167FM-15+1541KLMO V0201005N002152200059N0160935N5-00095-01005999999ADDGA1005+999999999GD10991+9999999GF100991999999999999999999MA1101225084035REMMET08501/03/21 08:35:02 METAR KLMO 031535Z 10004KT 10SM CLR M01/M10 A2989 RMK AO2 T10091100
0168720538001642021010315557+40167-105167FM-15+1541KLMO V0209999C000052200059N0160935N5+00005-00995999999ADDGA1005+999999999GD10991+9999999GF100991999999999999999999MA1101255084065REMMET08401/03/21 08:55:02 METAR KLMO 031555Z 00000KT 10SM CLR 00/M10 A2990 RMK AO2 T00001099
0168720538001642021010316157+40167-105167FM-15+1541KLMO V0200705N002152200059N0160935N5+00135-00955999999ADDGA1005+999999999GD10991+9999999GF100991999999999999999999MA1101225084035REMMET08401/03/21 09:15:02 METAR KLMO 031615Z 07004KT 10SM CLR 01/M09 A2989 RMK AO2 T00131095
0168720538001642021010316357+40167-105167FM-15+1541KLMO V0209999C000052200059N0160935N5+00225-00965999999ADDGA1005+999999999GD10991+9999999GF100991999999999999999999MA1101225084035REMMET08401/03/21 09:35:02 METAR KLMO 031635Z 00000KT 10SM CLR 02/M10 A2989 RMK AO2 T00221096
0168720538001642021010316557+40167-105167FM-15+1541KLMO V0200905N002152200059N0160935N5+00325-00965999999ADDGA1005+999999999GD10991+9999999GF100991999999999999999999MA1101195084005REMMET08401/03/21 09:55:02 METAR KLMO 031655Z 09004KT 10SM CLR 03/M10 A2988 RMK AO2 T00321096
0168720538001642021010317157+40167-105167FM-15+1541KLMO V0200405N001552200059N0160935N5+00425-00965999999ADDGA1005+999999999GD10991+9999999GF100991999999999999999999MA1101155083975REMMET08401/03/21 10:15:02 METAR KLMO 031715Z 04003KT 10SM CLR 04/M10 A2987 RMK AO2 T00421096
0168720538001642021010317357+40167-105167FM-15+1541KLMO V0200505N001552200059N0160935N5+00545-00925999999ADDGA1005+999999999GD10991+9999999GF100991999999999999999999MA1101125083945REMMET08401/03/21 10:35:02 METAR KLMO 031735Z 05003KT 10SM CLR 05/M09 A2986 RMK AO2 T00541092
0168720538001642021010317557+40167-105167FM-15+1541KLMO V0200405N002152200059N0160935N5+00615-00955999999ADDGA1005+999999999GD10991+9999999GF100991999999999999999999MA1101125083945REMMET08401/03/21 10:55:02 METAR KLMO 031755Z 04004KT 10SM CLR 06/M09 A2986 RMK AO2 T00611095
0168720538001642021010318157+40167-105167FM-15+1541KLMO V0209999C000052200059N0160935N5+00695-00895999999ADDGA1005+999999999GD10991+9999999GF100991999999999999999999MA1101085083915REMMET08401/03/21 11:15:02 METAR KLMO 031815Z 00000KT 10SM CLR 07/M09 A2985 RMK AO2 T00691089
0168720538001642021010318357+40167-105167FM-15+1541KLMO V0209999C000052200059N0160935N5+00795-00845999999ADDGA1005+999999999GD10991+9999999GF100991999999999999999999MA1101025083865REMMET08401/03/21 11:35:02 METAR KLMO 031835Z 00000KT 10SM CLR 08/M08 A2983 RMK AO2 T00791084
0168720538001642021010318557+40167-105167FM-15+1541KLMO V0203105N002152200059N0160935N5+00965-00825999999ADDGA1005+999999999GD10991+9999999GF100991999999999999999999MA1100985083835REMMET08401/03/21 11:55:02 METAR KLMO 031855Z 31004KT 10SM CLR 10/M08 A2982 RMK AO2 T00961082
0168720538001642021010319157+40167-105167FM-15+1541KLMO V0202505N003652200059N0160935N5+01055-00835999999ADDGA1005+999999999GD10991+9999999GF100991999999999999999999MA1100955083805REMMET08401/03/21 12:15:02 METAR KLMO 031915Z 25007KT 10SM CLR 11/M08 A2981 RMK AO2 T01051083
0179720538001642021010319357+40167-105167FM-15+1541KLMO V0202405N005752200059N0160935N5+01296-00975999999ADDGA1005+999999999GD10991+9999999GF100991999999999999999999MA1100885083745OC100985REMMET08701/03/21 12:35:02 METAR KLMO 031935Z 24011G19KT 10SM CLR 13/M10 A2979 RMK AO2 T01291097
0179720538001642021010319557+40167-105167FM-15+1541KLMO V0202905N002652200059N0160935N5+01025-00865999999ADDGA1005+999999999GD10991+9999999GF100991999999999999999999MA1100885083745OC101295REMMET08701/03/21 12:55:02 METAR KLMO 031955Z 29005G25KT 10SM CLR 10/M09 A2979 RMK AO2 T01021086
0168720538001642021010320157+40167-105167FM-15+1541KLMO V0203105N002152200059N0160935N5+00905-00755999999ADDGA1005+999999999GD10991+9999999GF100991999999999999999999MA1100855083715REMMET08401/03/21 13:15:02 METAR KLMO 032015Z 31004KT 10SM CLR 09/M07 A2978 RMK AO2 T00901075
0168720538001642021010320357+40167-105167FM-15+1541KLMO V0200205N004152200059N0160935N5+00875-00655999999ADDGA1005+999999999GD10991+9999999GF100991999999999999999999MA1100885083745REMMET08401/03/21 13:35:02 METAR KLMO 032035Z 02008KT 10SM CLR 09/M06 A2979 RMK AO2 T00871065
0168720538001642021010320557+40167-105167FM-15+1541KLMO V0200405N003152200059N0160935N5+00795-00555999999ADDGA1005+999999999GD10991+9999999GF100991999999999999999999MA1100885083745REMMET08401/03/21 13:55:02 METAR KLMO 032055Z 04006KT 10SM CLR 08/M05 A2979 RMK AO2 T00791055
0179720538001642021010321157+40167-105167FM-15+1541KLMO V0202505N007752200059N0160935N5+01065-01035999999ADDGA1005+999999999GD10991+9999999GF100991999999999999999999MA1100855083715OC100985REMMET08701/03/21 14:15:02 METAR KLMO 032115Z 25015G19KT 10SM CLR 11/M10 A2978 RMK AO2 T01061103
0179720538001642021010321357+40167-105167FM-15+1541KLMO V0202805N004152200059N0160935N5+01025-00995999999ADDGA1005+999999999GD10991+9999999GF100991999999999999999999MA1100885083745OC100885REMMET08701/03/21 14:35:02 METAR KLMO 032135Z 28008G17KT 10SM CLR 10/M10 A2979 RMK AO2 T01021099
0179720538001642021010321557+40167-105167FM-15+1541KLMO V0202505N005752200059N0160935N5+00805-00765999999ADDGA1005+999999999GD10991+9999999GF100991999999999999999999MA1100885083745OC100935REMMET08701/03/21 14:55:02 METAR KLMO 032155Z 25011G18KT 10SM CLR 08/M08 A2979 RMK AO2 T00801076
0179720538001642021010322157+40167-105167FM-15+1541KLMO V0202005N004652200059N0160935N5+00785-00745999999ADDGA1005+999999999GD10991+9999999GF100991999999999999999999MA1100915083775OC100985REMMET08701/03/21 15:15:02 METAR KLMO 032215Z 20009G19KT 10SM CLR 08/M07 A2980 RMK AO2 T00781074
0168720538001642021010322357+40167-105167FM-15+1541KLMO V0203505N005152200059N0160935N5+00655-00615999999ADDGA1005+999999999GD10991+9999999GF100991999999999999999999MA1101025083865REMMET08401/03/21 15:35:02 METAR KLMO 032235Z 35010KT 10SM CLR 07/M06 A2983 RMK AO2 T00651061
0168720538001642021010322557+40167-105167FM-15+1541KLMO V0200305N004152200059N0160935N5+00595-00455999999ADDGA1005+999999999GD10991+9999999GF100991999999999999999999MA1101055083885REMMET08401/03/21 15:55:02 METAR KLMO 032255Z 03008KT 10SM CLR 06/M04 A2984 RMK AO2 T00591045
0168720538001642021010323157+40167-105167FM-15+1541KLMO V0200605N002652200059N0160935N5+00545-00495999999ADDGA1005+999999999GD10991+9999999GF100991999999999999999999MA1101085083915REMMET08401/03/21 16:15:02 METAR KLMO 032315Z 06005KT 10SM CLR 05/M05 A2985 RMK AO2 T00541049
0168720538001642021010323357+40167-105167FM-15+1541KLMO V0200205N002152200059N0160935N5+00465-00525999999ADDGA1005+999999999GD10991+9999999GF100991999999999999999999MA1101085083915REMMET08401/03/21 16:35:02 METAR KLMO 032335Z 02004KT 10SM CLR 05/M05 A2985 RMK AO2 T00461052
0168720538001642021010323557+40167-105167FM-15+1541KLMO V0209999C000052200059N0160935N5+00415-00555999999ADDGA1005+999999999GD10991+9999999GF100991999999999999999999MA1101155083975REMMET08401/03/21 16:55:02 METAR KLMO 032355Z 00000KT 10SM CLR 04/M05 A2987 RMK AO2 T00411055
0168720538001642021010400157+40167-105167FM-15+1541KLMO V0202505N002652200059N0160935N5+00315-00455999999ADDGA1005+999999999GD10991+9999999GF100991999999999999999999MA1101225084035REMMET08401/03/21 17:15:01 METAR KLMO 040015Z 25005KT 10SM CLR 03/M04 A2989 RMK AO2 T00311045
0168720538001642021010400357+40167-105167FM-15+1541KLMO V0202305N001552200059N0160935N5+00345-00455999999ADDGA1005+999999999GD10991+9999999GF100991999999999999999999MA1101225084035REMMET08401/03/21 17:35:01 METAR KLMO 040035Z 23003KT 10SM CLR 03/M04 A2989 RMK AO2 T00341045
0168720538001642021010400557+40167-105167FM-15+1541KLMO V0209999C000052200059N0160935N5+00365-00505999999ADDGA1005+999999999GD10991+9999999GF100991999999999999999999MA1101195084005REMMET08401/03/21 17:55:01 METAR KLMO 040055Z 00000KT 10SM CLR 04/M05 A2988 RMK AO2 T00361050
0168720538001642021010401157+40167-105167FM-15+1541KLMO V0209999C000052200059N0160935N5+00185-00495999999ADDGA1005+999999999GD10991+9999999GF100991999999999999999999MA1101255084065REMMET08401/03/21 18:15:01 METAR KLMO 040115Z 00000KT 10SM CLR 02/M05 A2990 RMK AO2 T00181049
0168720538001642021010401357+40167-105167FM-15+1541KLMO V0200705N002652200059N0160935N5+00035-00535999999ADDGA1005+999999999GD10991+9999999GF100991999999999999999999MA1101295084095REMMET08401/03/21 18:35:01 METAR KLMO 040135Z 07005KT 10SM CLR 00/M05 A2991 RMK AO2 T00031053
0168720538001642021010401557+40167-105167FM-15+1541KLMO V0201605N002652200059N0160935N5+00005-00525999999ADDGA1005+999999999GD10991+9999999GF100991999999999999999999MA1101325084125REMMET08401/03/21 18:55:01 METAR KLMO 040155Z 16005KT 10SM CLR 00/M05 A2992 RMK AO2 T00001052
0168720538001642021010402157+40167-105167FM-15+1541KLMO V0201605N002152200059N0160935N5+00115-00495999999ADDGA1005+999999999GD10991+9999999GF100991999999999999999999MA1101295084095REMMET08401/03/21 19:15:01 METAR KLMO 040215Z 16004KT 10SM CLR 01/M05 A2991 RMK AO2 T00111049
0168720538001642021010402357+40167-105167FM-15+1541KLMO V0200905N002652200059N0160935N5-00015-00545999999ADDGA1005+999999999GD10991+9999999GF100991999999999999999999MA1101295084095REMMET08401/03/21 19:35:01 METAR KLMO 040235Z 09005KT 10SM CLR 00/M05 A2991 RMK AO2 T10011054
0168720538001642021010402557+40167-105167FM-15+1541KLMO V0202605N002652200059N0160935N5+00005-00545999999ADDGA1005+999999999GD10991+9999999GF100991999999999999999999MA1101325084125REMMET08401/03/21 19:55:01 METAR KLMO 040255Z 26005KT 10SM CLR 00/M05 A2992 RMK AO2 T00001054
0169720538001642021010403157+40167-105167FM-15+1541KLMO V0203505V004152200059N0160935N5-00105-00605999999ADDGA1005+999999999GD10991+9999999GF100991999999999999999999MA1101395084185REMMET08501/03/21 20:15:01 METAR KLMO 040315Z 35008KT 10SM CLR M01/M06 A2994 RMK AO2 T10101060
0168720538001642021010403357+40167-105167FM-15+1541KLMO V0202905N003652200059N0160935N5+00305-00565999999ADDGA1005+999999999GD10991+9999999GF100991999999999999999999MA1101465084235REMMET08401/03/21 20:35:01 METAR KLMO 040335Z 29007KT 10SM CLR 03/M06 A2996 RMK AO2 T00301056
0168720538001642021010403557+40167-105167FM-15+1541KLMO V0209999C000052200059N0160935N5+00145-00635999999ADDGA1005+999999999GD10991+9999999GF100991999999999999999999MA1101465084235REMMET08401/03/21 20:55:01 METAR KLMO 040355Z 00000KT 10SM CLR 01/M06 A2996 RMK AO2 T00141063
0168720538001642021010404157+40167-105167FM-15+1541KLMO V0202705N002652200059N0160935N5+00375-00645999999ADDGA1005+999999999GD10991+9999999GF100991999999999999999999MA1101465084235REMMET08401/03/21 21:15:02 METAR KLMO 040415Z 27005KT 10SM CLR 04/M06 A2996 RMK AO2 T00371064
0179720538001642021010404357+40167-105167FM-15+1541KLMO V0202705N008852200059N0160935N5+00755-00655999999ADDGA1005+999999999GD10991+9999999GF100991999999999999999999MA1101465084235OC101495REMMET08701/03/21 21:35:02 METAR KLMO 040435Z 27017G29KT 10SM CLR 08/M06 A2996 RMK AO2 T00751065
0179720538001642021010404557+40167-105167FM-15+1541KLMO V0202805N008252200059N0160935N5+00795-00695999999ADDGA1005+999999999GD10991+9999999GF100991999999999999999999MA1101525084295OC101545REMMET08701/03/21 21:55:02 METAR KLMO 040455Z 28016G30KT 10SM CLR 08/M07 A2998 RMK AO2 T00791069
0168720538001642021010405157+40167-105167FM-15+1541KLMO V0202805N005152200059N0160935N5+00575-00665999999ADDGA1005+999999999GD10991+9999999GF100991999999999999999999MA1101525084295REMMET08401/03/21 22:15:02 METAR KLMO 040515Z 28010KT 10SM CLR 06/M07 A2998 RMK AO2 T00571066
0168720538001642021010405357+40167-105167FM-15+1541KLMO V0202505N004152200059N0160935N5+00475-00665999999ADDGA1005+999999999GD10991+9999999GF100991999999999999999999MA1101525084295REMMET08401/03/21 22:35:02 METAR KLMO 040535Z 25008KT 10SM CLR 05/M07 A2998 RMK AO2 T00471066
0168720538001642021010405557+40167-105167FM-15+1541KLMO V0202705N002652200059N0160935N5+00365-00655999999ADDGA1005+999999999GD10991+9999999GF100991999999999999999999MA1101595084355REMMET08401/03/21 22:55:02 METAR KLMO 040555Z 27005KT 10SM CLR 04/M06 A3000 RMK AO2 T00361065
0168720538001642021010406157+40167-105167FM-15+1541KLMO V0201005N002152200059N0160935N5+00295-00685999999ADDGA1005+999999999GD10991+9999999GF100991999999999999999999MA1101665084415REMMET08401/03/21 23:15:02 METAR KLMO 040615Z 10004KT 10SM CLR 03/M07 A3002 RMK AO2 T00291068
0168720538001642021010406357+40167-105167FM-15+1541KLMO V0200905N002152200059N0160935N5+00305-00735999999ADDGA1005+999999999GD10991+9999999GF100991999999999999999999MA1101665084415REMMET08401/03/21 23:35:02 METAR KLMO 040635Z 09004KT 10SM CLR 03/M07 A3002 RMK AO2 T00301073
0168720538001642021010406557+40167-105167FM-15+1541KLMO V0209999C000052200059N0160935N5+00395-00755999999ADDGA1005+999999999GD10991+9999999GF100991999999999999999999MA1101695084445REMMET08401/03/21 23:55:02 METAR KLMO 040655Z 00000KT 10SM CLR 04/M07 A3003 RMK AO2 T00391075
0168720538001642021010407157+40167-105167FM-15+1541KLMO V0200405N002152200059N0160935N5+00175-00835999999ADDGA1005+999999999GD10991+9999999GF100991999999999999999999MA1101765084505REMMET08401/04/21 00:15:02 METAR KLMO 040715Z 04004KT 10SM CLR 02/M08 A3005 RMK AO2 T00171083
0168720538001642021010407357+40167-105167FM-15+1541KLMO V0202705N002152200059N0160935N5+00265-00775999999ADDGA1005+999999999GD10991+9999999GF100991999999999999999999MA1101795084535REMMET08401/04/21 00:35:02 METAR KLMO 040735Z 27004KT 10SM CLR 03/M08 A3006 RMK AO2 T00261077
0168720538001642021010407557+40167-105167FM-15+1541KLMO V0202805N003652200059N0160935N5+00455-00945999999ADDGA1005+999999999GD10991+9999999GF100991999999999999999999MA1101835084555REMMET08401/04/21 00:55:02 METAR KLMO 040755Z 28007KT 10SM CLR 05/M09 A3007 RMK AO2 T00451094
0168720538001642021010408157+40167-105167FM-15+1541KLMO V0202405N002152200059N0160935N5+00475-00985999999ADDGA1005+999999999GD10991+9999999GF100991999999999999999999MA1101865084585REMMET08401/04/21 01:15:02 METAR KLMO 040815Z 24004KT 10SM CLR 05/M10 A3008 RMK AO2 T00471098
0168720538001642021010408357+40167-105167FM-15+1541KLMO V0202905N003152200059N0160935N5+00165-00945999999ADDGA1005+999999999GD10991+9999999GF100991999999999999999999MA1101905084615REMMET08401/04/21 01:35:02 METAR KLMO 040835Z 29006KT 10SM CLR 02/M09 A3009 RMK AO2 T00161094
0168720538001642021010408557+40167-105167FM-15+1541KLMO V0203005N001552200059N0160935N5+00165-00855999999ADDGA1005+999999999GD10991+9999999GF100991999999999999999999MA1101905084615REMMET08401/04/21 01:55:02 METAR KLMO 040855Z 30003KT 10SM CLR 02/M08 A3009 RMK AO2 T00161085
0168720538001642021010409157+40167-105167FM-15+1541KLMO V0202705N002652200059N0160935N5+00065-00875999999ADDGA1005+999999999GD10991+9999999GF100991999999999999999999MA1101935084645REMMET08401/04/21 02:15:02 METAR KLMO 040915Z 27005KT 10SM CLR 01/M09 A3010 RMK AO2 T00061087
0168720538001642021010409357+40167-105167FM-15+1541KLMO V0202405N004652200059N0160935N5+00475-00975999999ADDGA1005+999999999GD10991+9999999GF100991999999999999999999MA1101935084645REMMET08401/04/21 02:35:02 METAR KLMO 040935Z 24009KT 10SM CLR 05/M10 A3010 RMK AO2 T00471097
0168720538001642021010409557+40167-105167FM-15+1541KLMO V0202405N005152200059N0160935N5+00505-01025999999ADDGA1005+999999999GD10991+9999999GF100991999999999999999999MA1101905084615REMMET08401/04/21 02:55:02 METAR KLMO 040955Z 24010KT 10SM CLR 05/M10 A3009 RMK AO2 T00501102
0168720538001642021010410157+40167-105167FM-15+1541KLMO V0202405N006752200059N0160935N5+00605-01075999999ADDGA1005+999999999GD10991+9999999GF100991999999999999999999MA1101865084585REMMET08401/04/21 03:15:02 METAR KLMO 041015Z 24013KT 10SM CLR 06/M11 A3008 RMK AO2 T00601107
0168720538001642021010410357+40167-105167FM-15+1541KLMO V0202405N005752200059N0160935N5+00595-01105999999ADDGA1005+999999999GD10991+9999999GF100991999999999999999999MA1101865084585REMMET08401/04/21 03:35:02 METAR KLMO 041035Z 24011KT 10SM CLR 06/M11 A3008 RMK AO2 T00591110
0179720538001642021010410557+40167-105167FM-15+1541KLMO V0202505V004152200059N0160935N5+00655-01155999999ADDGA1005+999999999GD10991+9999999GF100991999999999999999999MA1101905084615OC100725REMMET08701/04/21 03:55:02 METAR KLMO 041055Z 25008G14KT 10SM CLR 07/M11 A3009 RMK AO2 T00651115
0179720538001642021010411157+40167-105167FM-15+1541KLMO V0202605N006252200059N0160935N5+00615-01185999999ADDGA1005+999999999GD10991+9999999GF100991999999999999999999MA1101905084615OC100885REMMET08701/04/21 04:15:02 METAR KLMO 041115Z 26012G17KT 10SM CLR 06/M12 A3009 RMK AO2 T00611118
